:020000040800F2
:1000000000500020C9040008F0B5204B83B0984789
:100010001F4B98471F4B1B78012B05D000201E4B10
:100020009847002003B0F0BD1C4B98471C4B9847E5
:100030001C4B98471C4C1D4E1D4D1E4F0020A047C9
:100040000DF1070128B10020B0479DF807307F2B44
:1000500012D00020A8470028F0DD00200DF1070194
:10006000B8479DF807307F2BE8D1134B00221A7058
:100070007920124B984705E00F4B05221A70792022
:100080000E4B98470E4B9847CBE700BF7905000809
:10009000C5000008E102002079040008CD0700082F
:1000A00071090008910B0008310C0008BD0C000814
:1000B000990A0008210B0008E00200204101000815
:1000C000F902000808B540F2D503C0F600039847CE
:1000D00008BD00BF4FF44063C4F20103196840F645
:1000E0000C4221F00F0119601968C4F20102196075
:1000F000186840F6084140F0080018601368C4F220
:10010000010123F0010313600B6813F001030ED00B
:10011000084B01221A70084B002103F1800203F8FA
:10012000011F9342FBD1054B00221A707047014A10
:100130001370F0E7E1020020E3020020E00200205B
:1001400008B540F2E022C2F2000240F64D0301463B
:10015000C0F600031078984708BD00BF08B540F20C
:10016000E022C2F2000240F60D031078C0F6000350
:10017000984708BD38B5134DA8473128044607D025
:100180000CD9732804D011D97F2802D0FF2811D1AF
:10019000A84779200C4B9847204638BD0228F7D055
:1001A0000DD91128F4D0212804D1F1E7A0F143039F
:1001B000012BEDD91F20044B9847204638BD00285D
:1001C000E6D0F7E75D0100084101000800B504230F
:1001D00083B08DF80730104B9847104B3520984767
:1001E0000F4B002103F1800203F8011F9342FBD162
:1001F0004FF440500B4BC0F6000098478DF80700B5
:100200009DF80730084A0120042B107002D0074BDC
:100210009847002003B000BD492600087D2600084D
:10022000E302002061270008E4020020692600089C
:1002300070B542F6FF73C0F60003042282B0984204
:100240008DF807200AD900F17844A4F540540D4DEB
:10025000A40A2E5D26B1012002B070BD0020FBE78C
:1002600004F500300C308002074B98478DF80700EA
:100270009DF807300122042B2A55ECD0034B9847F8
:100280003046E9E7E40200206127000869260008FB
:100290002DE9F0419608B30782B0154B18BF01361F
:1002A00007460C469847E0B1FEB1DFF848800025CC
:1002B0003F1B01E0B54218D06378A0782278E1783E
:1002C0001B0243EA004342EA016138191943C0475F
:1002D0008DF807009DF807300135042B04F1040464
:1002E000E8D0002002B0BDE8F0810120FAE700BFAD
:1002F00031020008112700082DE9F04F43F20406EF
:10030000D3B0C0F6000641F210030196043341F267
:100310001C06C4F20203C4F202060293039641F2E1
:10032000180341F21006C4F20203C4F20206DFF819
:1003300044914E4F4E4C07AD0DF11F0804930596A6
:10034000C847002848D0022800F08480432849D0BC
:10035000312855D10DF11B064FF0000AA04706F8D1
:10036000010F46458AEA000AF8D1414B98472B789D
:100370006A781B0695F802B043EA0242EB7842EA3B
:100380000B2B4BEA0303824500936CD01F20B84728
:10039000A0470026834600F1010AA047A855013670
:1003A0008BEA000BB2455FFA8BFBF6D8304A9047D8
:1003B000009B064603F5405040F2912329465246E1
:1003C000C0F600039847012808BFB34515D179202E
:1003D000B847C8470028B6D1B8472220B847792087
:1003E000B847ADE7A0472870A04740F2CD13C0F64C
:1003F0000003687098470128E9D01F20B8479FE79D
:1004000021289DD10DF11B06A04706F8010F464596
:10041000FAD1174B984740F669267920B847C0F6BD
:1004200000066420B047019E14203168029E00221D
:100430003060039E41F20C033260049EC4F202035A
:100440003260059E6FF4F01232606FF480421A60E1
:10045000884775E70120B8470420B8471020B847FF
:100460007920B8476CE77920B84791E74101000847
:100470005D01000875010008F8B541F2180143F26A
:10048000040641F2140541F21C040020C4F20205E6
:10049000C4F20204C4F20201142741F21002C0F6B1
:1004A00000063668C4F202022F6041F20C0320609D
:1004B00008606FF4F0111160C4F202036FF480421F
:1004C0001A60B047F8BD00BF684620F007018D46AE
:1004D00019B52349234B99420BD2C843C01820F0C9
:1004E0000300214C043000231A595A50043383422C
:1004F000FAD11F481F494FF000028842B8BF40F8A8
:10050000042BFFF6FAAF4FF48054C4F202042268C1
:10051000002342F48032226040F2FF402168013320
:10052000834281F400318CBF0022012212EA514241
:10053000F4D14FF40053C4F202031A6842F01002DF
:100540001A601A6822F003021A601A6842F0020266
:100550001A60064B9847BDE819408546704700BFB2
:1005600000000020E40000206028000809000008C6
:100570000002002060130020F8B540F68D03C0F69D
:100580000003984740F62113C0F60003984740F651
:1005900004064FF4006E43F2B3474FF4406540F653
:1005A000044441F2040144F244404FF03332C4F2B7
:1005B000010EC4F20101C3F24430C4F20106C3F2D9
:1005C0003337C4F20105C4F2010440F2CD73CEF812
:1005D0000020C0F6000337602A6022600860984758
:1005E00040F67113C0F60003984740F69133C0F609
:1005F0000003984740F67933C0F600039847F8BDEA
:1006000000B544F20443C4F200031B6883B002A99E
:1006100001F8013D0120054B9847054B5B6913B17B
:100620009DF80700984703B000BD00BFC50A000849
:100630006403002000B543F60403C4F201031B6801
:1006400083B002A901F8013D0020054B9847054BF6
:100650009B6813B19DF80700984703B000BD00BF29
:10066000C50A0008640300204FF46052C4F201027E
:1006700013681B06FCD543F60403C4F2010318609B
:10068000704700BF2DE9F04141F21806C4F202069E
:10069000356840F26433C2F2000343F60C0458603C
:1006A0009960C4F2010445F480480C2343F6100C11
:1006B00043F6140E43F60807C6F8008000222360B4
:1006C000C4F2010CC4F2010E40F27123C4F201071E
:1006D0004EF20415CCF80020CEF20005CEF8002032
:1006E0003B602B68252043F020032B60216840F6F7
:1006F000351341F02001216040F23561C0F600035E
:10070000C0F600019847236843F400532360BDE816
:10071000F08100BFF8B541F21C04C4F20204256860
:1007200040F26432C2F2000245F400354FF4006337
:1007300010615161C4F2010325601A6844F20C444F
:1007400022F470621A601A68C4F2000442F4407223
:100750001A601A6844F2104642F400621A601A687D
:1007600044F2144522F470421A601A6844F20840B8
:100770001A601F68002247F480471F600C23236023
:10078000C4F200004FF49C73C4F20006C4F20005EA
:100790004EF204113260CEF200012A6003600B6851
:1007A000262043F040030B60216840F6351341F0EA
:1007B0002001216040F20161C0F60003C0F6000193
:1007C0009847236843F400532360F8BD08B50B4BEA
:1007D00098470B4B002203F148011A605A600C3312
:1007E0008B42FAD100214FF4E130064B98474FF489
:1007F000E1300021044B984708BD00BF7D0A000886
:1008000068030020850600081507000830B500239E
:1008100083B0052804468DF807300DD0084D2046DA
:10082000A8470028FBD020460DF10701054B98474B
:100830009DF8070003B030BD034B9847FAE700BFAF
:10084000990A0008210B0008D90B0008012808B5F7
:100850000AD005D3052802D108460A4B984708BD9F
:100860000846094B984708BD4FF48842C4F200027D
:1008700013681806FCD544F20443C4F2000319605F
:1008800008BD00BF090C00086906000841F2040316
:10089000C4F202031A684FF4805122F47C1222F051
:1008A000F0021A601A68C4F2020142F4E8121A60F7
:1008B0000B680A4643F080730B6013689B01FCD5FC
:1008C00041F20403C4F2020319681A4621F003013D
:1008D0001960196841F002011960196821F480015A
:1008E0001960196821F4E0611960196841F48061A8
:1008F0001960196821F4605119601968196013684A
:1009000003F00C03082BFAD141F21803C4F20203DE
:100910001A6842F4804242F01D021A60704700BF1C
:1009200040F200434EF60852C2F20003CEF200023B
:100930001360704740F200431030C2F2000343F8E6
:100940002010704740F200438008C2F2000343F8D1
:100950002010704708B540F6592140F645133C2059
:10096000C0F600010022C0F60003984708BD00BF92
:1009700010B51B4C2378012B30D01A4B002203F109
:10098000A00103F8082C23F8062C23F8042C43F8C4
:10099000102B8B42F5D1144B98474EF2140141F6BF
:1009A0003F10CEF200014EF21802C0F201000860C2
:1009B000CEF200024EF210030021CEF200031160CD
:1009C0001A6842F004021A601A6842F002021A60C1
:1009D0001A6842F001021A600123237010BD00BFA3
:1009E000000200201002002055090008174A38B5FF
:1009F0001168174B013111601A8892B21AB11A8826
:100A0000013A92B21A80134C04F1A00502E01034AE
:100A1000AC421AD014F8083C012BF8D134F8063C4B
:100A2000013B9BB224F8063C002BF0D114F8072CB4
:100A3000012A34F8042C08BF04F8083C24F8062CDA
:100A4000236810349847AC42E4D138BD040200203A
:100A5000A80200201002002008B540F6ED13C0F6F1
:100A60000003984708BD00BF034A108013889BB25B
:100A7000002BFBD1704700BFA802002000230448D0
:100A800004491A461A525A5202330E2BFAD17047B1
:100A9000880600209806002040F2986240F28863A1
:100AA000C2F20002C2F2000333F9103032F9102012
:100AB000D21A2032D317DB0ED21802F01F00C01A50
:100AC000704700BF70B4134C134B34F8106033F907
:100AD000102035B2AA1A2032D317DB0ED21802F03A
:100AE0001F02D31A1F2B12D0013636B2F317DB0EBA
:100AF00000EB4012F6180978551906F01F06074A50
:100B0000F31A24F810305155012070BC70470020B2
:100B1000FBE700BF98060020880600209005002013
:100B200070B4124C124A34F81060034632F91000C7
:100B300035B2401B2030C217D20E801800F01F00C3
:100B4000801A10D0013636B2F21703EB4310D20EE2
:100B500045190848B618405D06F01F06B21A08701D
:100B6000012024F8132070BC704700BF88060020C5
:100B700098060020900500200423C4F201031A689F
:100B800022F0E0621A601A6842F080621A607047D0
:100B900008B540F61943C0F60003984740F2A86331
:100BA000C2F2000300221A6072B641F20153C0F68D
:100BB0000003984741F22153C0F60003984741F2E1
:100BC0006553C0F60003984742F21113C0F60003C4
:100BD000984762B608BD00BF10B5002382B0084C2C
:100BE0008DF807300020A0470028FBD000200DF131
:100BF0000701044B98479DF8070002B010BD00BFE5
:100C0000310C0008BD0C000808B541F21573C0F6A0
:100C10000003984708BD00BF40F6B02240F6B42359
:100C20000021C2F20002C2F2000311801980704755
:100C300040F6B42240F6B023C2F20002C2F2000332
:100C400032F9102033F91030D31A03F58063D81726
:100C5000800D1B189B059B0D181A704770B4144C1F
:100C6000144B34F8106033F9103035B2EB1A03F539
:100C70008063DA17920D9B189B059B0DA3F2FF333F
:100C80009A4212D0013636B2F217920DB3189B0574
:100C90009B0D097800EB80269B1A074A751924F8EA
:100CA00010305155012070BC70470020FBE700BF99
:100CB000B40A0020B00A0020AC06002070B4124C28
:100CC000124B34F8106033F9103035B25B1B03F56A
:100CD00080630246D817800D1B189B059B0D181AC0
:100CE00010D0013636B2F3179B0D02EB8220451966
:100CF000F6180748B605405DB60DF61A08700120D3
:100D000024F8126070BC7047B00A0020B40A0020BA
:100D1000AC06002038B5154B1A78012A00D038BD32
:100D2000134C206800B34028124A14D8136885B2C7
:100D30001818106000229BB222600F48C021C01812
:100D40002A460E4B9847012029460D4B9847012013
:100D50000C4B984738BD1368403803F140012060C0
:100D60009BB211604025E8E7187038BDCC02002026
:100D7000D8020020D4020020240B002055210008B6
:100D8000952300085922000810B540F6BC24C2F291
:100D9000000442F2554321460320C0F60003984761
:100DA00041F23163C1B2C0F600032046984742F2D7
:100DB0007D230320C0F60003984710BD08B5084BFB
:100DC0001B68052B00D008BD064B1A68511C052A6C
:100DD0001960F8D100221A60034B9847F3E700BF6F
:100DE000C0020020AC0200207116000845F6444203
:100DF000C4F20002136870B56B4C9BB26B4D23803C
:100E000021882B8888B0194001F4007189B200292B
:100E100068D1228802F4004213425FD1228802F492
:100E2000806213424ED1228802F4005213421FBF47
:100E300045F64442C4F200024DF6FF71116022886B
:100E400002F48052134231D1228802F4006213422C
:100E50000ED0574B1B78002B25D10220554B9847BD
:100E600045F64442C4F200024FF2FF712B88116034
:100E7000228802F48072134213D045F644424FF6A2
:100E8000FF61C4F2000245F648431160C4F200035A
:100E90001B68190432D4484B00221A600720454BC6
:100EA000984708B070BD454B9847D9E745F644438D
:100EB000C4F200034EF6FF721A6000203D4B9847C3
:100EC0002B88C1E745F64443C4F200034FF6FF32D6
:100ED0001A603B4B5B6898472B88A4E7394B9847CF
:100EE0002B889BE7384B4FF6FF5111601A7801327F
:100EF000D2B21A70354B98472B888AE72E490B6877
:100F000001330B600B68032BC8D945F64042C4F28D
:100F10000002136813F00803C0D110682C4D80B292
:100F20004FF4B8422860C4F2000252F8044B08AEF5
:100F300006EB83000133A4B2082B40F8204CF4D117
:100F40002A6845F6404342F001022A602A68C4F24A
:100F5000000392B21A602A6845F6444022F001026A
:100F60002A602A68C4F2000092B21A60026845F64C
:100F700044435205C4F20003F8D54FF4B8424FF68B
:100F8000FF301860C4F20002002308AC04EB8300B9
:100F900050F8200C013380B2082B42F8040BF4D136
:100FA00000230B607AE700BFFC0A002058130020E2
:100FB000C4020020E9130008B8020020B91200089A
:100FC0005C0000208D240008B4020020BD0D000844
:100FD000B0020020034B9B7A13B1034B05221A6029
:100FE000704700BF34130020C002002040F2C0232D
:100FF000C2F2000304221A60704700BF034B1A7844
:10100000202A01D100221A70704700BFBC020020C4
:10101000704700BF212810B5034603D0202811D007
:10102000022010BD0F4A13681B7803F07F03212BA9
:10103000F6D10D4913680024204699615C828847E7
:10104000204610BD074A1168097801F07F01212967
:1010500003D0064A0220137010BD044804490370EF
:10106000E8E700BF54130020A9100008BC020020CC
:10107000C1100008074B1B681B7803F07F03212B6E
:1010800001D002207047022801D02228F9D1002087
:10109000704700BF5413002009B102207047012897
:1010A000FBD80846704700BF08B103487047034BA0
:1010B00008221B681A827047D800002054130020B1
:1010C00008B103487047034B08221B681A82704717
:1010D000D80000205413002008B5064B1B68DB78AD
:1010E000042B05D8044901EBC301044B984708BD04
:1010F000002008BD54130020B8000020691B000820
:1011000008B540F2540141F66933C2F20001C0F65D
:101110000003984708BD00BF08B540F2B00141F692
:101120006933C2F20001C0F60003984708BD00BF52
:1011300041F2543242F61C03C0F60003C2F2000230
:101140001268D9792DE9F04742F2AD1300245172AB
:101150009472D472C0F60003204642F2C11698473A
:10116000C0F6000620464FF4007142F2D915B04790
:10117000C0F600051021204642F22D3AA847C0F6DD
:10118000000A4021204642F20938D047C0F6000844
:1011900080212046C04742F2A1232046C0F600032A
:1011A000984740F25C03C2F2000342F2B53993F86B
:1011B0002C10C0F600092046C84742F27D23C0F635
:1011C00000032046984701202146B0470120C02156
:1011D000C04742F2192701202021A847C0F6000786
:1011E00001202146B84702204FF4C061B0470220D9
:1011F0004FF48071C04702202146B84702202021C9
:10120000A84703202146B04703204FF48871D047F8
:1012100003204021C84703204FF44051B8472146DE
:101220000320A84742F25D03C0F60003204698471A
:1012300040F2C023C2F2000301221A60BDE8F08729
:1012400041F24D7310B5C0F60003984741F2543394
:10125000C2F200031A68002441F27D239472C0F6A2
:101260000003984742F22943C0F60003984740F232
:10127000C023C2F200031C6010BD00BF38B541F2AC
:1012800015630120C0F60003984745F6444545F62E
:10129000404341F25832C4F2000300214FF4E054BD
:1012A0000120C4F20005C2F200021860196008466D
:1012B000296014801C6038BD70B5002382B045F6EB
:1012C0004041C4F2000101934FF4B8420D683A491D
:1012D000C4F2000252F8040B80B241F8230001333B
:1012E000082BF7D1AAB24FF6FE7442F4806245F69D
:1012F00040432C40C4F2000342F0010644F48065F0
:1013000045F644401A60C4F200001E601D60026889
:1013100045F644435205C4F20003F8D54FF4B842F1
:101320004FF6FF301860C4F20002002351F823008A
:10133000013380B2082B42F8040BF7D145F6404345
:10134000C4F2000344F481641C6019684FF4E04265
:1013500089B241F004011960C4F2000211684EF62E
:10136000105401911168CEF2000421F0030141F004
:1013700001011160206845F6444140F004002060FE
:10138000C4F200010868C0040FD54EF6FF70086073
:1013900018684FF6F77101401960019B13602368CC
:1013A00023F00403236002B070BD044B9847236808
:1013B00023F004032360F6E7040B002091170008D4
:1013C00010B545F64044C4F2000423684FF6FB72A2
:1013D0001A4041F24553C0F60003226098474FF48B
:1013E0003F43236010BD00BF10B52B4C072818BF2A
:1013F00020702378052B19D8DFE803F01B222A2F51
:101400003A036378013BDBB26370637883B945F6D6
:101410004042C4F2000210684FF6EF7101401160C3
:101420001D4A062111701D4A136010BD062323704A
:1014300010BD1A4B1B68002B28D00523237010BD4C
:10144000174B984704232370144B01221A6010BDD8
:10145000022363700323237010BD6378013BDBB26A
:1014600063706378002BE3D10B4B04221A7010BD1C
:1014700045F64043C4F200031A6892B242F01002EB
:101480001A60052323700A23637010BD044B98472C
:101490000623237010BD00BF000B0020C8020020EF
:1014A000C113000840F21443C4F201034FF4802238
:1014B0001A60704730B4CAB1551EEDB20135002331
:1014C0006D001C4607E03032CA54CA1802330001CE
:1014D000AB4254700AD0020F092AF4D93732CA54E9
:1014E000CA1802330001AB425470F4D130BC7047CB
:1014F00008B540F6ED53C0F60003984708BD00BF9D
:1015000041F20403C4F201031A6822F470021A6063
:101510001A6842F400121A601A681A60704700BF15
:1015200041F20402C4F20202116841F21C0321F4E8
:1015300080011160C4F202031A6842F400021A60CA
:10154000704700BF054B9B7A1BB9054B01221A60FF
:101550007047034B05221A60704700BF3413002008
:10156000C002002040F2144238B5C4F201024FF428
:1015700080214FF480631160C4F20103196840F2C6
:10158000044221F480211960C4F2010210684FF472
:10159000816120F480201060C4F20101086840F2EB
:1015A0000C4240F480200860C4F20102116840F649
:1015B000451421F4802111601D6841F2F14145F488
:1015C00080259020C0F600010022C0F600041D60B6
:1015D000A0474FF46143CEF200031A6841F2A541DF
:1015E00042F480121A60C0F600010022E820A047F1
:1015F0004EF20412CEF2000211684FF4826341F4FD
:1016000080611160C4F201031A6842F480221A60FA
:1016100038BD00BF41F20C03C4F201031A6818B9C7
:1016200042F400521A60704722F400521A60704768
:101630002DE9F0410D4682B0064691B1DFF82C80CD
:10164000094F0024335D0DF1070100208DF80730AC
:10165000C0473B68013413B19DF807009847AC427E
:10166000F0D302B0BDE8F081A80600205D0C0008B0
:1016700070B5204C2378012B26D01F4D2B68B3F575
:10168000006F22D01D4A11688B422FD098BF98B2AC
:1016900021D9C3F500611A4A4029116098B21FD9B7
:1016A000403340392B6011604026164B0125181835
:1016B0003246C021144B257098472846134B3146BB
:1016C00098472846124B984770BD0C4B002019686C
:1016D0002860034651B1C91A094A40291160DFD870
:1016E000CB182B6000238EB21360DEE7002323703B
:1016F00070BD00BFCC020020D4020020D002002028
:10170000D8020020240B0020552100089523000852
:10171000592200080A4B10B41B680133B3F5006F5F
:101720000CD2084B084C19684A1CB2F5006F605483
:101730001A6001D100221A6010BC7047FEE700BF9A
:10174000D8020020D0020020240B002038B54FF230
:10175000E8724FF2F073C1F6FF72C1F6FF731268C0
:101760001B684FF2EC71C1F6FF71D0180C6807D0FE
:1017700004490822044DA847204604490422A847EA
:1017800038BD00BF02000020B51400081200002080
:1017900030BF704708B538B1064B1B681B689847C7
:1017A000054B18680A3008BD034B01221B681A82DA
:1017B00008BD00BF501300205413002008B538B1F5
:1017C000064B1B689B689847054B18680C3008BD92
:1017D000034B01221B681A8208BD00BF5013002072
:1017E0005413002008B5002837D0214B2148002190
:1017F0001A680180137813F07F0317D0012B2BD0C8
:10180000022B28D1537903F00F02920002F180429B
:1018100002F5B84213F0800F136823D103F440534C
:10182000B3F5805F11D1012303700EE0527A02F00C
:101830002003DBB202F040028B42D2B218BF022377
:10184000002AF1D043F0010303700B4B1B681B69A6
:101850009847084808BD084608BD054B02221B688A
:101860001A8208BD03F03003102BEED1DBE700BF76
:101870005413002024130020501300202DE9F843B6
:101880002B4E3468238A207A002B08BF042814BF0B
:101890004FF000084FF001080AD1264B1A78012AB0
:1018A00030D0254B102207271A802772BDE8F88315
:1018B000A78AA2699F4234BF3D461D462846BB42C7
:1018C0008CBF0227042790471C4B8146404698470F
:1018D0002A4601461A4B484698472946194B404626
:1018E0009847238A628A5B1B2382134BAD183022F0
:1018F0001A806582144B34684FF440521A80277264
:10190000BDE8F88345F65042C4F20002116843F284
:10191000020289B2C2F200028A185200002111604C
:10192000054A04273020108019702772BDE8F8831B
:1019300054130020DC0200205C1300205523000813
:1019400055210008952300085A13002010B50B4BB1
:101950000B4A1B685178DA78914201D2022010BDFF
:1019600099780029FAD19C88002CF7D19A72054BFE
:101970001B685B689847204610BD00BF54130020C9
:10198000E00000205013002038B5104A104C1268B7
:10199000236892695879D978904723689A7A0AB966
:1019A000022038BD0028FBD11A79002AF8D19D7891
:1019B000002DF5D1074B1B68DB6898472368284644
:1019C0005979DA78D9721A7338BD00BF2C13002008
:1019D000541300205013002038B5354B1B6818787D
:1019E00010F07F0003D0022806D0022038BD5A7ABA
:1019F00022F020025A7238BD5A88002AF6D11A798C
:101A0000002AF3D15A7922F08000810001F180444C
:101A1000150604F5B84456BF2468256804F44055FB
:101A2000244C48BF05F030052478A042DDD2002DBB
:101A3000DBD09B7A002BD8D002F08003DBB273B1ED
:101A400001F1804303F5B8431B6803F03003102B0A
:101A500021D0194B1B685B699847002038BD01F104
:101A6000804101F5B844236803F44053B3F5805F27
:101A7000EFD1C8B9114B93F82C10114B984722683D
:101A80004BF68F73134083F4405343F4004343F009
:101A900080032360DDE7C4B220460A4B9847204606
:101AA0003021094B9847D4E7084B9847E7E700BF38
:101AB00054130020E0000020501300205C000020A0
:101AC000B5230008E5220008D9210008C12200083A
:101AD00038B5224B19684B7923F08002900000F151
:101AE00080441D0604F5B84456BF2468256804F4F4
:101AF00040551B4C48BF05F030052478A24201D365
:101B0000022038BD4A88002AFAD1002DF8D08A7AFE
:101B1000002AF5D003F0800300F1804202F5B842BC
:101B2000DBB211687BB148F6BF730B4083F0100342
:101B300043F4004343F0800313600A4B1B689B6926
:101B40009847002038BD4BF68F730B4083F48053C9
:101B500043F4004343F080031360EEE75413002086
:101B6000E000002050130020054B1B685A8A10B17A
:101B700008688018704789888A1A1A82704700BFDF
:101B80005413002008B50C4B002093F82C100B4B7D
:101B900098470B4B1B68187A082806D1094B4FF45D
:101BA00080521A80084B10221A80B0F1090CDCF127
:101BB000000050EB0C0008BD5C000020B5230008BD
:101BC000541300205A1300205C1300202DE9F0412B
:101BD000354D2C68237A022B18BF042B14BF002626
:101BE000012605D0032B18BF052B07D0072B0ED0DD
:101BF000082323722D4B9847BDE8F081A169238A01
:101C000011B35BB9A38A002B49D0294A2EE0294B96
:101C10001B68DB6898472C680823EAE7A78A9F427D
:101C200028BF1F4638468847228A638AD21BFB1882
:101C300080462282638230461F4B98471F4B0146E5
:101C40003A4640469847238A002BDBD01C4B0020A5
:101C50004FF4405201461A801A4B9847238AA18AB2
:101C6000134A30209942108019D9A3B92C68062153
:101C700045F650432172C4F20003196843F202038F
:101C800089B2C2F20003CB185B0000211960302337
:101C90001380237AADE72C6805232372A9E72C680B
:101CA00003232372A5E700BF54130020851B0008FF
:101CB0005C1300202C1300207523000889210008E4
:101CC0005A13002095230008F0B545F65043C4F29E
:101CD00000039D4D1A682C6843F2040392B2C2F2CD
:101CE0000003D318227A5B00092A83B01E6844D00F
:101CF000B6B2760006F1804606F5C0463378934FBB
:101D0000237073786370B088B847608030892C681E
:101D1000B847A080B3892C680122E3802272002B8F
:101D200030D06178062900F0878000295ED1638871
:101D3000002B00F09480864E336808461B69984754
:101D400003282B6862D01A8A4FF6FF718A425DD051
:101D500002280CD05AB193F900100029C0F2B580C6
:101D600003221A727B4B4FF440521A8001E0082282
:101D70001A72794B984703B0F0BDE38801222272B2
:101D8000002BCED12378667813F07F0341D1092E42
:101D900000F00881052E00F0BF80032E00F0F080D7
:101DA000012E3BD1E378012B38D1A388002B35D10C
:101DB000637A03F02003DBB2002B2FD0674B9847E8
:101DC00060BB2C6845F65043C4F200031A6843F226
:101DD000020392B2C2F20003D3185B0000221A6021
:101DE0005F4A0623302111802372C2E7082948D1B7
:101DF00023785B069FD15B4B0020A36160829847EC
:101E00002B684FF6FF711A8A8A42A3D109221A72EF
:101E1000AFE7012B71D0022B00F08D804C4B304688
:101E20001B685B699847032800F0C5802C68002870
:101E3000C8D0082323729CE723785B067FF47BAF2E
:101E4000A378434E012B00F0B080022B5ED0032B11
:101E50007FF472AF33685B6A002BCDD16CE76368A7
:101E600023F47F43B3F5003F7FF465AF237813F08D
:101E70007F0340F0A480A388002B7FF45CAF3A4B33
:101E8000BAE70A297FF457AF237803F07F03012BC9
:101E90007FF451AFA37A002B3FF44DAF6388002B42
:101EA0007FF449AF62682A4E22F47F42B2F5803F48
:101EB0007FF442AF326819466079936998470028E9
:101EC00040F0BE802C68294B96E7D9880191019893
:101ED000824217D88A421E4E08D2316891F82C10DF
:101EE0008A4280F09580224A00211170326892F86F
:101EF0002C209A821F4B98473BE70B2E8ED11E4B0E
:101F000098475DE7019A124E1A82EFE733681B6A21
:101F1000002B7FF471AF0FE794F90330002B88DBBF
:101F2000A378002B85D1A388002B82D1A37A002B24
:101F30003FF448AF7DE7012E3FF440AF032E7FF41E
:101F40006DAF0E4B98473BE7541300201D2400084B
:101F50002C1300205A130020851B0008D9190008F3
:101F60005C13002095170008E5170008BD1700084E
:101F7000DC0200207D18000889190008D11A000829
:101F8000E378012B7FF44AAFA388002B7FF446AFA0
:101F9000627A2D4B42F020021B686272DB6998471F
:101FA0002C680FE7294B98470AE73368DB69002B59
:101FB0007FF422AFC0E62C6809232372D9E6012BF7
:101FC00031D0022B7FF4B7AE637903F00F0290009B
:101FD00000F180401E0600F5B84056BF0068066854
:101FE00000F440561A4848BF06F030060078824296
:101FF000BFF4A1AE13F0700F14BF00230123002E15
:102000000CBF002603F00106002E7FF438AF92E6E5
:1020100092FBF1F001FB1022002A7FF467AF0D4A1A
:102020000121117062E70C4E607933689B69984713
:1020300030B92C68A37A002B7FF421AF61787BE65E
:102040002B68597878E600BF501300204D1900081E
:10205000E0000020DC0200202C13002070B40F4BA5
:102060001E7896B14FF4B844C4F2000400232568EA
:1020700043F4004140F60F7241F080012A400133E1
:102080000A439E4244F8042BF1D845F64C4340F0F5
:102090008000C4F20003186070BC7047E0000020AC
:1020A00010B5144C23681A7A022A18BF042A10D0DB
:1020B000062A04D008221A720F4B984710BD5A788E
:1020C000052A0BD00D4B1B689B6898472368082294
:1020D000F1E70B4B984723681A7AECE71A78520617
:1020E000F0D1D878074B9847074B1B681B6A984775
:1020F000E8E700BF54130020851B00082C130020C4
:102100007D1800085D20000850130020704700BFB4
:1021100010B541F2343241F25434C2F20002C2F23C
:10212000000422600224147241F22C3040F25C035D
:1021300041F2503140F28C02C2F20003C2F20000C0
:10214000C2F20001C2F2000203600A601B689847F5
:1021500010BD00BF01F1005101F5405101324900AD
:10216000531010B40DD00A1D023010F8014C10F8B5
:10217000021C023041EA042122F8041C0432013B13
:10218000F3D110BC704700BF01F1005101F540517F
:1021900001324900531008D002300A1F52F8041FC0
:1021A00020F8021C0230013BF8D170474FF6F8735B
:1021B00045F650420340C4F200021360704700BF6E
:1021C000800000F1804202F5B842106848F68F1393
:1021D0000340194311607047800000F1804202F50E
:1021E000B84210B401F01000146848F6BF7380B212
:1021F000234068B99BB201F0200189B209B183F094
:10220000200343F4004343F08003136010BC704785
:1022100083F01003EFE700BF800000F1804202F579
:10222000B84210B401F4805014684BF68F7380B23A
:10223000234068B99BB201F4005189B209B183F41B
:10224000005343F4004343F08003136010BC704715
:1022500083F48053EFE700BF800000F1804202F575
:10226000B842116848F6BF730B4083F0300343F463
:10227000004343F080031360704700BF800000F10B
:10228000804202F5B84211684BF68F730B4083F41D
:10229000405343F4004343F080031360704700BF92
:1022A000800000F1804202F5B842116840F60F63E9
:1022B0000B4043F4004343F080031360704700BFBA
:1022C000800000F1804303F5B8431A68510408D533
:1022D000196840F60F720A4042F4404242F0800210
:1022E0001A607047800000F1804303F5B8431A6814
:1022F000500608D5196840F60F720A4042F40042B1
:1023000042F0C0021A60704745F65043C4F2000321
:102310001A684FF6FE7392B202EBC00000F1005251
:1023200002F5405252000B401360704745F650438F
:10233000C4F200031A6843F2040392B202EBC00035
:10234000C2F20003C3184FF6FE725B000A401A6027
:10235000704700BF45F65043C4F200031B689BB2B0
:1023600003EBC00000F1005303F540535B001888F5
:10237000704700BF45F65043C4F200031A6843F2A9
:10238000040392B202EBC000C2F20003C3185B0068
:102390001888704745F65043C4F200031A6843F2A8
:1023A000020392B202EBC000C2F20003C3185B004A
:1023B0001960704745F65043C4F200031A6843F2AF
:1023C000060392B202EBC000C2F20003C3185B0026
:1023D0003E2909D94A09C90601D1013A92B29202AD
:1023E00042F400421A6070474A08C80748BF0132E9
:1023F00092021A60704700BF45F65043C4F20003D2
:102400001A6843F2060392B202EBC000C2F2000364
:10241000C3185B0018688005800D7047C3B2000ABE
:1024200040EA0320704700BF10B441F2583345F62C
:10243000444445F640424FF43F410020C4F20004BA
:10244000C2F20003C4F2000220601980116010BCC7
:10245000704700BF70B542F2F93300F07F0528469F
:10246000C0F600030E46984742F275330446C0F6A4
:1024700000032846984742F2891301462246304617
:10248000C0F600039847204670BD00BF2DE9F04F0D
:10249000DFF8ACA183B045F6444B0023DFF8A491EC
:1024A000624DADF80630C4F2000BD046DBF80030C8
:1024B0004FF4B8449AB21B04AAF8002040F1AB8054
:1024C000B8F80020C4F2000402F00F02900000F1FE
:1024D0008040574E4BF6BF71544F134600F5B8403D
:1024E00089F80020002A33D123689BB22B802B88E7
:1024F00003F0300333802B8803F440532B80236890
:10250000194081F4005181F0200141F4004141F073
:1025100080012160B8F8003003F010039BB2002B5B
:1025200049D023689BB2ADF80630BDF8063003F4FD
:1025300000639BB2002B71D1BDF806301BB2002B9B
:10254000B4DA226840F68F7313402360394B38E0C9
:10255000026892B2ADF80620BDF8062012B2002A39
:102560001BDBBDF8063003F080039BB2002B9DD02F
:1025700099F8001048F60F738A0002F1804202F5C4
:10258000B842106801390340136040F21C02C2F2E5
:10259000000252F82130984788E7016840F68F72B0
:1025A0000A40026040F23802013BC2F2000252F8D7
:1025B00023309847D5E7226848F60F73134023600D
:1025C0001D4B984721683A884BF6BF7302F480523E
:1025D00092B20B400AB183F480533A8802F400525D
:1025E00092B20AB183F40053328802F0100292B220
:1025F0000AB183F01003328802F0200292B20AB1CD
:1026000083F0200343F400434FF4B84243F08003C7
:10261000C4F20002136003B0BDE8F08F226840F6F8
:102620008F7313402360054BCBE700BF5A13002084
:102630005C130020CD1B0008A1200008C91C000865
:10264000FC0A0020301300204FF4005340F2231105
:1026500048F6AB12C4F20203C4F26751CCF6EF5253
:1026600059605A60704700BF4FF40053C4F2020330
:102670001A6942F080021A61704700BF4FF400539C
:10268000C4F20203D86070474FF40053C4F202034F
:10269000DA68D1070BD4DA68520701D502207047F7
:1026A000DB6813F0100F0CBF0420032070470120DB
:1026B000704700BFF0B5154D83B00446A847B0F190
:1026C000010EDEF1000353EB0E03002C08BF0023C4
:1026D000BBB10027FF2601970196019B2BB1019BFF
:1026E000013B0193019B002BF9D1A847013C0CBF92
:1026F00000230123012814BF002303F00103002B52
:10270000E9D1002C08BF052003B0F0BD89260008E0
:10271000F8B50546114C0F200E46A047042800D0FE
:10272000F8BD4FF40057C4F202073A69B3B242F061
:1027300001023A610F202B80A047042809D001280C
:1027400005D03A6941F6FE7313403B61F8BD0120A4
:10275000F8BD360C6E800F20A047F0E7B5260008C4
:1027600070B506460F4C40F6FF70A047042800D015
:1027700070BD4FF40055C4F202052B6940F6FF709E
:1027800043F002032B616E612B6943F040032B6120
:10279000A04701281FBF2A6941F6FD7313402B6132
:1027A00070BD00BFB52600082603530054004D003D
:1027B0006900630072006F0065006C0065006300D3
:1027C000740072006F006E00690063007300000007
:1027D000120100020200004083044057000201027F
:1027E00003010000040309043203530054004D00A8
:1027F000330032002000560069007200740075003A
:1028000061006C00200043004F004D00200050008C
:102810006F007200740020002000000009024300D5
:10282000020100C032090400000102020100052477
:102830000010010524010001042402020524060001
:1028400001070582030800FF09040100020A0000D5
:102850000007050302400000070581024000000058
:102860001A03530054004D003300320000000000F2
:10287000000000000000000000000000150D00082E
:102880000D2100080D2100080D2100080D21000870
:102890000D2100080D2100080D2100080D21000860
:1028A000890D00080D2100080D2100080D210008E8
:1028B0000D2100081C2800084300000041120008F8
:1028C00031110008FD0F0008111000081510000854
:1028D000751000089910000819110008011100086E
:1028E000D910000800000000400000000D21000881
:1028F000D50F00080D2100080D2100080D2100084A
:102900000D2100080D2100080D210008ED0F000821
:10291000D027000812000000E4270008040000008F
:10292000A827000826000000E82700083200000061
:10293000000000201A00000000C201000000080092
:04294000040100008E
:04000005080004C922
:00000001FF
