:020000040800F2
:100000000050002025050008F0B5204B83B098472C
:100010001F4880471F490A78012A05D000201E4B3F
:100020009847002003B0F0BD1C4C1D4D1D4EA0474D
:100030001D4FA8471D4CB0471D4D1E4E0020A04728
:100040000DF1070128B10020B0479DF807007F2877
:1000500012D00020A8470028F0DD00200DF1070194
:10006000B8479DF807107F29E8D1134B002279206B
:1000700012491A70884705E00F4B052279200F4975
:100080001A7088470E488047CBE700BFF10500088B
:10009000C5000008E10200208D030008B108000837
:1000A000810A00086D0F0008DD0E00080D10000821
:1000B000350E0008CD100008E002002045010008C0
:1000C000B103000808B540F2D503C0F60003984715
:1000D00008BD00BF4FF44063C4F20103196840F645
:1000E0000C4221F00F0018601968C4F20102196077
:1000F000186840F6084140F0080018601368C4F220
:10010000010123F0010010600A6812F0010110D013
:10011000094A01201070094B002103F180005A1C8C
:100120005970023383425170F9D1054800210170A2
:100130007047014B1970EEE7E1020020E302002056
:10014000E002002008B540F2E022C2F2000240F6D0
:1001500041130146C0F600031078984708BD00BF60
:1001600008B540F2E022C2F2000240F60113107816
:10017000C0F60003984708BD38B5134DA84731288D
:10018000044607D00CD9732804D011D97F2802D097
:10019000FF2811D1A84779200C4A9047204638BD46
:1001A0000228F7D00DD91128F4D0212804D1F1E785
:1001B000A0F14303012BEDD91F20044988472046B5
:1001C00038BD0028E6D0F7E76101000845010008C6
:1001D00000B5042383B012488DF8073080473520DE
:1001E00010498847104B002103F180005A1C5970B8
:1001F000023383425170F9D14FF44050C0F60000F1
:100200000A4988478DF807009DF80730084A012001
:10021000042B107002D007488047002003B000BDB7
:10022000092D00083D2D0008E3020020092E0008DA
:10023000E4020020292D000870B542F6FF73C0F6D5
:100240000003042282B098428DF807200AD900F1F9
:100250007844A4F540500D4D840A2E5D26B101204E
:1002600002B070BD0020FBE704F500310C318802BC
:10027000074B98478DF807009DF8070001220428D6
:100280002A55ECD0034988473046E9E7E4020020CC
:10029000092E0008292D00082DE9F0439708BB0717
:1002A00083B0384B18BF013780460C46984700286A
:1002B00064D0AFB362782578A078E178130243EA7E
:1002C000004245EA0161C4EB0808DFF8BC9004EB8A
:1002D00008001143C8478DF807009DF807007D1EF0
:1002E000042805F0010549D101260434BE4217D087
:1002F00065B363782278A078E1781B0243EA004373
:1003000042EA016108EB04001943C8478DF8070071
:100310009DF80720042A31D102260434BE4215D1AB
:1003200001202CE063792279E978A4791B0243EA61
:10033000044442EA01612143C8478DF807009DF853
:1003400007002C1D042819D1BE42E9D06378227819
:10035000A078E1781B0243EA004342EA01611943B5
:1003600008EB0400C84702468DF807209DF80710E7
:10037000251D0236042908EB0500D3D0002003B068
:10038000BDE8F08339020008B92D000843F20402E9
:1003900040F2FD6310B5C0F60002C0F60003146819
:1003A000984740F64920C0F600008047A04710BD9E
:1003B0002DE9F04FDFF86881CFB0574F574D03ACB0
:1003C000C047002864D0022800F08C80432800F049
:1003D0009280312862D1A84706462070A84746403F
:1003E0006070A8474640A070A8474640E070A84704
:1003F00023786278190694F802B041EA0242E37861
:1004000042EA0B2141EA03028642019200F0818018
:100410001F20B847A8478146A847012609F1010ACD
:1004200089EA0003B24520703C4909EA06005FFAF8
:1004300083FB18D940B10091A84702266070B245ED
:100440008BEA000B00990ED9A847A0558BEA000B48
:10045000A84706F101090236B24504F809002F4900
:100460008BEA000BF0D88847019A40F299230646A0
:10047000214602F54050C0F6000352469847B34566
:1004800001D1012842D01F20B847C04700289AD187
:10049000B8472220B8477920B84791E721288FD163
:1004A000A8472070A8476070A847A070A847E070D0
:1004B000A847207862780106A67841EA0240E378EE
:1004C00040EA062679201E43B84740F6F1526420E0
:1004D000C0F60002904740F28D313046C0F6000170
:1004E00088476DE70120B8470420B8471020B84777
:1004F0007920B84764E7A8472070A847607040F2A9
:10050000D110C0F6000080470128BCD17920B8473F
:1005100056E77920B8477DE74501000861010008EA
:1005200079010008684620F007018D4679B52A490F
:100530002A4B99421BD2DA1C0C1D151B284825F0AA
:100540000302161D05680423B3420D60C2F3800246
:100550000DD022B142680823B342226007D01D5853
:100560001A1D5D5084580833B3428C50F7D11E4891
:100570001E494FF000028842B8BF40F8042BFFF636
:10058000FAAF4FF48052C4F2020211684FF4A06334
:1005900041F48030106004E01068810305D4013B11
:1005A00003D01168013B8803F6D54FF40051C4F223
:1005B00002010A6842F0100008600B6823F0030291
:1005C0000A60086840F002030B6006498847BDE8EE
:1005D00079408546704700BF00000020E4000020FD
:1005E000082F000809000008000200206013002006
:1005F000F8B540F68113C0F60003984740F6152081
:10060000C0F60000804740F604064FF4006E43F247
:10061000B3474FF4406540F6044441F2040144F20C
:1006200044404FF03332C4F2010EC3F24430C4F2FE
:100630000101C4F20106C3F23337C4F20105C4F26A
:10064000010440F6B103CEF80020C0F60003376085
:100650002A6022600860984740F68121C0F60001B8
:10066000884740F66D70C0F60000804740F655722E
:10067000C0F600029047F8BD00B544F20443C4F24E
:100680000003186883B002A901F8010D054A012092
:10069000904705494B6913B19DF80700984703B08F
:1006A00000BD00BF650E00086403002000B543F6DE
:1006B0000403C4F20103186883B002A901F8010D14
:1006C000054A0020904705498B6813B19DF8070043
:1006D000984703B000BD00BF650E0008640300200A
:1006E0004FF46052C4F2010213681B06FCD543F6B6
:1006F0000401C4F201010860704700BF41F2180311
:10070000C4F2020319684EF2041221F4804018600A
:10071000CEF20002116843F60C0321F020001060B5
:10072000C4F20103186841F21C0120F02000186097
:100730001868C4F2020120F400501860086844F2FE
:100740000C4320F4003008601168C4F2000321F06B
:10075000400010601A6822F020011960186820F427
:1007600000521A60704700BF2DE9F04141F21806AF
:10077000C4F20206356840F26433C2F2000343F665
:100780000C0443F6100C43F6140E43F608075860A9
:100790009960C4F20104002245F48048C4F2010CBF
:1007A000C4F2010E0C2040F27121C4F201074EF296
:1007B0000415C6F80080CEF200052060CCF80020B9
:1007C000CEF8002039602B6843F0200028602168B3
:1007D00040F6292341F0200040F2AD612060C0F6D0
:1007E00000012520C0F600039847226842F400511A
:1007F0002160BDE8F08100BFF8B541F21C04C4F2ED
:100800000204256840F26432C2F2000245F4003668
:100810004FF4006310615161C4F20103266018684F
:1008200044F20C4420F4706119601F68C4F20004A3
:1008300047F440751D601A6844F2104642F40060A7
:100840001860196844F2144521F470471F601A6853
:1008500044F208401A601968002241F480471F6082
:100860000C232360C4F200004FF49C73C4F2000612
:10087000C4F200054EF204113260CEF200012A608B
:100880000360086840F040030B60216840F62923AC
:1008900041F0200040F279612060C0F6000126207E
:1008A000C0F600039847226842F400512160F8BD69
:1008B00040F6056310B5C0F60003984740F2643374
:1008C0000024C2F2000340F2697221465C609C6021
:1008D0001C615C61DC611C629C62DC625C639C6329
:1008E0001C645C644FF4E130C0F60002904740F2B3
:1008F000F9734FF4E1302146C0F60003984710BD6C
:1009000030B5002383B0052804468DF807300DD09C
:10091000084D2046A8470028FBD020460DF10701CE
:10092000054A90479DF8070003B030BD0348804753
:10093000FAE700BF350E0008DD0E0008B50F00080D
:10094000012808B50AD005D3052802D108460A4B6C
:10095000984708BD08460949884708BD4FF48842B2
:10096000C4F2000210680006FCD544F20443C4F24D
:100970000003196008BD00BFE50F0008E10600088C
:1009800041F20403C4F202031A684FF4805122F4C6
:100990007C1020F0F0021A601868C4F2020140F4E2
:1009A000E8121A600B68084643F080720A6001681A
:1009B0008B01FCD541F20403C4F2020318681A4605
:1009C00020F003011960186840F0020119601868EE
:1009D00020F480011960186820F4E061196018683B
:1009E00040F480611960186820F46051196018683B
:1009F0001860136803F00C010829FAD141F21800BD
:100A0000C4F20200026842F4804343F01D01016019
:100A1000704700BF40F200434EF60852C2F2000396
:100A2000CEF200021360704740F200431030C2F271
:100A3000000343F82010704740F200438008C2F2E0
:100A4000000343F8201070474EF21003CEF200036B
:100A50001A6822F002001860196821F001021A6079
:100A6000704700BF08B540F6E15140F639233C20FD
:100A7000C0F600010022C0F60003984708BD00BF81
:100A800038B5334D2B78012B61D0324800240470E7
:100A9000448084808460047444828482846180F809
:100AA000204044848484846280F830404486848674
:100AB000846380F84040A0F84240A0F84440846439
:100AC00080F85040A0F85240A0F85440846580F867
:100AD0006040A0F86240A0F86440846680F87040EE
:100AE000A0F87240A0F87440846780F880401A49EA
:100AF000A0F88240A0F88440C0F8884080F8904078
:100B0000A0F89240A0F89440C0F8984088474EF270
:100B1000140141F63F104EF21802CEF20001C0F26D
:100B20000100CEF200024EF210030860CEF2000384
:100B30001460196841F0040018601A6842F002015C
:100B40001960186840F001021A6001232B7038BD4B
:100B50000002002004020020650A00089D4A9E4B06
:100B6000116810B5481C10601C88A2B21AB119880F
:100B7000481E84B21C80994C2378012B30D0207CF5
:100B8000964A01283ED094F82000944A01284CD07F
:100B900094F83000914A01285BD094F840008F4AC5
:100BA00001286AD094F850008C4A01287DD094F82E
:100BB00060008A4A012800F0918094F87000874A0A
:100BC000012800F0A48094F88000844A012800F0F5
:100BD000B78094F89000814A012800F0CB8010BDC6
:100BE0006288511E88B260800028C8D16378012BCA
:100BF00000F0D980A288A16862808847207C774A6B
:100C00000128C0D1538A591E88B250820028BAD117
:100C1000537C012B00F0C580A28AA16962828847BB
:100C200094F820006D4A0128B2D1538C591E88B225
:100C300050840028ACD192F82130012B00F0C780FD
:100C4000A28CA16A6284884794F83000634A012824
:100C5000A3D1538E591E88B2508600289DD192F898
:100C60003130012B00F0B080A28EA16B62868847E4
:100C700094F84000594A012894D1B2F84230591EE4
:100C800088B2A2F8420000288CD192F84130012BA2
:100C900000F09780B4F84420A16CA4F84220884763
:100CA00094F850004D4A012881D1B2F85230591EB3
:100CB00088B2A2F8520000287FF479AF92F8513040
:100CC000012B7BD0B4F85420A16DA4F852208847A2
:100CD00094F86000414A01287FF46FAFB2F86230A7
:100CE000591E88B2A2F8620000287FF466AF92F81D
:100CF0006130012B5FD0B4F86420A16EA4F86220AB
:100D0000884794F87000354A01287FF45CAFB2F848
:100D10007230591E88B2A2F8720000287FF453AFD7
:100D200092F87130012B43D0B4F87420A16FA4F86D
:100D30007220884794F88000284A01287FF449AF40
:100D4000B2F88230591E88B2A2F8820000287FF4DF
:100D500040AF92F88130012B27D0B4F88420D4F82A
:100D60008810A4F88220884794F890001B4A012834
:100D70007FF435AFB2F89230591E88B2A2F89200D3
:100D800000287FF42CAF92F89130D4F89810012B02
:100D900008BF82F89000B4F89420A4F89220884705
:100DA00010BD107438E7207024E782F88000D4E783
:100DB00082F87000B8E782F860009CE782F8500083
:100DC00080E782F8400065E782F830004CE782F85F
:100DD000200035E7A4020020A80200200402002021
:100DE00008B540F65D33C0F60003984708BD00BF64
:100DF000034A1080138898B20028FBD1704700BFC7
:100E0000A802002040F2886140F298620023C2F2FA
:100E10000001C2F200020B8013804B8053808B8054
:100E20009380CB80D3800B8113814B8153818B8145
:100E300093817047094B0A4933F9102031F910307A
:100E40001F20D21A2032C8F200001040002800DB18
:100E50007047013860F01F01481C70479806002059
:100E6000880600201A4A1B4BF0B432F8105033F9B0
:100E700010602CB21F23A61B2036C8F2000333409B
:100E8000002B18DB1F2B1CD00135ADB21F230E78B1
:100E9000C8F2000329B20B4000EB40170E493C1981
:100EA000002B0E5522F810500DDB094921F81030A7
:100EB0000120F0BC7047013B63F01F0301331F2B7F
:100EC000E2D10020F5E75A1E62F01F030133ECE780
:100ED0009806002088060020900500201A4A1B4B27
:100EE00070B432F8105033F910602CB21F23361B47
:100EF0002036C8F200033340002B17DBE3B100EBD0
:100F0000401601353419124EADB21F23345DC8F2BC
:100F100000032EB23340002B0C7022F810500DDB72
:100F2000094921F81030012070BC7047013B63F083
:100F30001F030133002BE2D11846F5E7591E61F07B
:100F40001F02531CECE700BF880600209806002013
:100F5000900500200423C4F201031A6822F0E06027
:100F60001860196841F080621A60704708B540F651
:100F7000F573C0F60003984740F2A860C2F2000083
:100F80000022026072B641F6A521C0F60001884732
:100F900041F6C523C0F60003984741F60930C0F674
:100FA0000000804742F26172C0F60002904762B6CC
:100FB00008BD00BF10B5002382B0084C8DF8073083
:100FC0000020A0470028FBD000200DF10701044AB3
:100FD00090479DF8070002B010BD00BF0D1000083B
:100FE000CD10000808B541F62153C0F6000398471C
:100FF00008BD00BF40F6B02240F6B4230021C2F283
:101000000002C2F200031180198070470B4B0C499B
:1010100033F9102031F9103040F2FF30D21A02F5C6
:101020008061C8F200000840002800DB70470138EA
:101030006FEA80536FEA9352501C7047B40A002045
:10104000B00A00201E4B1F4A30B433F8104032F96A
:10105000105022B2551B40F2FF3305F58065C8F2EF
:1010600000032B40002B17DB40F2FF35AB421DD0B5
:1010700001342B4624B20D78C8F2000300EB802126
:101080008A1823401049002B8D5411DB0C4A22F89A
:101090001030012030BC7047013B6FEA83556FEA86
:1010A0009553013340F2FF35AB42E1D10020F1E727
:1010B000013B6FEA83526FEA92514B1CE6E700BF97
:1010C000B40A0020B00A0020AC0600201C4B30B44B
:1010D0001C4C33F8102034F9105014B22D1B40F280
:1010E000FF3305F58065C8F200032B40002B15DBAC
:1010F000E3B100EB80252C19013240F2FF33124D91
:1011000012B2C8F200032C5D1340002B0C700FDBF1
:101110000B4921F81030012030BC7047013B6FEAC9
:1011200083536FEA93530133002BE2D11846F3E760
:10113000591E6FEA81536FEA9352531CE8E700BFD0
:10114000B00A0020B40A0020AC06002038B5154BC8
:101150001A78012A00D038BD134C206800B340280B
:10116000124A14D8116885B20818106000228BB298
:1011700022600F48C021C0182A460E4B9847012014
:1011800029460D4A904701200C49884738BD15680B
:10119000403805F14001ABB2206011604025E8E71E
:1011A000187038BDCC020020D8020020D4020020E4
:1011B000240B0020A5270008552A0008192900083B
:1011C00010B540F6BC24C2F2000442F615332146A5
:1011D000C0F600030320984741F6D532C1B2C0F6ED
:1011E00000022046904742F63D110320C0F6000160
:1011F000884710BD08B5084B1868052800D008BD01
:10120000064B1A68511C052A1960F8D10020186095
:10121000034B9847F3E700BFC0020020AC02002058
:101220007D1C000845F64442C4F20002136830B544
:101230008F4C98B28F4D208021882B8889B019401F
:1012400001F4007081B2002968D1228802F40041C3
:101250000B425FD1228802F480610B424ED120887C
:1012600000F40052134206D045F64440C4F2000098
:101270004DF6FF710160228802F48050034231D1A3
:10128000208800F400610B420ED07B4B1A78002AB4
:1012900025D102207949884745F64442C4F200022C
:1012A0004FF2FF712B881160208800F48072134286
:1012B00013D045F64443C4F2000345F648404FF6C8
:1012C000FF61C4F2000019600268100432D46C4B54
:1012D000002018600720694B984709B030BD694865
:1012E0008047D9E745F64443C4F200034EF6FF7148
:1012F00019600020614A90472B88C1E7624A45F691
:101300004443C4F200034FF6FF3018605168884729
:101310002B88A4E75D4880472B889BE75C4B4FF602
:10132000FF5010601A78511CC8B21870594B98477A
:101330002B888AE7524801684A1C02600168032929
:10134000C8D945F64042C4F2000211680907C1D469
:1013500015685149ADB24FF4B8440D60C4F20004B1
:10136000256845F60444ADB20095C4F20004256832
:1013700045F60844ADB20195C4F20004256845F66F
:101380000C44ADB20295C4F20004256845F6104441
:10139000ADB20395C4F20004256845F61444ADB21D
:1013A0000495C4F20004256845F61844ADB20595CD
:1013B000C4F20004256845F61C44ADB20695C4F29B
:1013C00000042468A4B207940C6844F001040C6083
:1013D0000C68A4B214600C6824F001040C60096865
:1013E00089B21160196845F644424905C4F2000209
:1013F000F8D54FF6FF33136000994FF4B8438AB223
:10140000C4F200031A60019945F604438AB2C4F29B
:1014100000031A60029945F608438AB2C4F2000339
:101420001A60039945F60C438AB2C4F200031A60AD
:10143000049945F610438AB2C4F200031A60059974
:1014400045F614438AB2C4F200031A60069945F6C1
:1014500018438AB2C4F200031A60079945F61C4388
:101460008AB2C4F2000300211A60016032E700BFB3
:10147000FC0A002058130020C40200205119000863
:10148000B8020020811700085C0000204D2B0008E6
:10149000B4020020F5110008B0020020034B987A36
:1014A00010B1034905220A60704700BF34130020C1
:1014B000C002002040F2C023C2F2000304221A60DE
:1014C000704700BF034B1A78202A01D10020187002
:1014D000704700BFBC020020704700BF212810B534
:1014E000034603D0202811D0022010BD0F4A1368F4
:1014F000187800F07F012129F6D10D4912680024E7
:101500002046916154828847204610BD074A1168E1
:10151000087800F07F01212903D0064A02201370C9
:1015200010BD044C04492370E8E700BF54130020A9
:1015300071150008BC02002089150008074B1968C6
:101540000A7802F07F03212B01D002207047022885
:1015500001D02228F9D10020704700BF5413002089
:1015600009B1022070470128FBD80846704700BF28
:1015700008B103487047034B082219680A82704774
:10158000D80000205413002008B103487047034BD3
:10159000082219680A827047D800002054130020DE
:1015A00008B5064B1968CA78042A05D8044B03EB22
:1015B000C201044A904708BD002008BD5413002012
:1015C000B80000206D21000808B540F2540142F235
:1015D0006D13C2F20001C0F60003984708BD00BFBA
:1015E00008B540F2B00142F26D13C2F20001C0F63C
:1015F0000003984708BD00BF41F2543242F6C4636D
:10160000C0F60003C2F200021068D9792DE9F04754
:10161000002442F66D0541728472C472C0F6000562
:10162000204642F68106A847C0F6000620464FF441
:10163000007142F69905B047C0F60005102120461A
:1016400042F6ED1AA847C0F6000A4021204642F6AD
:10165000C918D047C0F600088021204642F661171D
:10166000C047C0F600072046B84740F25C02C2F20D
:10167000000242F6752992F82C10C0F600092046A7
:10168000C84742F63D13C0F60003204698470120A4
:101690002146B0470120C021C04742F6D9070120AA
:1016A0002021A847C0F6000701202146B8470220A4
:1016B0004FF4C061B04702204FF48071C047022050
:1016C0002146B84702202021A84703202146B047E1
:1016D00003204FF48871D04703204021C8470320DE
:1016E0004FF44051B84721460320A84742F24961D0
:1016F0002046C0F60001884740F2C020C2F2000038
:1017000001220260BDE8F08741F6595310B5C0F6DA
:101710000003984741F25430C2F2000002680024EE
:1017200041F245719472C0F60001884742F6E92300
:10173000C0F60003984740F2C020C2F200000460E7
:1017400010BD00BF38B541F6B9330120C0F6000323
:10175000984745F6444545F6404341F25832C4F2B5
:10176000000300214FF4E0540120C4F20005C2F24E
:101770000002186019600846296014801C6038BD9A
:10178000F0B5002183B045F640434FF4B8420191D3
:10179000C4F20003C4F20002186814686049A5B2DC
:1017A00045F604460D60C4F20006376845F6084267
:1017B000BCB24C60C4F20002156845F60C46AFB2EC
:1017C0008F60C4F20006346845F61042A5B2CD60C1
:1017D000C4F20002166845F61447B4B20C61C4F2B4
:1017E00000073D6845F61842AEB24E61C4F20002F1
:1017F000176845F61C45BCB28C61C4F200052E6822
:1018000082B24FF6FE7442F480620440B7B244F4F0
:10181000806542F0010645F64440CF61C4F2000005
:101820001A601E601D60026845F644435205C4F20A
:101830000003F8D54FF6FF30186008684FF4B8423F
:1018400080B2C4F200021060486845F6044280B2DB
:10185000C4F200021060886845F6084280B2C4F203
:1018600000021060C86845F60C4280B2C4F2000263
:101870001060086945F6104280B2C4F200021060A0
:10188000486945F6144280B2C4F2000210608869CB
:1018900045F6184280B2C4F200021060C86945F6ED
:1018A000404245F61C41C4F2000280B2C4F200017D
:1018B00044F481640860146010684FF4E04184B21D
:1018C00044F004001060C4F2000108684EF61054A1
:1018D00001900868CEF2000420F0030040F00100FF
:1018E0000860206840F0040020601868C0040FD52C
:1018F0004EF6FF70186010684FF6F77303401360E0
:10190000019A0A60216821F00400206003B0F0BD54
:10191000044B9847226822F004012160F6E700BFDB
:10192000040B00209D1D000810B545F64044C4F28C
:10193000000423684FF6FB721A4041F6E92022604A
:10194000C0F6000080474FF43F41216010BD00BF4A
:1019500010B52B4C072818BF20702378052B19D8F9
:10196000DFE803F01B222A2F3A036078411ECAB237
:101970006270637883B945F64042C4F20002106891
:101980004FF6EF71014011601D4A1E49062010708C
:101990000B6010BD0621217010BD1A4A1168002984
:1019A00028D00520207010BD174A9047154B042100
:1019B00001202170186010BD022303206370207085
:1019C00010BD6278511ECBB2637060780028E3D1FD
:1019D0000B4904220A7010BD45F64043C4F20003CF
:1019E000186882B242F0100119600A2005232370A2
:1019F000607010BD044B98470622227010BD00BFD6
:101A0000000B0020C80200202919000840F21443EE
:101A1000C4F201034FF480221A60704770B48AB395
:101A2000561EF2B2531C5E00030FB21E0024092B97
:101A3000C2F3400228D937330B7002230001B342AE
:101A40004C701FD052B1020F092A13D93732CA5431
:101A5000CA1802330001B342547013D0050F092D88
:101A600015D83035CD540001020FCD180233092AA4
:101A70006C70EBD83032CA54CA1802330001B3423A
:101A80005470EBD170BC704730330B70D5E73735ED
:101A9000CD54E8E708B541F22523C0F60003984786
:101AA00008BD00BF41F20403C4F201031A6822F426
:101AB00070001860196841F400121A601868186004
:101AC000704700BF41F20402C4F20202116841F201
:101AD0001C0321F480001060C4F202031A6842F46F
:101AE00000011960704700BF054B987A18B9054985
:101AF00001220A607047034B05201860704700BF41
:101B000034130020C002002040F2144238B5C4F261
:101B100001024FF480214FF480631160C4F201038D
:101B2000186840F2044420F480251D60C4F20104CA
:101B300022684FF4816122F480202060C4F2010108
:101B40000C6840F20C4544F480220A60C4F201059E
:101B5000296840F6392421F4802028601D6841F668
:101B6000952145F480259020C0F600010022C0F6A2
:101B700000041D60A0474FF46143CEF200031A68D1
:101B8000E82042F48011196041F60D21C0F60001F1
:101B90000022A0474EF20410CEF2000002684FF47B
:101BA000826342F480610160C4F20103186840F46A
:101BB00080221A6038BD00BF41F20C03C4F2010359
:101BC0001A6818B942F400501860704722F40051A6
:101BD000196070472DE9F043894683B00646002915
:101BE00045D00378DFF8908001F1FF32214F0DF1ED
:101BF0000701002002F001058DF80730B847D8F83A
:101C0000001011B19DF80700884701244C452ED2E1
:101C10007DB1335D00200DF107018DF80730B84725
:101C2000D8F8002012B19DF80700904701344C45C8
:101C30001DD2651C345D0DF1070100208DF80740B1
:101C4000B847D8F8001011B19DF807008847735DB8
:101C50000DF1070100208DF80730B847D8F80020B3
:101C600012B19DF8070090476C1C4C45E1D303B0BE
:101C7000BDE8F08345100008A806002070B5204C90
:101C80002378012B23D01F4D2B68B3F5006F2CD088
:101C90001D4A11688B422FD01AD898B2CE1A1B4A0F
:101CA000402E16601BD9403E403316602B60402604
:101CB000174B012518183246C021164B257098473E
:101CC00028463146144A904728461449884770BD33
:101CD000C3F500660D4A402E166098B2E3D8F1189D
:101CE00029600025B6B21560E2E7074900200968BF
:101CF000286009B10346D1E70020207070BD00BF05
:101D0000CC020020D4020020D0020020D802002003
:101D1000240B0020A5270008552A000819290008CF
:101D20000A4B10B419684A1CB2F5006F0CD2084B6C
:101D3000084C19684A1CB2F5006F60541A6001D152
:101D40000020186010BC7047FEE700BFD8020020DA
:101D5000D0020020240B002038B54FF2E8724FF279
:101D6000F073C1F6FF72C1F6FF7310681A684FF284
:101D7000EC71C1F6FF7180180C6807D00449082285
:101D8000044DA847204604490422A84738BD00BF97
:101D9000020000201D1A00081200002030BF70470A
:101DA00008B538B1064B186801688847054A1068BD
:101DB0000A3008BD034B012219680A8208BD00BF22
:101DC000501300205413002008B538B1064B186892
:101DD00081688847054A10680C3008BD034B012212
:101DE00019680A8208BD00BF501300205413002058
:101DF00008B500283BD0234B234800211A680180F6
:101E0000137813F07F0312D1537A03F02002D1B27A
:101E100059BB027803F04003D9B211B342F0010379
:101E200003701A4801680A699047174808BD012BDA
:101E300016D0022B13D1517901F00F02930003F158
:101E4000804202F5B84311F0800F196814D101F4F3
:101E50004052B2F5805FE4D101210170E1E708460C
:101E600008BD22F001020270DBE70222D2E7054B37
:101E7000022219680A8208BD01F03003102BD0D16C
:101E8000EAE700BF54130020241300205013002061
:101E90002DE9F041274E3468238A277A23B9042F8D
:101EA0002AD0A58A042703E0A58AAB42FAD90227E3
:101EB0009D4228BF1D46A169284688471E4A804684
:101EC000002090472A4601461C4B40469847294629
:101ED00000201B4A9047208A618A431B23826D1889
:101EE0001848194B658230224FF440513468028003
:101EF00019802772BDE8F081144A1078012806D0B5
:101F0000104910270F8007272772BDE8F08145F69A
:101F10005040C4F20000006843F2020180B2C2F2F5
:101F20000001411848000749036030200880137001
:101F3000DFE700BF54130020152A0008A52700087A
:101F4000552A00085C1300205A130020DC020020F0
:101F500010B50B4B0B4A18685178C378994201D2DF
:101F6000022010BD8278002AFAD18488002CF7D193
:101F70008372054801684B689847204610BD00BF32
:101F800054130020E00000205013002038B5104A00
:101F9000104C116823688A695879D978904723686A
:101FA000997A09B9022038BD0028FBD11879002898
:101FB000F8D19D78002DF5D1074A1368D968884774
:101FC000236828465979DA78D9721A7338BD00BF68
:101FD0002C130020541300205013002038B5354B2B
:101FE0001B68187810F07F0003D0022806D002206A
:101FF00038BD597A21F020025A7238BD5A88002A19
:10200000F6D119790029F3D15A7922F080008100A4
:1020100001F18044150604F5B84456BF24682568CC
:1020200004F44055244C48BF05F030052478A04204
:10203000DDD2002DDBD09B7A002BD8D002F08002BD
:10204000D3B273B101F1804101F5B842136803F0D6
:102050003001102921D0194801684A6990470020B1
:1020600038BD01F1804101F5B844226802F44053C3
:10207000B3F5805FEFD1C8B9114A124B92F82C101A
:10208000984720684BF68F71014081F4405242F42A
:10209000004343F080002060DDE7C4B220460A4AD6
:1020A000904720463021094B9847D4E70849884794
:1020B000E7E700BF54130020E00000205013002089
:1020C0005C000020752A0008A5290008992800084E
:1020D0008129000838B5224B19684B7923F080021A
:1020E000900000F180441D0604F5B84456BF2468F2
:1020F000256804F440551B4C48BF05F03005247892
:10210000A24201D3022038BD4A88002AFAD1002D0C
:10211000F8D0897A0029F5D003F0800300F18040DF
:1021200000F5B842DBB211687BB148F6BF700840D9
:1021300080F0100141F4004343F0800010600A4A2F
:1021400011688B699847002038BD4BF68F730B40A0
:1021500083F4805040F4004141F080031360EEE7C7
:1021600054130020E000002050130020054B1B6892
:102170005A8A10B108688018704789888A1A1A82AA
:10218000704700BF5413002008B50C4B002093F893
:102190002C100B4A90470B480168087A082806D192
:1021A000094B4FF480521A80084A10211180B0F177
:1021B000090CDCF1000050EB0C0008BD5C000020B5
:1021C000752A0008541300205A1300205C130020C5
:1021D000F8B5334D2C68237A022B07D0042B05D099
:1021E000032B08D0052B06D0072B0DD00822227216
:1021F0002C4B9847F8BDA169208A11B358B9A48A1D
:10220000002C45D0284A2EE028480168CA6890472B
:102210002C680822EBE7A68A864228BF064630468D
:102220008847638A0746208AF118821B22826182CE
:102230001F4B00209847324601461E4B38469847B0
:10224000208A0028DBD01C4B00204FF4405201466E
:102250001A801A4A9047238AA18A134A3020994249
:10226000108015D9C3B92C68062145F65043217258
:10227000C4F20003186843F2020381B2C2F2000301
:10228000C81843000021196030201080227AAEE780
:102290002C6803222272AAE72C6805222272A6E784
:1022A00054130020892100085C1300202C13002007
:1022B000352A00081D2800085A130020552A000856
:1022C000F0B545F650439E4DC4F200031A682C68E1
:1022D00043F2040091B2C2F20000227A0E18730099
:1022E000092A83B01E6844D0B7B2780000F180415B
:1022F00001F5C0463278934F227073786370B088CE
:10230000B847608030892C68B847A080B0892C68B5
:102310000121E0802172002830D06178062900F088
:10232000878000295ED16388002B00F09480864E60
:10233000336808461969884703282B6862D01A8ACF
:102340004FF6FF718A425DD002280CD05AB193F942
:1023500000100029C0F2B58003221A727B4B4FF4A3
:102360004050188001E008201872794B984703B05C
:10237000F0BDE088012121720028CED12278667854
:1023800012F07F0341D1092E00F00881052E00F0E4
:10239000BF80032E00F0F080012E3BD1E1780129AF
:1023A00038D1A288002A35D1637A03F02004E0B244
:1023B00000282FD06749884760BB2C6845F65040FD
:1023C000C4F20000016843F202038AB2C2F20003C1
:1023D000D01841000023604A0B6030200621108095
:1023E0002172C2E7082948D1207843069FD15B4A71
:1023F0000020A261608290472B684FF6FF701A8A16
:102400008242A3D109211972AFE7012B71D0022BAF
:1024100000F08D804C4930460A685369984703287C
:1024200000F0C5802C680028C8D0082121729CE7E4
:10243000267873067FF47BAFA278434E012A00F022
:10244000B080022A5ED0032A7FF472AF3068426AFD
:10245000002ACDD16CE7606820F47F42B2F5003FDE
:102460007FF465AF237813F07F0040F0A480A38849
:10247000002B7FF45CAF3A4ABAE70A297FF457AFE2
:10248000267806F07F02012A7FF451AFA37A002B51
:102490003FF44DAF6388002B7FF449AF60682A4E4C
:1024A00020F47F42B2F5803F7FF442AF3268194694
:1024B000607993699847002840F0B8802C68294AD1
:1024C00096E7D98801910198824217D88A421E491D
:1024D00008D2086890F82C00824280F08F80224A4F
:1024E00000201070096891F82C209A821F4B9847A1
:1024F0003BE70B2E8ED11E4880475DE701981249BD
:102500001882EFE733681A6A002A7FF471AF0FE789
:1025100094F90300002888DBA178002985D1A288DE
:10252000002A82D1A37A002B3FF448AF7DE7012E29
:102530003FF440AF032E7FF46DAF0E4CA0473BE756
:1025400054130020DD2A00082C1300205A13002009
:1025500089210008DD1F00085C130020A11D000870
:10256000F11D0008C91D0008DC020020911E0008B2
:102570008D1F0008D5200008E278012A7FF44AAFB9
:10258000A388002B7FF446AF607A2A4A40F02001EE
:1025900013686172DC69A0472C680FE7264CA047DE
:1025A0000AE73268D269002A7FF422AFC0E62C68BD
:1025B00009212172D9E601282BD002287FF4B7AE79
:1025C000637903F00F02960006F1804000F5B840F1
:1025D0001E0656BF0068066800F44056174848BFFC
:1025E00006F0300600788242BFF4A1AE13F0700FFF
:1025F0007FF49DAE002E7FF43EAF98E692FBF0F4A0
:1026000000FB1422002A7FF46DAF0D4A01201070E8
:1026100068E70C4E607933689A69904730B92C6846
:10262000A07A00287FF427AF617881E6296849788D
:102630007EE600BF50130020511F0008E00000207C
:10264000DC0200202C130020F0B4284B1E78002E52
:1026500043D04FF4B842C4F20002146840F60F7140
:10266000214041F4004343F0800111600122741EB7
:1026700045F60443964204F00104C4F200032CD949
:102680007CB1196840F60F720A4042F4004141F0F3
:1026900081021A60022245F608439642C4F2000302
:1026A0001BD91F6842F4004540F60F7445F08005C1
:1026B0003C4045EA0407194641F8047B5F68013253
:1026C00042F4004540F60F7445F080053C402C4331
:1026D00001325C600B1D9642E3D845F64C4340F056
:1026E0008000C4F200031860F0BC7047E0000020D6
:1026F00010B5144C23681A7A022A12D0042A10D07A
:10270000062A04D0082018720F4B984710BD59783C
:1027100005290BD00D4B186881688847236808206D
:10272000F1E70B4A90472368187AECE71A785206CB
:10273000F0D1D878074B9847074801680A6A904754
:10274000E8E700BF54130020892100082C13002063
:10275000911E00084926000850130020704700BF52
:1027600010B541F2343241F25434C2F20002C2F2E6
:10277000000422600224147241F22C3040F25C0307
:1027800041F2503140F28C02C2F20003C2F200006A
:10279000C2F20001C2F2000203600A6018688047BA
:1027A00010BD00BF01F1005101F54051531C4A001A
:1027B000591030B42FD04578023010F8024C01394E
:1027C00044EA052322F8043B0B46043201F00101E0
:1027D000023003B359B110F8014C10F8021C02305A
:1027E00041EA042122F8041C0432013B13D010F802
:1027F000021C10F8014C41EA042422F8044C4478ED
:10280000023010F8021C023041EA042122F8041BB5
:102810000432023BEBD130BC704700BF01F10051E4
:1028200001F5405301325900521030B41CD00B68EE
:10283000013A20F8023B1346023002F001029BB13C
:1028400032B151F8042F20F8022C0230013B0BD09A
:102850000C1D4D688968024620F8025C22F8021BB4
:10286000901C211D023BF3D130BC70474FF6F8732A
:1028700045F650420340C4F200021360704700BFA7
:10288000800000F1804202F5B842106848F68F13CC
:102890000340194311607047800000F1804202F547
:1028A000B84210B401F01000146848F6BF7380B24B
:1028B000234068B99BB201F0200188B208B183F0CF
:1028C000200343F4004141F08000106010BC7047C9
:1028D00083F01003EFE700BF800000F1804202F5B3
:1028E000B84210B401F4805014684BF68F7380B274
:1028F000234068B99BB201F4005188B208B183F457
:10290000005343F4004141F08000106010BC704758
:1029100083F48053EFE700BF800000F1804202F5AE
:10292000B840016848F6BF730B4083F0300242F4B0
:10293000004141F080030360704700BF800000F158
:10294000804202F5B84001684BF68F730B4083F468
:10295000405242F4004141F080030360704700BFE1
:10296000800000F1804202F5B840016840F60F6334
:102970000B4043F4004242F080010160704700BF09
:10298000800000F1804303F5B8400268510408D587
:10299000016840F60F730B4043F4404242F080015F
:1029A00001607047800000F1804303F5B8431A6866
:1029B000500608D5196840F60F70084040F40042F0
:1029C00042F0C0011960704745F65043C4F200035D
:1029D0001A684FF6FE7392B202EBC00000F100528B
:1029E00002F5405042000B401360704745F65043DB
:1029F000C4F200031A6843F2040392B202EBC0006F
:102A0000C2F20003C3184FF6FE7258000A4002607B
:102A1000704700BF45F65043C4F2000319688AB2FC
:102A200002EBC00000F1005303F540514A0010884A
:102A3000704700BF45F65043C4F200031A6843F2E2
:102A4000040193B203EBC000C2F20001421851002E
:102A50000888704745F65043C4F200031A6843F2F1
:102A6000020392B202EBC000C2F20003C3185A0084
:102A70001160704745F65043C4F200031A6843F2F0
:102A8000060392B202EBC000C2F20003C3185B005F
:102A90003E2909D94A09C90601D1501E82B29102C4
:102AA00041F40040186070474A08C80748BF013227
:102AB00091021960704700BF45F65043C4F200030D
:102AC0001A6843F2060193B203EBC000C2F20001A0
:102AD000421851000B689805800D7047C3B2000A78
:102AE00040EA0320704700BF10B441F2583345F666
:102AF000444445F640424FF43F410020C4F20004F4
:102B0000C2F20003C4F2000220601980116010BC00
:102B1000704700BF70B542F6B92300F07F05C0F6DC
:102B2000000328460E46984742F635210446C0F673
:102B300000012846884742F61D03014622463046DA
:102B4000C0F600039847204670BD00BF2DE9F04F46
:102B5000DFF8ACA183B045F6444B0023DFF8A49125
:102B6000624DADF80630C4F2000BD046DBF8000031
:102B70004FF4B84482B20304AAF8002040F1AB80BD
:102B8000B8F80030C4F2000403F00F02900000F126
:102B90008040574E4BF6BF71544F134600F5B84076
:102BA00089F80020002A33D1226890B228802B882F
:102BB00003F030023280288800F440532B802268D2
:102BC000114081F4005181F0200040F4004343F0B3
:102BD00080022260B8F8001001F0100083B2002BD0
:102BE00049D0226891B2ADF80610BDF8060000F495
:102BF00000639AB2002A71D1BDF8061008B200280D
:102C0000B4DA226840F68F7313402360394938E004
:102C10000468A1B2ADF80610BDF8062014B2002C6D
:102C20001BDBBDF8061001F0800293B2002B9DD093
:102C300099F8004048F60F73A00000F1804101F5BB
:102C4000B8421068013C0340136040F21C03C2F21A
:102C5000000353F82410884788E7016840F68F7214
:102C60000A40026040F23800013BC2F2000050F816
:102C70002340A047D5E7216848F60F730B401E4953
:102C80002360884720683A884BF6BF7302F480516E
:102C90008AB203400AB183F48053388800F40051AB
:102CA0008AB20AB183F40053308800F010018AB26E
:102CB0000AB183F01003308800F020018AB20AB113
:102CC00083F0200343F400404FF4B84140F0800209
:102CD000C4F200010A6003B0BDE8F08F206840F63E
:102CE0008F72024022600549CBE700BF5A130020D3
:102CF0005C130020D1210008F1260008C122000841
:102D0000FC0A0020301300204FF4005340F223113E
:102D100048F6AB12C4F20203C4F26751CCF6EF528C
:102D200059605A60704700BF4FF40053C4F2020369
:102D30001A6942F080001861704700BF4FF40053D9
:102D4000C4F20203D86070474FF40053C4F2020388
:102D5000DA68D1070BD4D868420701D50220704742
:102D6000D96811F0100F0CBF042003207047012018
:102D7000704700BFF0B50F4D83B00446A847012847
:102D800015D18CB10027FF2601970196019B2BB12D
:102D90000198411E0191019A002AF9D1A847013CEE
:102DA000012804D1002CEFD1052003B0F0BD002C88
:102DB000FBD1F9E7492D0008F8B50546114C0F2065
:102DC0000E46A047042800D0F8BD4FF40057C4F2C7
:102DD00002073A69B3B242F0010038610F202B803C
:102DE000A047042809D0012805D0396941F6FE72B0
:102DF0000A403A61F8BD0120F8BD360C6E800F2004
:102E0000A047F0E7752D000870B506460F4C40F658
:102E1000FF70A047042800D070BD4FF40055C4F2E5
:102E200002052B6940F6FF7043F0020129616E61D3
:102E30002A6942F040032B61A0470128ECD02969A0
:102E400041F6FD720A402A6170BD00BF752D000871
:102E50002603530054004D006900630072006F00A8
:102E600065006C0065006300740072006F006E0006
:102E700069006300730000001201000202000040BC
:102E80008304405700020102030100000403090407
:102E90003203530054004D0033003200200056002E
:102EA000690072007400750061006C00200043002E
:102EB0004F004D00200050006F0072007400200091
:102EC0002000000009024300020100C03209040092
:102ED0000001020201000524001001052401000187
:102EE000042402020524060001070582030800FFEE
:102EF00009040100020A0000000705030240000067
:082F00000705810240000000FA
:102F08001A03530054004D00330032000000000043
:102F18000000000000000000000000004D11000843
:102F28005D2700085D2700085D2700085D27000869
:102F38005D2700085D2700085D2700085D27000859
:102F4800C11100085D2700085D2700085D270008FB
:102F58005D270008C42E0008430000000917000878
:102F6800F9150008C5140008D9140008DD14000874
:102F78003D15000861150008E1150008C91500088D
:102F8800A115000800000000400000005D270008AF
:102F98009D1400085D2700085D2700085D270008CC
:102FA8005D2700085D2700085D270008B5140008A4
:102FB800782E0008120000008C2E00080400000083
:102FC800502E000826000000902E00083200000055
:102FD800000000201A00000000C2010000000800E4
:042FE80004010000E0
:0400000508000525C5
:00000001FF
