:020000040800F2
:10000000005000202D0B000808B541F2BD03002070
:10001000C0F60003984708BD00B50A4B83B0984767
:100020000024094B9847094D4FF47A710222084B7E
:1000300020460094A847074B20469847064B984710
:10004000FEE700BFDD0B00085D0000083D1300085F
:10005000090000085D13000889010008704700BF0F
:100060000138012810B500D910BD054B00201C88AF
:100070000449A21E013C1C8092B2034B984710BD5C
:1000800000020020FC360008FD1B00080138012892
:1000900010B500D910BD044B00201A880349541C28
:1000A0001C80034B984710BD00020020FC3600085E
:1000B000FD1B000838B543F2007040F6490443F2D6
:1000C0000475C0F60004C0F60005C0F60000A047A5
:1000D0002846A04743F24070C0F60000A0472846DB
:1000E000A04743F27C70C0F60000A04743F2B8700E
:1000F000C0F60000A04743F2F470C0F60000A0472D
:1001000043F63000C0F60000A04743F66C00C0F68E
:100110000000A04743F6A800C0F60000A04743F641
:10012000E400C0F60000A04743F62010C0F600002F
:10013000A04743F65C10C0F60000A04743F69810B5
:10014000C0F60000A0472846A04743F67C20C0F632
:100150000000A04738BD00BF38B543F6D41040F6C4
:100160004904C0F60004C0F60000A04740F6B5738D
:10017000C0F600039847054643F67C20C0F6000011
:10018000A047284638BD00BF2DE9F04F40F2B50327
:1001900085B0C0F600039847944C02209449A047CC
:1001A00000209449A047DFF8A0A2934D934CDFF8BC
:1001B0009C82D0470346002800F0B080A3F13100B4
:1001C0003C28F6D801A353F820F000BF71030008C3
:1001D000350300082303000801030008C1020008DA
:1001E000B3010008B3010008B3010008B30100081F
:1001F000B3010008B3010008B3010008B30100080F
:10020000B3010008B3010008B3010008B3010008FE
:10021000B3010008B3010008B3010008B3010008EE
:10022000B3010008B3010008B3010008B3010008DE
:10023000B3010008B3010008B30100089F030008E0
:10024000B3010008B3010008B3010008B3010008BE
:10025000B3010008B3010008B3010008B3010008AE
:10026000B3010008B3010008B3010008B30100089E
:10027000B3010008B3010008B3010008B30100088E
:10028000B3010008B3010008B3010008B30100087E
:10029000B3010008B3010008B3010008B30100086E
:1002A000B3010008B3010008B3010008B30100085E
:1002B000B3010008B3010008B30100089F03000860
:1002C0004F48A84705E000200DF10F01A047012885
:1002D0000FD001200DF10F01A0470128F3D19DF8A7
:1002E0000F104848A84700200DF10F01A047012832
:1002F000EFD19DF80F204449782A73D0C047E8E732
:10030000424E01213388424A5F1837800020414E17
:10031000B047D047034600287FF450AF05B0BDE892
:10032000F08F3A4B00201A883B49561C1E803B4BED
:1003300098473EE73A48A8473A4F3B4EDFF81091BE
:1003400006E0420731D4830735D4B04701280CD8E2
:100350004FF47A70B847C107F3D50020C84701466B
:100360003248A847B0470128F2D93148A84720E7CA
:10037000304F0020304EB8474FF4FA70B04701209C
:10038000B8474FF4FA70B0470220B8474FF4FA70FC
:10039000B0470320B8474FF4FA70B04709E740F27E
:1003A000B503C0F60003984703E70220C84701469B
:1003B0002248A847C9E741F6D1230120C0F600032F
:1003C0009847034601200193C847019B8346D8B252
:1003D00041F65D23C0F60003984759460246184887
:1003E000A847B2E71748A847E3E600BF451A000848
:1003F0008D0000086100000849080008790F000816
:10040000503A0008703A0008803A000800020020C4
:10041000443A0008591D0008FC360008FD1B00087E
:10042000D8390008851A0008791A0008003A00082F
:10043000383A0008BD10000871130008103A00088F
:10044000203A0008943A000859010008490F0008B2
:10045000BD1A000838B5094B05461B7853B1084A48
:10046000084914680868631C055509681360002270
:10047000CA5438BD044B984738BD00BF080200205D
:1004800004020020F4020020990F000838B5044649
:10049000007828B1034DA84714F8010F0028FAD1BD
:1004A00038BD00BF5504000830B4D0B10378D3B1D3
:1004B00000230B6002789AB1A2F13004E2B2092A5B
:1004C00002D912E0092D10D803EB830304EB430398
:1004D0000B6010F8012FA2F13004E5B2002AF1D12F
:1004E000012030BC70471846FBE70020F9E700BF49
:1004F0002DE9F047037884B00026824689460096AD
:10050000002B7FD0642B7DD0564F3446B046A3F1EC
:100510003102082A72D81AF804200AEB0405A2F165
:100520003003092B01A84FF0000308D8C25415F876
:10053000012F0134A2F1300101330929F6D904AAAF
:10054000D318694603F80C8C013CB84701341AF8FB
:1005500004300BB1642BDAD10098002852D009285E
:1005600078DD09200090062207210A2303EB83038C
:1005700001395B004C1CF9D199FBF3F10A240228E4
:1005800003FB119905D004EB8404013A6400531C69
:10059000F9D146F26765344F4FF00108C6F266653F
:1005A0000DE0B8F1000F1CD0302006B92020B8476C
:1005B00085FB0423E417C4EBA304002C1BDD99FB8B
:1005C000F4F3D8B23030B4F1010EDEF1000252EB98
:1005D0000E02002B18BF42F0010204FB1399002AFF
:1005E000DFD0B84785FB0423E417C4EBA304002C39
:1005F0004FF00008E3DC04B0BDE8F087302B08BF03
:100600000126A3E74FF44A4446F267670A25C3F67A
:100610009A340121144EC6F2666708E0B047002103
:1006200087FB0423E417013DC4EBA304E3D0601E61
:10063000424299FBF4F34241002B18BF42F0010201
:10064000D8B2303004FB1399002AE7D10029E5D055
:100650000121E5E7431E811EC21E002B85D10A231E
:100660008AE700BFA9040008550400082DE9F043FB
:10067000037887B00026814601910296002B00F096
:100680008580782B00F082806D4F3446B046A3F110
:100690003102082A76D819F8042009EB0401A2F1E6
:1006A0003003092B03A84FF0000308D8C25411F8F7
:1006B000012F0134A2F130050133092DF6D906AA24
:1006C000D31802A903F80C8C013CB847013419F87F
:1006D00004300BB1782BDAD1019A029B12BA019245
:1006E000002B56D0DA0758BF4FF0010821D5DB4365
:1006F000083303EBD37306AA02EB630313F8143C2D
:1007000013F00F030BD0092B98BF03F1300001D970
:1007100003F137004B4FB8474FF0000806E0002EBA
:100720007CD03020474FB8474FF00108029B013B77
:100730000293C3F1080303EBD3735C10032C1EDC9C
:1007400001AB404F1C190DF1080914F8013B03F0EF
:100750000F051B094DD0092B88BF03F1370069D95C
:10076000B8474FF00008002D4BD0092D88BF05F188
:10077000370059D9B8474FF000084C45E5D107B0CC
:10078000BDE8F083302B08BF01269FE7019B1BBA11
:1007900001930DF1030616F8013F0122002403F036
:1007A0000F051B09274F1ED0092B88BF03F1370007
:1007B0003DD9B84700222B1C18BF0123032C08BFCA
:1007C00043F0010393B1092D88BF05F1370034D9F7
:1007D000B84700220134042CD1D016F8013F03F0B1
:1007E0000F051B09E0D112B30122E4E72AB301226D
:1007F000F0E7B8F1000F1DD056B13020B847002DFA
:10080000B3D1B8F1000F0FD02EB13020B847B4E704
:100810002020B847A7E72020B847AEE72020094F9F
:10082000B8474FF0010881E705F13000A2E703F176
:100830003000BEE703F1300092E705F13000C7E772
:10084000A9040008550400080FB42DE9F04784B04E
:100850000DF1300A344B00225AF8044B334D344F1B
:10086000DFF8D480334E1A700DF10409207850B3AC
:1008700025282DD18DF80400621C0121944612F820
:10088000013BA3F16304782B18BF012C104622D939
:10089000732B20D0252B1ED001F8093001310A29F5
:1008A000ECD19CF80130441C642B1FD025D8252B9B
:1008B00036D0632BDAD19AF80000A84720780AF1E5
:1008C000040A0028D4D104B0BDE8F04704B0704752
:1008D000A8470134CAE704AA60465118441C002204
:1008E000642B01F80C3C01F80B2CDFD1DAF8001076
:1008F00048460AF1040AB847B8E7732B08D0782BAA
:10090000B4D1DAF8001048460AF1040AB047ADE75E
:10091000DAF800000AF1040A0028A7D0C047A5E7CA
:100920001846A847A2E700BF0802002055040008A7
:10093000F10400086D0600088D0400080EB42DE9CE
:10094000F047384B01221A70374B85B018600DF113
:10095000340A364B00225AF8044B354D354FDFF838
:10096000DC80354E1A600DF10409207850B325283B
:100970002DD18DF80400621C0121944612F8013B30
:10098000A3F16304782B18BF012C104622D9732BD6
:1009900020D0252B1ED001F8093001310A29ECD1D5
:1009A0009CF80130441C642B1FD025D8252B36D051
:1009B000632BDAD19AF80000A84720780AF1040ADC
:1009C0000028D4D105B0BDE8F04703B07047A84770
:1009D0000134CAE704AA60465118441C0022642B63
:1009E00001F80C3C01F80B2CDFD1DAF80010484676
:1009F0000AF1040AB847B8E7732B08D0782BB4D1B2
:100A0000DAF8001048460AF1040AB047ADE7DAF810
:100A100000000AF1040A0028A7D0C047A5E718463D
:100A2000A847A2E708020020F402002004020020E8
:100A300055040008F10400086D0600088D04000844
:100A40002DE9F047324B154601221A70314B84B024
:100A50001860314B0022314EDFF8C880DFF8C890B3
:100A60002F4F1A600C460DF1040A207838B3252860
:100A700028D1611C8DF804000124084611F8013BBF
:100A8000A3F16302782B18BF012A0A461DD9732BE4
:100A90001BD0252B19D004F80A3001340A2CECD1D4
:100AA0004378541C642B1BD01FD8252B2CD0632BD0
:100AB000DBD12878B047207804350028D7D104B09E
:100AC000BDE8F087B0470134CFE704AA141900222B
:100AD00004F80B2C024604F80C3C541C642BE3D1A4
:100AE000296850460435C047BFE7732B06D0782BE2
:100AF000BBD1296850460435B847B6E728680435A5
:100B00000028B2D0C847B0E71846B047ADE700BFED
:100B100008020020F402002004020020550400080E
:100B20006D060008F10400088D040008684620F0F6
:100B300007018D4619B52349234B99420BD2C8436F
:100B4000C01820F00300214C043000231A595A50D9
:100B500004338342FAD11F481F494FF000028842F4
:100B6000B8BF40F8042BFFF6FAAF4FF48054C4F23C
:100B700002042268002342F48032226040F2FF40E7
:100B800021680133834281F400318CBF00220122AD
:100B900012EA5142F4D14FF40053C4F202031A682E
:100BA00042F010021A601A6822F003021A601A68F2
:100BB00042F002021A60064B9847BDE8194085468C
:100BC000704700BF00000020F4000020743B0008C4
:100BD000190000080002002018130020F8B540F6A4
:100BE000C573C0F60003984741F2F513C0F6000341
:100BF000984740F604064FF4006E43F2B3474FF4B3
:100C0000406540F6044441F2040144F244404FF090
:100C10003332C4F2010EC4F20101C3F24430C4F213
:100C20000106C3F23337C4F20105C4F2010440F6F1
:100C30007D63CEF80020C0F6000337602A60226092
:100C40000860984741F24523C0F60003984741F2F7
:100C5000D553C0F60003984741F29133C0F6000324
:100C6000984741F29503C0F60003984741F6711387
:100C7000C0F60003984741F61D33C0F600039847BD
:100C800041F69D53C0F600039847F8BD002382B09B
:100C9000019300EB4000019B42009A4205D9019B61
:100CA00001330193019B9A42F9D802B0704700BF0B
:100CB00000B544F20443C4F200031B6883B002A9E8
:100CC00001F8013D0120054B9847054B5B6913B1C5
:100CD0009DF80700984703B000BD00BF4111000810
:100CE000F802002000B543F60403C4F201031B68B8
:100CF00083B002A901F8013D0020054B9847054B40
:100D00009B6813B19DF80700984703B000BD00BF72
:100D100041110008F80200204FF46052C4F20102B1
:100D200013681B06FCD543F60403C4F201031860E4
:100D3000704700BF2DE9F04141F21806C4F20206E7
:100D4000356840F2F823C2F2000343F60C04586001
:100D50009960C4F2010445F480480C2343F6100C5A
:100D600043F6140E43F60807C6F8008000222360FD
:100D7000C4F2010CC4F2010E40F27123C4F2010767
:100D80004EF20415CCF80020CEF20005CEF800207B
:100D90003B602B68252043F020032B60216841F243
:100DA000092341F02001216040F6E541C0F600032F
:100DB000C0F600019847236843F400532360BDE860
:100DC000F08100BFF8B541F21C04C4F202042568AA
:100DD00040F2F822C2F2000245F400354FF40063FD
:100DE00010615161C4F2010325601A6844F20C4499
:100DF00022F470621A601A68C4F2000442F440726D
:100E00001A601A6844F2104642F400621A601A68C6
:100E100044F2144522F470421A601A6844F2084001
:100E20001A601F68002247F480471F600C2323606C
:100E3000C4F200004FF49C73C4F20006C4F2000533
:100E40004EF204113260CEF200012A6003600B689A
:100E5000262043F040030B60216841F2092341F052
:100E60002001216040F6B141C0F60003C0F6000148
:100E70009847236843F400532360F8BD41F2F90317
:100E800010B5C0F60003984740F2F8230024C2F2E0
:100E9000000340F6355221465C609C601C615C6139
:100EA000DC611C629C62DC625C639C634FF4E13039
:100EB000C0F60002904740F6C5534FF4E13021469A
:100EC000C0F60003984710BD30B5002383B0084D2D
:100ED00004468DF807302046A8470028FBD020465E
:100EE0000DF10701034B98479DF8070003B030BD93
:100EF000151100089D11000808B518B90846094BDE
:100F0000984708BD012800D008BD4FF48842C4F2BC
:100F1000000213681806FCD544F20443C4F200032F
:100F2000196008BD190D000870B50C460978054612
:100F300031B1044E2846B04714F8011F0029F9D1F9
:100F400070BD00BFF90E00080EB410B540F63D1399
:100F5000B3B0044635996846C0F60003984740F69A
:100F6000297320466946C0F60003984733B0BDE8B0
:100F7000104003B0704700BF38B5054B05460C461E
:100F8000984720B128462146024B9847012038BD9A
:100F9000151100089D1100080A2838B5044603D031
:100FA000034DE0B2A84738BD0D20014DA847F8E732
:100FB000190D000808B540F6C9630020C0F600030B
:100FC000984708BD41F20403C4F202031A684FF4C3
:100FD000805122F47C1222F0F0021A601A68C4F2E6
:100FE000020142F4E8121A600B680A4643F080736B
:100FF0000B6013689B01FCD541F20403C4F20203A9
:1010000019681A4621F003011960196841F00201BC
:101010001960196821F480011960196821F4E061F0
:101020001960196841F480611960196821F46051F0
:10103000196019681960136803F00C03082BFAD1C2
:1010400041F21803C4F202031A6842F4804242F0EB
:101050001D021A60704700BF08B5032807D8DFE8F3
:1010600000F0110C070212200321094B984708BD1C
:1010700012200221064B984708BD12200121044B83
:10108000984708BD12200021014B984708BD00BFBA
:101090008917000841F2897310B50021C0F60003DA
:1010A000122041F259049847C0F600040120A047DD
:1010B0000220A0470320A04710BD00BF08B50328A9
:1010C00007D8DFE800F0110C070212200321094BBA
:1010D000984708BD12200221064B984708BD1220F0
:1010E0000121044B984708BD12200021014B98476D
:1010F00008BD00BFE11700080023044804491A4650
:101100001A525A5202330E2BFAD170472C04002087
:101110003C04002040F23C4240F22C43C2F2000268
:10112000C2F2000333F9103032F91020D21A203203
:10113000D317DB0ED21802F01F00C01A704700BF91
:1011400070B4134C134B34F8106033F9102035B2DF
:10115000AA1A2032D317DB0ED21802F01F02D31ABC
:101160001F2B12D0013636B2F317DB0E00EB401204
:10117000F6180978551906F01F06074AF31A24F8DD
:1011800010305155012070BC70470020FBE700BFB4
:101190003C0400202C0400203403002070B4124CC6
:1011A000124A34F81060034632F9100035B2401B81
:1011B0002030C217D20E801800F01F00801A10D005
:1011C000013636B2F21703EB4310D20E4519084828
:1011D000B618405D06F01F06B21A0870012024F808
:1011E000132070BC704700BF2C0400203C0400207A
:1011F0003403002040F200634EF60852C2F20003AE
:10120000CEF200021360704740F200631030C2F269
:10121000000343F82010704740F200638008C2F2D8
:10122000000343F82010704708B541F22D3141F218
:1012300019233C20C0F600010022C0F600039847A5
:1012400008BD00BF10B51B4C2378012B30D01A4BC2
:10125000002203F1A00103F8082C23F8062C23F840
:10126000042C43F8102B8B42F5D1144B98474EF2C7
:10127000140141F63F10CEF200014EF21802C0F206
:1012800001000860CEF200024EF210030021CEF2FF
:10129000000311601A6842F004021A601A6842F0F2
:1012A00002021A601A6842F001021A6001232370D8
:1012B00010BD00BF090200201402002029120008FE
:1012C000174A38B51168174B013111601A8892B26C
:1012D0001AB11A88013A92B21A80134C04F1A0058F
:1012E00002E01034AC421AD014F8083C012BF8D1BB
:1012F00034F8063C013B9BB224F8063C002BF0D1AD
:1013000014F8072C012A34F8042C08BF04F8083C10
:1013100024F8062C236810349847AC42E4D138BD39
:10132000AC020020B00200201402002008B541F2F7
:10133000C123C0F60003984708BD00BF10B440F2B7
:101340000C24C2F2000404EB00108360019B427085
:10135000C3604180818010BC704700BF092803D85A
:10136000024B000101221A54704700BF0C020020FA
:10137000034A108013889BB2002BFBD1704700BF3B
:10138000B002002040F2AC23C2F20003186870479C
:1013900008B542F20163C0F60003984742F22163A8
:1013A000C0F60003984742F26563C0F60003984711
:1013B00043F2C513C0F60003984708BD4FF44063DD
:1013C000C4F201031A6822F00F021A601A6842F090
:1013D00003021A601A681A601A6822F0F0021A6092
:1013E0001A6842F030021A601A681A601A6822F409
:1013F00070621A601A6842F440721A601A681A60C1
:101400001A6822F470421A601A6842F440521A6054
:101410001A681A601A6822F470221A601A6842F474
:1014200040321A601A681A601A6822F470021A6050
:101430001A6842F440121A601A681A601A6822F098
:1014400070621A601A6842F040721A601A681A6074
:101450001A6822F070421A601A6842F040521A600C
:101460001A681A60704700BF4FF44063C4F201036A
:101470001A6822F00F021A601A681A601A6842F09D
:1014800004021A601A6822F0F0021A601A681A60E0
:101490001A6842F040021A601A6822F470621A60F8
:1014A0001A681A601A6842F480621A601A6822F494
:1014B00070421A601A681A601A6842F480421A6010
:1014C0001A6822F470221A601A681A601A6842F4C4
:1014D00080221A601A6822F470021A601A681A6070
:1014E0001A6842F480021A601A6822F070621A6068
:1014F0001A681A601A6842F080621A601A6822F04C
:1015000070421A601A681A601A6842F080421A60C3
:10151000704700BF40F60C03C4F201031A68C1070C
:101520004CBF42F4005222F400521A6040F60C0301
:10153000C4F201031A6881074CBF42F4804222F4CE
:1015400080421A6040F60C03C4F201031A68410796
:101550004CBF42F4004222F400421A6041F20C03F4
:10156000C4F201031A6801074CBF42F4804222F41E
:1015700080421A6041F20C03C4F201031A68C106EA
:101580004CBF42F4004222F400421A60704700BF90
:1015900008B541F20C03C4F20103196840F60C428D
:1015A00041F4804119601968C4F2010241F400411C
:1015B000196040F290731168C2F200035B7E21F063
:1015C000FF01194341F2155311600C20C0F60003CE
:1015D000984708BD10B50023354C184618550233FE
:1015E0000021B3F5007F324AF8D1012004231175A0
:1015F000117682F8201082F8220082F8241082F8F6
:10160000261082F828105175517682F8211082F840
:10161000231082F8251082F8271082F82910C4F2CE
:1016200001031A6822F0E0621A601A6842F08062D0
:101630001A60204B984740F60403C4F2010319686E
:1016400041F2040221F4700119601968C4F2010228
:1016500041F44011196019681960196821F070612E
:101660001960196841F040711960196819601968AA
:1016700021F070411960196841F0405119601968F2
:101680001960136823F070631360136843F04073AC
:10169000136013681360136823F0704313601368BA
:1016A00043F04053136013681360034B984710BD19
:1016B00090070020BD1300089115000810B5124BCB
:1016C00013F8104003EB400314F0FD0F59701AD1CA
:1016D00072B641F20C03C4F201031C6840F60C42DE
:1016E00044F480441C601C68C4F2010244F40044C9
:1016F0001C60136823F0FF0319431160034B9847E4
:10170000034B984762B610BD9007002015150008DE
:101710009115000800B5174B83B013F81020013A5B
:10172000012A84BF03EB4000407801D903B000BD1B
:1017300072B641F20C03C4F201031A6842F480420B
:101740001A601A6842F400421A6001900A4B9847E6
:1017500001980A4B984740F60843C4F20103186801
:10176000074BC0B201909847064B984762B6019864
:10177000DCE700BF90070020691400081515000879
:1017800091150008BD13000838B541F21573C0F675
:1017900000030D4604469847012303FA05F541F27C
:1017A000BD6340EA0501C9B22046C0F60003984770
:1017B00038BD00BF38B541F21573C0F600030D46C1
:1017C00004469847012303FA05F541F2BD6320EA78
:1017D0000501C9B22046C0F60003984738BD00BFD6
:1017E00038B541F21573C0F600030D46044698471C
:1017F000012303FA05F541F2BD6380EA0501C9B290
:101800002046C0F60003984738BD00BF2DE9F041DF
:10181000036882B0042B04D8DFE803F01F274F5E73
:101820000700002002B0BDE8F0814D4B002419688C
:10183000046009B1013919604A4B196811F0040FAD
:1018400001BF41F004011960474B9A60C36A002B45
:10185000E7D0022098470020E4E70029E1D00023E8
:1018600001220260C3601846DCE7C368C469013323
:10187000A342C360D5D93A4C3A4E23684FF00208D0
:1018800003F1010C3768C0F80080C4F800C0374C81
:1018900000250561456144F82320FB075EBF324BFC
:1018A00047F001071A60C36A58BF37600BB30020C6
:1018B0000191984701990846B4E703690133036130
:1018C000002936D14469056A0134AC42446132D9F9
:1018D000042303600846A5E703690133036151B996
:1018E0004469056A0134AC42446106D904230360AB
:1018F0008161084696E700244461846AA342F8D9CE
:10190000184B85691C680135002614F0020F02BFD0
:1019100044F002041C60144B0661856108BF5A60E4
:10192000C36A002BE5D00120019198470199084630
:1019300078E700244461446AA342DAD9094C0023C1
:10194000256803614361012303268361AB070660B9
:10195000E6D4054B45F0020525605A60E0E700BF7C
:10196000B8020020B402002094090020600A002080
:1019700030B51349134B00220A6083B003F1C00550
:101980000521642432201A609A601A71DA601A61A3
:101990005A619A61D96119625C629862DA62303385
:1019A000AB42F0D10023042000930A210222064B0F
:1019B000064CA0470420064B984703B030BD00BF3B
:1019C00090090020A0090020E51900083D13000837
:1019D0005D13000808B541F215731120C0F600032D
:1019E000984708BD2DE9F843124B98470025124F40
:1019F000DFF84C9006462C464FF0010808FA04F335
:101A000004EB4400864601213340E2B204BF19468C
:101A1000E2B207EB001008BF07EB0E10C84700FA50
:101A200004F00134042C45EA0005E7D1034B1D60A6
:101A3000BDE8F883D5190008A0090020900900200E
:101A40000D18000803289FBF034B00EB400003EB79
:101A50000010C162704700BFA009002003289FBF8B
:101A6000044B00EB400003EB0010806988BF0020AE
:101A7000704700BFA009002040F2B823C2F2000363
:101A8000186870472DE9F0410A4E0546B0470A4FE5
:101A9000002480463C604CB905B9FEE7B047C8EB6E
:101AA0000000854202D33C68002CF5D02046BDE8FA
:101AB000F08100BF85130008B402002040F69413A3
:101AC000C2F2000353F82030012000FA03F07047FF
:101AD00040F69413C2F2000353F82000704700BF91
:101AE00038B50B4C0B4A23780A20D15C0A4DA84725
:101AF0002378012101FA03F1C9430C20C9B2A84798
:101B000023780133DBB2032B88BF0023237038BD59
:101B1000BC020020700A0020BD16000830B540F657
:101B20007023002441F2BD65C2F2000383B00A2095
:101B30002146C0F600051C705C709C70DC70A847E4
:101B40000C200F21A847052041F23D3541F6E12345
:101B5000014600940222C0F60003C0F60005A84723
:101B600041F25D330520C0F60003984703B030BD55
:101B7000032810B42DD820292DD02D2931D0A1F142
:101B80003003092B09D81B4B1B4C1A5C641814F842
:101B9000304C22F07F0222431A54A1F14103052B5D
:101BA00009D8144B144C1A5C641814F8374C22F002
:101BB0007F0222431A54A1F16103052B09D80D4B72
:101BC0000D4C1A5C611811F8571C22F07F020A4371
:101BD0001A5410BC7047074B1A5C22F07F021A544B
:101BE000DBE7044B1A5C22F07F0242F040021A54F9
:101BF000D3E700BF700A0020000000200EB42DE9DA
:101C0000F041B3B039AA52F8041B0546154B68469B
:101C10009847002402E00134642C1DD01DF80430E4
:101C2000002BF8D1621E622A16D8032D14D8A4EB1B
:101C3000450800AA0C4F90441E46AC4288BF08EBF2
:101C40000603E8B24FF0200188BF13F8011C0135EC
:101C5000B847013E042DF0D133B0BDE8F04103B0E8
:101C6000704700BF410A0008711B000838B541F2F7
:101C7000B574054601211420C0F60004A04741F2C6
:101C8000897314200021C0F60003984741F2BD6318
:101C900010202946C0F60003984714200021A047D1
:101CA00040F68D433220C0F600039847002038BD2F
:101CB00038B541F28974054601211420C0F60004AC
:101CC000A04714200021A04741F2BD6310202946FF
:101CD000C0F60003984741F2B57314200021C0F606
:101CE0000003984740F68D433220C0F60003984722
:101CF000002038BD60F07F0008B540EA811041F651
:101D00006D43C0F60003C0B29847002008BD00BF75
:101D100008B541F66D430120C0F60003984740F630
:101D20008D434FF4FA60C0F600039847002008BDC9
:101D300070B5037863B1074E054600241846B047D6
:101D400015F8013F204384B2002BF7D1204670BD27
:101D50001C46FBE7B11C00080CB430B5B3B036AA82
:101D600040F641230C46054652F8041B6846C0F66F
:101D70000003984741F6F54321462846C0F6000384
:101D8000984741F631536846C0F600039847002053
:101D900033B0BDE8304002B0704700BF38B541F203
:101DA000B57414200021C0F60004A04740F68D450C
:101DB00001211420A047C0F6000542F2107041F640
:101DC0006D44C0F60004A8473C20A0470C20A04763
:101DD0000120A0474FF4FA60A8470620A0478020C2
:101DE000A04741F61153C0F60003984741F65954F5
:101DF000002043F6A4220146C0F60002C0F600040B
:101E0000A04743F6B42200200121C0F60002A047FB
:101E100038BD00BF38B5154B1A78012A00D038BD3F
:101E2000134C206800B34028124A14D8136885B2B6
:101E30001818106000229BB222600F48C021C01801
:101E40002A460E4B9847012029460D4B9847012002
:101E50000C4B984738BD1368403803F140012060AF
:101E60009BB211604025E8E7187038BDE002002001
:101E7000EC020020E8020020DC0A00200932000801
:101E8000493400080D33000810B540F67424C2F23E
:101E9000000443F2095321460320C0F6000398478B
:101EA00042F23173C1B2C0F600032046984743F2B4
:101EB00031330320C0F60003984710BD08B5084B26
:101EC0001B68052B00D008BD064B1A68511C052A5B
:101ED0001960F8D100221A60034B9847F3E700BF5E
:101EE000D4020020C00200205D27000845F64442CD
:101EF000C4F20002136870B56B4C9BB26B4D23802B
:101F000021882B8888B0194001F4007189B200291A
:101F100068D1228802F4004213425FD1228802F481
:101F2000806213424ED1228802F4005213421FBF36
:101F300045F64442C4F200024DF6FF71116022885A
:101F400002F48052134231D1228802F4006213421B
:101F50000ED0574B1B78002B25D10220554B9847AC
:101F600045F64442C4F200024FF2FF712B88116023
:101F7000228802F48072134213D045F644424FF691
:101F8000FF61C4F2000245F648431160C4F2000349
:101F90001B68190432D4484B00221A600720454BB5
:101FA000984708B070BD454B9847D9E745F644437C
:101FB000C4F200034EF6FF721A6000203D4B9847B2
:101FC0002B88C1E745F64443C4F200034FF6FF32C5
:101FD0001A603B4B5B6898472B88A4E7394B9847BE
:101FE0002B889BE7384B4FF6FF5111601A7801326E
:101FF000D2B21A70354B98472B888AE72E490B6866
:1020000001330B600B68032BC8D945F64042C4F27C
:102010000002136813F00803C0D110682C4D80B281
:102020004FF4B8422860C4F2000252F8044B08AEE4
:1020300006EB83000133A4B2082B40F8204CF4D106
:102040002A6845F6404342F001022A602A68C4F239
:10205000000392B21A602A6845F6444022F0010259
:102060002A602A68C4F2000092B21A60026845F63B
:1020700044435205C4F20003F8D54FF4B8424FF67A
:10208000FF301860C4F20002002308AC04EB8300A8
:1020900050F8200C013380B2082B42F8040BF4D125
:1020A00000230B607AE700BFB40A00201013002061
:1020B000D8020020E9240008CC020020B92300083F
:1020C0006C00002041350008C8020020BD1E000839
:1020D000C4020020034B9B7A13B1034B05221A6004
:1020E000704700BFEC120020D402002040F2D4233D
:1020F000C2F2000304221A60704700BF034B1A7833
:10210000202A01D100221A70704700BFD00200209F
:10211000704700BF212810B5034603D0202811D0F6
:10212000022010BD0F4A13681B7803F07F03212B98
:10213000F6D10D4913680024204699615C828847D6
:10214000204610BD074A1168097801F07F01212956
:1021500003D0064A0220137010BD044804490370DE
:10216000E8E700BF0C130020A9210008D0020020DE
:10217000C1210008074B1B681B7803F07F03212B4C
:1021800001D002207047022801D02228F9D1002076
:10219000704700BF0C13002009B1022070470128CE
:1021A000FBD80846704700BF08B103487047034B8F
:1021B00008221B681A827047E80000200C130020D8
:1021C00008B103487047034B08221B681A82704706
:1021D000E80000200C13002008B5064B1B68DB78D4
:1021E000042B05D8044901EBC301044B984708BDF3
:1021F000002008BD0C130020C80000201D2C000882
:1022000008B540F2640142F61D43C2F20001C0F677
:102210000003984708BD00BF08B540F2C00142F670
:102220001D43C2F20001C0F60003984708BD00BF7D
:1022300041F20C3243F63033C0F60003C2F2000222
:102240001268D9792DE9F04743F2612300245172D5
:102250009472D472C0F60003204643F27526984764
:10226000C0F6000620464FF4007143F28D25B047BA
:10227000C0F600051021204643F2E13AA847C0F617
:10228000000A4021204643F2BD38D047C0F600087E
:1022900080212046C04743F255332046C0F6000354
:1022A000984740F26C03C2F2000343F2694993F885
:1022B0002C10C0F600092046C84743F23133C0F65F
:1022C00000032046984701202146B0470120C02145
:1022D000C04743F2CD2701202021A847C0F60007C0
:1022E00001202146B84702204FF4C061B0470220C8
:1022F0004FF48071C04702202146B84702202021B8
:10230000A84703202146B04703204FF48871D047E7
:1023100003204021C84703204FF44051B8472146CD
:102320000320A84743F21113C0F600032046984744
:1023300040F2D423C2F2000301221A60BDE8F08704
:1023400042F6010310B5C0F60003984741F20C3382
:10235000C2F200031A68002442F27D339472C0F680
:102360000003984743F2DD43C0F60003984740F26C
:10237000D423C2F200031C6010BD00BF38B542F286
:1023800015730120C0F60003984745F6444545F60D
:10239000404341F21032C4F2000300214FF4E054F4
:1023A0000120C4F20005C2F200021860196008465C
:1023B000296014801C6038BD70B5002382B045F6DA
:1023C0004041C4F2000101934FF4B8420D683A490C
:1023D000C4F2000252F8040B80B241F8230001332A
:1023E000082BF7D1AAB24FF6FE7442F4806245F68C
:1023F00040432C40C4F2000342F0010644F48065DF
:1024000045F644401A60C4F200001E601D60026878
:1024100045F644435205C4F20003F8D54FF4B842E0
:102420004FF6FF301860C4F20002002351F8230079
:10243000013380B2082B42F8040BF7D145F6404334
:10244000C4F2000344F481641C6019684FF4E04254
:1024500089B241F004011960C4F2000211684EF61D
:10246000105401911168CEF2000421F0030141F0F3
:1024700001011160206845F6444140F004002060ED
:10248000C4F200010868C0040FD54EF6FF70086062
:1024900018684FF6F77101401960019B13602368BB
:1024A00023F00403236002B070BD044B98472368F7
:1024B00023F004032360F6E7BC0A00204528000847
:1024C00010B545F64044C4F2000423684FF6FB7291
:1024D0001A4042F24563C0F60003226098474FF469
:1024E0003F43236010BD00BF10B52B4C072818BF19
:1024F00020702378052B19D8DFE803F01B222A2F40
:102500003A036378013BDBB26370637883B945F6C5
:102510004042C4F2000210684FF6EF7101401160B2
:102520001D4A062111701D4A136010BD0623237039
:1025300010BD1A4B1B68002B28D00523237010BD3B
:10254000174B984704232370144B01221A6010BDC7
:10255000022363700323237010BD6378013BDBB259
:1025600063706378002BE3D10B4B04221A7010BD0B
:1025700045F64043C4F200031A6892B242F01002DA
:102580001A60052323700A23637010BD044B98471B
:102590000623237010BD00BFB80A0020DC02002013
:1025A000C124000840F21443C4F201034FF4802216
:1025B0001A60704730B4CAB1551EEDB20135002320
:1025C0006D001C4607E03032CA54CA1802330001BD
:1025D000AB4254700AD0020F092AF4D93732CA54D8
:1025E000CA1802330001AB425470F4D130BC7047BA
:1025F00008B541F6ED63C0F60003984708BD00BF7B
:1026000041F20403C4F201031A6822F470021A6052
:102610001A6842F400121A601A681A60704700BF04
:1026200041F20402C4F20202116841F21C0321F4D7
:1026300080011160C4F202031A6842F400021A60B9
:10264000704700BF054B9B7A1BB9054B01221A60EE
:102650007047034B05221A60704700BFEC12002040
:10266000D402002040F2144238B5C4F201024FF403
:1026700080214FF480631160C4F20103196840F2B5
:10268000044221F480211960C4F2010210684FF461
:10269000816120F480201060C4F20101086840F2DA
:1026A0000C4240F480200860C4F20102116841F23B
:1026B000192421F4802111601D6842F2F15145F482
:1026C00080259020C0F600010022C0F600041D60A5
:1026D000A0474FF46143CEF200031A6842F2A551BD
:1026E00042F480121A60C0F600010022E820A047E0
:1026F0004EF20412CEF2000211684FF4826341F4EC
:1027000080611160C4F201031A6842F480221A60E9
:1027100038BD00BF41F20C03C4F201031A6818B9B6
:1027200042F400521A60704722F400521A60704757
:10273000F0B50D4683B0064659B1074F0024335D0E
:1027400005200DF1070101348DF80730B847AC4280
:10275000F5D303B0F0BD00BF4111000870B5204CA7
:102760002378012B26D01F4D2B68B3F5006F22D0A4
:102770001D4A11688B422FD098BF98B221D9C3F55A
:1027800000611A4A4029116098B21FD9403340397C
:102790002B6011604026164B012518183246C021C7
:1027A000144B257098472846134B314698472846C6
:1027B000124B984770BD0C4B0020196828600346E7
:1027C00051B1C91A094A40291160DFD8CB182B60D2
:1027D00000238EB21360DEE70023237070BD00BFBC
:1027E000E0020020E8020020E4020020EC020020C9
:1027F000DC0A002009320008493400080D330008C3
:1028000038B54FF2E8724FF2F073C1F6FF72C1F6BD
:10281000FF7312681B684FF2EC71C1F6FF71D0189C
:102820000C6807D004490822044DA84720460449F3
:102830000422A84738BD00BF12000020B5250008BB
:102840002200002030BF704708B538B1064B1B6826
:102850001B689847054B18680A3008BD034B0122D6
:102860001B681A8208BD00BF081300200C1300204B
:1028700008B538B1064B1B689B689847054B18682C
:102880000C3008BD034B01221B681A8208BD00BF33
:10289000081300200C13002008B5002837D0214B66
:1028A000214800211A680180137813F07F0317D0A4
:1028B000012B2BD0022B28D1537903F00F02920069
:1028C00002F1804202F5B84213F0800F136823D161
:1028D00003F44053B3F5805F11D1012303700EE080
:1028E000527A02F02003DBB202F040028B42D2B2F5
:1028F00018BF0223002AF1D043F0010303700B4BF1
:102900001B681B699847084808BD084608BD054B69
:1029100002221B681A8208BD03F03003102BEED18F
:10292000DBE700BF0C130020DC120020081300209E
:102930002DE9F8432B4E3468238A207A002B08BFF8
:10294000042814BF4FF000084FF001080AD1264BAD
:102950001A78012A30D0254B102207271A802772B7
:10296000BDE8F883A78AA2699F4234BF3D461D4651
:102970002846BB428CBF0227042790471C4B814648
:10298000404698472A4601461A4B484698472946EA
:10299000194B40469847238A628A5B1B2382134B5C
:1029A000AD1830221A806582144B34684FF44052BF
:1029B0001A802772BDE8F88345F65042C4F200023F
:1029C000116843F2020289B2C2F200028A18520070
:1029D00000211160054A04273020108019702772E9
:1029E000BDE8F8830C130020F0020020141300202F
:1029F0000934000809320008493400081213002085
:102A000010B50B4B0B4A1B685178DA78914201D212
:102A1000022010BD99780029FAD19C88002CF7D1AA
:102A20009A72054B1B685B689847204610BD00BF33
:102A30000C130020F00000200813002038B5104AC5
:102A4000104C1268236892695879D97890472368A6
:102A50009A7A0AB9022038BD0028FBD11A79002AD7
:102A6000F8D19D78002DF5D1074B1B68DB6898479E
:102A7000236828465979DA78D9721A7338BD00BFAD
:102A8000E41200200C1300200813002038B5354B49
:102A90001B68187810F07F0003D0022806D00220AF
:102AA00038BD5A7A22F020025A7238BD5A88002A5C
:102AB000F6D11A79002AF3D15A7922F080008100E8
:102AC00001F18044150604F5B84456BF2468256812
:102AD00004F44055244C48BF05F030052478A0424A
:102AE000DDD2002DDBD09B7A002BD8D002F0800302
:102AF000DBB273B101F1804303F5B8431B6803F007
:102B00003003102B21D0194B1B685B6998470020BC
:102B100038BD01F1804101F5B844236803F4405306
:102B2000B3F5805FEFD1C8B9114B93F82C10114B5E
:102B3000984722684BF68F73134083F4405343F455
:102B4000004343F080032360DDE7C4B220460A4B14
:102B5000984720463021094B9847D4E7084B9847BF
:102B6000E7E700BF0C130020F0000020081300204E
:102B70006C00002069340008993300088D32000889
:102B80007533000838B5224B19684B7923F0800261
:102B9000900000F180441D0604F5B84456BF246837
:102BA000256804F440551B4C48BF05F030052478D7
:102BB000A24201D3022038BD4A88002AFAD1002D52
:102BC000F8D08A7A002AF5D003F0800300F1804221
:102BD00002F5B842DBB211687BB148F6BF730B4017
:102BE00083F0100343F4004343F0800313600A4B67
:102BF0001B689B699847002038BD4BF68F730B40CC
:102C000083F4805343F4004343F080031360EEE702
:102C10000C130020F000002008130020054B1B6857
:102C20005A8A10B108688018704789888A1A1A82EF
:102C3000704700BF0C13002008B50C4B002093F820
:102C40002C100B4B98470B4B1B68187A082806D1A1
:102C5000094B4FF480521A80084B10221A80B0F1B1
:102C6000090CDCF1000050EB0C0008BD6C000020EA
:102C7000693400080C1300201213002014130020E4
:102C80002DE9F041354D2C68237A022B18BF042B17
:102C900014BF0026012605D0032B18BF052B07D033
:102CA000072B0ED0082323722D4B9847BDE8F081E7
:102CB000A169238A11B35BB9A38A002B49D0294AA1
:102CC0002EE0294B1B68DB6898472C680823EAE74D
:102CD000A78A9F4228BF1F4638468847228A638AB0
:102CE000D21BFB1880462282638230461F4B9847D6
:102CF0001F4B01463A4640469847238A002BDBD0BB
:102D00001C4B00204FF4405201461A801A4B984742
:102D1000238AA18A134A30209942108019D9A3B975
:102D20002C68062145F650432172C4F2000319684D
:102D300043F2020389B2C2F20003CB185B00002108
:102D4000196030231380237AADE72C6805232372A2
:102D5000A9E72C6803232372A5E700BF0C1300200A
:102D6000392C000814130020E41200202934000834
:102D70003D3200081213002049340008F0B545F632
:102D80005043C4F200039D4D1A682C6843F20403BB
:102D900092B2C2F20003D318227A5B00092A83B0F0
:102DA0001E6844D0B6B2760006F1804606F5C046ED
:102DB0003378934F237073786370B088B84760801E
:102DC00030892C68B847A080B3892C680122E38041
:102DD0002272002B30D06178062900F0878000290C
:102DE0005ED16388002B00F09480864E33680846DD
:102DF0001B69984703282B6862D01A8A4FF6FF7127
:102E00008A425DD002280CD05AB193F900100029F3
:102E1000C0F2B58003221A727B4B4FF440521A80E5
:102E200001E008221A72794B984703B0F0BDE3889D
:102E300001222272002BCED12378667813F07F0313
:102E400041D1092E00F00881052E00F0BF80032E2D
:102E500000F0F080012E3BD1E378012B38D1A3881C
:102E6000002B35D1637A03F02003DBB2002B2FD087
:102E7000674B984760BB2C6845F65043C4F200038B
:102E80001A6843F2020392B2C2F20003D3185B0045
:102E900000221A605F4A0623302111802372C2E7A4
:102EA000082948D123785B069FD15B4B0020A361A2
:102EB000608298472B684FF6FF711A8A8A42A3D125
:102EC00009221A72AFE7012B71D0022B00F08D801E
:102ED0004C4B30461B685B699847032800F0C5805F
:102EE0002C680028C8D0082323729CE723785B064F
:102EF0007FF47BAFA378434E012B00F0B080022B10
:102F00005ED0032B7FF472AF33685B6A002BCDD1A8
:102F10006CE7636823F47F43B3F5003F7FF465AF4C
:102F2000237813F07F0340F0A480A388002B7FF464
:102F30005CAF3A4BBAE70A297FF457AF237803F026
:102F40007F03012B7FF451AFA37A002B3FF44DAFE9
:102F50006388002B7FF449AF62682A4E22F47F42D7
:102F6000B2F5803F7FF442AF3268194660799369C9
:102F70009847002840F0BE802C68294B96E7D988F6
:102F800001910198824217D88A421E4E08D23168B8
:102F900091F82C108A4280F09580224A002111700D
:102FA000326892F82C209A821F4B98473BE70B2EF1
:102FB0008ED11E4B98475DE7019A124E1A82EFE7B9
:102FC00033681B6A002B7FF471AF0FE794F903306D
:102FD000002B88DBA378002B85D1A388002B82D11E
:102FE000A37A002B3FF448AF7DE7012E3FF440AFBA
:102FF000032E7FF46DAF0E4B98473BE70C13002078
:10300000D1340008E412002012130020392C0008EB
:103010008D2A000814130020492800089928000868
:1030200071280008F0020020312900083D2A00081C
:10303000852B0008E378012B7FF44AAFA388002B8F
:103040007FF446AF627A2D4B42F020021B68627219
:10305000DB6998472C680FE7294B98470AE73368E4
:10306000DB69002B7FF422AFC0E62C6809232372B2
:10307000D9E6012B31D0022B7FF4B7AE637903F090
:103080000F02900000F180401E0600F5B84056BFC8
:103090000068066800F440561A4848BF06F030063B
:1030A00000788242BFF4A1AE13F0700F14BF00236A
:1030B0000123002E0CBF002603F00106002E7FF432
:1030C00038AF92E692FBF1F001FB1022002A7FF468
:1030D00067AF0D4A0121117062E70C4E60793368C9
:1030E0009B69984730B92C68A37A002B7FF421AFF5
:1030F00061787BE62B68597878E600BF08130020DA
:10310000012A0008F0000020F0020020E412002054
:1031100070B40F4B1E7896B14FF4B844C4F200045B
:103120000023256843F4004140F60F7241F080010E
:103130002A4001330A439E4244F8042BF1D845F655
:103140004C4340F08000C4F20003186070BC70472C
:10315000F000002010B5144C23681A7A022A18BF18
:10316000042A10D0062A04D008221A720F4B98475E
:1031700010BD5A78052A0BD00D4B1B689B689847E9
:1031800023680822F1E70B4B984723681A7AECE78B
:103190001A785206F0D1D878074B9847074B1B682E
:1031A0001B6A9847E8E700BF0C130020392C000881
:1031B000E412002031290008113100080813002012
:1031C000704700BF10B541F2EC2241F20C34C2F25C
:1031D0000002C2F2000422600224147241F2E420D0
:1031E00040F26C0341F2083140F29C02C2F200034B
:1031F000C2F20000C2F20001C2F2000203600A60E3
:103200001B68984710BD00BF01F1005101F5405106
:1032100001324900531010B40DD00A1D023010F8CD
:10322000014C10F8021C023041EA042122F8041C6F
:103230000432013BF3D110BC704700BF01F10051D3
:1032400001F5405101324900531008D002300A1FE5
:1032500052F8041F20F8021C0230013BF8D17047DD
:103260004FF6F87345F650420340C4F20002136073
:10327000704700BF800000F1804202F5B84210683C
:1032800048F68F130340194311607047800000F126
:10329000804202F5B84210B401F01000146848F6FC
:1032A000BF7380B2234068B99BB201F0200189B29C
:1032B00009B183F0200343F4004343F0800313601B
:1032C00010BC704783F01003EFE700BF800000F1EF
:1032D000804202F5B84210B401F4805014684BF6F5
:1032E0008F7380B2234068B99BB201F4005189B258
:1032F00009B183F4005343F4004343F080031360A7
:1033000010BC704783F48053EFE700BF800000F1EA
:10331000804202F5B842116848F6BF730B4083F053
:10332000300343F4004343F080031360704700BF51
:10333000800000F1804202F5B84211684BF68F73AD
:103340000B4083F4405343F4004343F08003136085
:10335000704700BF800000F1804202F5B84211685A
:1033600040F60F630B4043F4004343F080031360C7
:10337000704700BF800000F1804303F5B8431A682E
:10338000510408D5196840F60F720A4042F44042D1
:1033900042F080021A607047800000F1804303F51C
:1033A000B8431A68500608D5196840F60F720A40EB
:1033B00042F4004242F0C0021A60704745F65043A2
:1033C000C4F200031A684FF6FE7392B202EBC0001B
:1033D00000F1005202F5405252000B40136070475A
:1033E00045F65043C4F200031A6843F2040392B254
:1033F00002EBC000C2F20003C3184FF6FE725B007E
:103400000A401A60704700BF45F65043C4F20003FB
:103410001B689BB203EBC00000F1005303F540535F
:103420005B001888704700BF45F65043C4F20003A4
:103430001A6843F2040392B202EBC000C2F2000326
:10344000C3185B001888704745F65043C4F2000368
:103450001A6843F2020392B202EBC000C2F2000308
:10346000C3185B001960704745F65043C4F200036F
:103470001A6843F2060392B202EBC000C2F20003E4
:10348000C3185B003E2909D94A09C90601D1013A8E
:1034900092B2920242F400421A6070474A08C8078A
:1034A00048BF013292021A60704700BF45F6504390
:1034B000C4F200031A6843F2060392B202EBC000A2
:1034C000C2F20003C3185B0018688005800D7047C6
:1034D000C3B2000A40EA0320704700BF10B441F2B3
:1034E000103345F6444445F640424FF43F41002036
:1034F000C4F20004C2F20003C4F20002206019808A
:10350000116010BC704700BF70B543F2AD4300F0CE
:103510007F052846C0F600030E46984743F229432C
:103520000446C0F600032846984743F23D2301466F
:1035300022463046C0F600039847204670BD00BFC3
:103540002DE9F04FDFF8ACA183B045F6444B0023E2
:10355000DFF8A491624DADF80630C4F2000BD046FE
:10356000DBF800304FF4B8449AB21B04AAF80020EC
:1035700040F1AB80B8F80020C4F2000402F00F0262
:10358000900000F18040574E4BF6BF71544F1346E8
:1035900000F5B84089F80020002A33D123689BB297
:1035A0002B802B8803F0300333802B8803F44053A7
:1035B0002B802368194081F4005181F0200141F4EF
:1035C000004141F080012160B8F8003003F01003A1
:1035D0009BB2002B49D023689BB2ADF80630BDF8F2
:1035E000063003F400639BB2002B71D1BDF80630A6
:1035F0001BB2002BB4DA226840F68F7313402360AD
:10360000394B38E0026892B2ADF80620BDF80620CA
:1036100012B2002A1BDBBDF8063003F080039BB218
:10362000002B9DD099F8001048F60F738A0002F124
:10363000804202F5B842106801390340136040F23D
:103640002C02C2F2000252F82130984788E7016844
:1036500040F68F720A40026040F24802013BC2F21B
:10366000000252F823309847D5E7226848F60F73D6
:10367000134023601D4B984721683A884BF6BF736F
:1036800002F4805292B20B400AB183F480533A881C
:1036900002F4005292B20AB183F40053328802F06D
:1036A000100292B20AB183F01003328802F02002B5
:1036B00092B20AB183F0200343F400434FF4B842BE
:1036C00043F08003C4F20002136003B0BDE8F08F42
:1036D000226840F68F7313402360054BCBE700BF91
:1036E0001213002014130020812C0008553100080B
:1036F0007D2D0008B40A0020E81200202564000097
:103700000A0A00002A2A2A2A2A2A2A2A2A2A2A2AAD
:103710002A2A2A2A2A2A2A2A2A2A2A2A2A2A2A2A09
:103720002A2A2A2A2A2A2A2A2A2A2A2A2A2A2A2AF9
:103730002A2A2A2A2A2A2A2A2A2A2A0A00000000B1
:103740002020202020202020202020202020202079
:103750002020202020204564752056302E35202042
:103760002020202020202020202020202020202059
:10377000202020202020200A000000002A20312EB6
:10378000204C4544205465737420202020202020A4
:103790002020202020202020202020202020202029
:1037A0002020202020202020202020202020202019
:1037B00020202A0A000000002A20322E204B6579A2
:1037C0005061642054657374202020202020202024
:1037D00020202020202020202020202020202020E9
:1037E00020202020202020202020202020202A0AE5
:1037F000000000002A20332E2037536567205465CF
:103800007374202020202020202020202020202011
:1038100020202020202020202020202020202020A8
:10382000202020202020202020202A0A0000000024
:103830002A20342E20434C63642054657374202066
:103840002020202020202020202020202020202078
:103850002020202020202020202020202020202068
:103860002020202020202A0A000000002A20352EB7
:1038700020425420546573742020202020202020D2
:103880002020202020202020202020202020202038
:103890002020202020202020202020202020202028
:1038A00020202A0A000000002A20362E2020202076
:1038B0002020202020202020202020202020202008
:1038C00020202020202020202020202020202020F8
:1038D00020202020202020202020202020202A0AF4
:1038E000000000002A20372E202020202020202029
:1038F00020202020202020202020202020202020C8
:1039000020202020202020202020202020202020B7
:10391000202020202020202020202A0A0000000033
:103920002A20382E20202020202020202020202067
:103930002020202020202020202020202020202087
:103940002020202020202020202020202020202077
:103950002020202020202A0A000000002A20392EC2
:103960002020202020202020202020202020202057
:103970002020202020202020202020202020202047
:103980002020202020202020202020202020202037
:1039900020202A0A000000002A206D2E20204D65DC
:1039A0006E75202020202020202020202020202074
:1039B0002020202020202020202020202020202007
:1039C00020202020202020202020202020202A0A03
:1039D000000000003E3E20004B657950616420539A
:1039E00074617274203A2070726573732074776FFB
:1039F000206B65797320746F20657869740A000004
:103A00002578204B6579507265737365640A0000F0
:103A10002578204B657952656C65617365640A0091
:103A20002578204B657952657065617420436E740A
:103A3000203A2025640A00004B6579204578697496
:103A40000A000000436E74203A2025640000000044
:103A5000425420546573742053746172742C207026
:103A600072657373207820746F20657869740A001A
:103A7000425420527864203A202563200A00000036
:103A80004D656E753A53656E64203A2025630D0AC4
:103A90000000000042542054657374204578697416
:103AA0000A000000536D617274526F626F7420429D
:103AB00044000000426172616D0000002603530063
:103AC00054004D006900630072006F0065006C00D7
:103AD00065006300740072006F006E00690063008F
:103AE00073000000120100020200004083044057EE
:103AF0000002010203010000040309043203530021
:103B000054004D003300320020005600690072005E
:103B10007400750061006C00200043004F004D00F0
:103B2000200050006F007200740020002000000090
:103B300009024300020100C0320904000001020230
:103B400001000524001001052401000104240202E3
:103B50000524060001070582030800FF090401008F
:103B6000020A000000070503024000000705810269
:043B70004000000011
:103B74003F065B4F666D7D277F675F7C395E797199
:103B84001A03530054004D003300320000000000BB
:103B9400000000000000000000000000151E0008E6
:103BA400C1310008C1310008C1310008C131000829
:103BB400C1310008C1310008C1310008C131000819
:103BC400891E0008C1310008C1310008C131000854
:103BD400C1310008303B00084300000041230008C5
:103BE40031220008FD2000081121000815210008D9
:103BF40075210008992100081922000801220008F3
:103C0400D92100080000000040000000C131000874
:103C1400D5200008C1310008C1310008C1310008B5
:103C2400C1310008C1310008C1310008ED2000088D
:103C3400E43A000812000000F83A0008040000000A
:103C4400BC3A000826000000FC3A000832000000DC
:103C5400100000201A00000000C20100000008004B
:043C64000401000057
:0400000508000B2DB7
:00000001FF
