:020000040800F2
:10000000005000209515000808B50020014B9847C6
:1000100008BD00BF0519000830B50B4B83B09847E9
:1000200000240A4880470A4D0A4B4FF47A71022295
:1000300020460094A8472046074A904707480849A9
:100040008847084B9847FEE76D16000869000008CE
:10005000351D000809000008511D00085C46000815
:100060006D0A0008B501000808B5054B984718B19E
:100070000448054A904708BD04480349884708BD1D
:1000800051080008844600086D0A00086846000808
:1000900038B5114D114C1248A0472846A0471148C9
:1000A000A0472846A0471048A0471048A04710483E
:1000B000A0471048A0471048A0471048A047104844
:1000C000A0471048A0471048A0471048A04728461E
:1000D000A0470F48A04738BDE04600086D0A000859
:1000E000DC4600081C4700085847000894470008F1
:1000F000D04700080C480008484800088448000819
:10010000C0480008FC480008384900087449000845
:10011000C84A000830B51E4C83B0A04701280DD056
:10012000A047022825D01B481B4CA0471B4A9047DC
:1001300005461B48A047284603B030BD194A0DF1BB
:100140000600904701A818498847BDF80630642288
:1001500002FB03F3154802F1024E0EF502211F3196
:1001600081FB031C6344BDF804105A110A4CA047DC
:10017000DCE70DF106000B4DA8470B4C01A8A0478A
:10018000BDF80600642202FB00F30948E3E700BF64
:1001900095050008D04900086D0A000849180008B4
:1001A000C84A0008D9050008D9070008B049000866
:1001B000C04900082DE9F04FDFF8248383B0C04721
:1001C000AC4CAD4DAD4EAE4FA0470346002800F0FD
:1001D0008980303B3D2BF7D801A252F823F000BFB5
:1001E00015040008EF030008E1030008C10300083C
:1001F000AD03000893030008850300087703000897
:100200002B030008EB020008C9010008C90100081F
:10021000C9010008C9010008C9010008C901000896
:10022000C9010008C9010008C9010008C901000886
:10023000C9010008C9010008C9010008C901000876
:10024000C9010008C9010008C9010008C901000866
:10025000C9010008D9020008C9010008C901000845
:10026000C9010008C9010008C9010008C901000846
:10027000C9010008C9010008C9010008C901000836
:10028000C9010008C9010008C9010008C901000826
:10029000C9010008C9010008C9010008C901000816
:1002A000C9010008C9010008C9010008C901000806
:1002B000C9010008C9010008C9010008C9010008F6
:1002C000C9010008C9010008C9010008C9010008E6
:1002D000C9010008D9020008C047A047034600280A
:1002E0007FF477AF03B0BDE8F08FB047012800F08E
:1002F000A580DFF8F0916349B9F800A037F81A003B
:100300008847614A824601A8904740EA0A039AB2A8
:10031000BDF804105D48A847B9F80030002B3FF441
:1003200053AF581EA9F800004EE7B047012800F06F
:10033000DF80DFF8B091534BB9F800A037F81A000E
:1003400098475149824601A8884740EA0A0292B27A
:100350004E48BDF80410A847B9F80020531C1FFAF6
:1003600083FC37F81C00A9F800C000287FF42CAFEC
:10037000A9F8002028E70A20454A90470146454849
:10038000A84721E70A20444B984701464348A8471D
:100390001AE70DF10700424A9047014668B99DF8F7
:1003A0000700012841D03F48A8470DE70DF107009D
:1003B0003D4B984701460028F1D03C48A84703E749
:1003C000B0473B4B0A2098472F49814601A88847F0
:1003D00040EA0902BDF80410364892B2A847F3E695
:1003E000B047354B012814BF01200A20EBE7DFF8A6
:1003F000F89099F8003083B9304988470146304871
:10040000A8473048804799F800E08EF0010C89F841
:1004100000C0D9E62C48A847D6E62C4B98470146A1
:100420002B48A847274A9047EDE701A81649884777
:10043000BDF8041002462748A847C5E6DFF8AC908F
:100440002548B9F800E00F4930F81E0088470E4AE9
:10045000824601A8904740EA0A0CBDF804101F48E4
:100460001FFA8CF2A847B9F80030002B3FF4ACAE6D
:1004700057E700BF150100086D0A00089505000840
:10048000CC4A00083D070008D9070008A44A000824
:1004900029060008704A0008610600085C4A000846
:1004A000F10800083C4A000889090008484A000889
:1004B000C9080008084A0008A10800084D050008FE
:1004C000E049000821080008C44A00087105000836
:1004D000F4490008204A000898460008844A0008A9
:1004E0009100000800020020040200200202002007
:1004F000DFF85090DFF850A0B9F800B00E493AF894
:100500001B0088470D4A834601A8904740EA0B0329
:10051000BDF804100A489AB2A847B9F80020511C47
:100520001FFA81FC3AF81C00A9F800C000287FF4EB
:100530004BAEA9F8002047E63D070008D9070008A0
:10054000844A0008020200209846000810B5064CB4
:100550000020A082054B9847A08210B9012121807C
:1005600010BD022010BD00BFB4020020D52A000833
:1005700010B5064C0020A082054B9847A08210B908
:100580000221218010BD022010BD00BFB402002056
:10059000312A0008024B00229A821888704700BF57
:1005A000B402002010B50A4C0023B4F806C0A382A0
:1005B000604528BF60468201101A90FBFCF189B2A9
:1005C0004FF48040034B984708B1A082022010BD31
:1005D000B4020020E929000830B5104C83B0002295
:1005E00002A9054621F8022D4FF48040A2820C4B4F
:1005F000984718B1A082022003B030BDBDF8062094
:10060000B4F806C0074902FB0CF381FB032EDA178E
:100610000EEB030CC2EB6C112980EDE7B402002055
:10062000A12900088320088210B50A4982B000225F
:1006300004468A820DF10600074B984740B9BDF881
:1006400006C0064BA44584BFC4EB0C0080B298479B
:1006500002B010BDB4020020D9050008A5050008AD
:1006600030B50B4C83B000210546A1820DF1060088
:10067000084B984750B9BDF80600B4F806C02D18CD
:10068000A8B2604528BF6046034A904703B030BD1A
:10069000B4020020D9050008A505000810B50F4CCC
:1006A00000212289B4F80AC0904238BF1046604544
:1006B00028BF6046A1820A4B984710B1A082022051
:1006C00010BD4FF4FA70074B98470028F8D101206D
:1006D000054988470028F3D0F0E700BFB4020020A6
:1006E000652900088D2800083528000810B50F4C32
:1006F0000021A289B4F80EC0904238BF1046604570
:1007000028BF6046A1820A4B984710B1A082022000
:1007100010BD4FF4FA70074B98470028F8D101201C
:10072000054988470028F3D0F0E700BFB402002055
:10073000252900088D2800080D28000808B5074B5A
:100740001B88012B06D0022B01D0032008BD044AD0
:10075000904708BD0349884708BD00BFB402002088
:10076000ED0600089D0600080A490022F8B5054676
:100770008A820120084B9847044640B9074E022060
:10078000B04707460320B04740EA072028802046AC
:10079000F8BD00BFB402002035280008B9260008C3
:1007A0000A490022F8B505468A820120084B98477D
:1007B000044640B9074E0220B04707460320B04721
:1007C00040EA072028802046F8BD00BFB402002080
:1007D0000D280008B926000810B50E4B82B01B8802
:1007E0000446012B0FD0022B02D0032002B010BD13
:1007F0000DF10600084A90470028F7D1BDF806C061
:10080000A4F800C0F2E70DF106000449884700286B
:10081000ECD1F3E7B4020020A10700086907000843
:10082000084A08B51388012B07D0022B01D00320FA
:1008300008BD90890449884708BD1089034B984733
:1008400008BD00BFB4020020ED0600089D060008A8
:1008500008B50F4880470F4841F6B05342F62621AD
:100860004FF40272038141810023828140F2AE6C19
:1008700000223F218380A0F80EC0C1800280428008
:100880008282054B984708B9044A904708BD00BFCB
:1008900089260008B40200204D0500082108000840
:1008A00010B582B00446064B0DF10600984728B9F2
:1008B000BDF8060003492418A0B2884702B010BD55
:1008C000D90700083D07000810B582B00446064B62
:1008D0000DF10600984728B9BDF806000349041B2E
:1008E000A0B2884702B010BDD90700083D07000834
:1008F00070B51E4C002223880546A2825BB1012BF5
:100900000CD000201A4E0146B04706466EB1A682B2
:100910000226304670BD0326304670BD00200146D9
:10092000144B98470646002EF1D144F62060124938
:10093000884706460028EAD12088012810D00120E7
:100940000E4B9847064616B100222A70DFE70120B9
:100950000B49884710F0010F06D001202870D8E716
:10096000084A90470646EEE72E70D2E7B402002010
:10097000C5280008F52800088D2800080D28000863
:10098000B92600083528000870B51E4C0546208899
:100990000023A38258B101280CD01B4E0120002156
:1009A000B047064666B1A6820226304670BD0326D1
:1009B000304670BD0021154A90470646002EF2D100
:1009C00044F620601249884706460028EBD120886B
:1009D000012810D001200F4A9047064616B1002387
:1009E0002B70E0E701200C49884710F0010F06D07A
:1009F00001202870D9E7094B98470646EEE72E708C
:100A0000D3E700BFB4020020C5280008F52800087D
:100A10008D2800080D280008B92600083528000890
:100A200010B4E0B10278E2B100220A600378ABB101
:100A3000A3F13004E4B2092C02D912E0092C12D837
:100A400002EB820203EB4202303A0A6010F8013FE7
:100A5000A3F1300C5FFA8CF4002BEFD1012010BC15
:100A600070471046FBE70020F9E700BF0FB42DE9FF
:100A7000F04F8DB00DF1580858F8045BDFF8C492C0
:100A8000AE4F2878002800F0CA80252840F0CC809E
:100A90008DF81C0068780135A0F16301CBB2012B01
:100AA00040F2FD82732800F0FA82782800F0F78285
:100AB000252800F0F4828DF81D0015F8010FA0F133
:100AC000630C5FFA8CF2012A40F2F382732800F083
:100AD000F082782800F0ED82252800F0EA828DF877
:100AE0001E0015F8010FA0F16301CBB2012B40F2FB
:100AF000E282732800F0DF82782800F0DC8225286B
:100B000000F0D9828DF81F0015F8010FA0F1630CD9
:100B10005FFA8CF2012A40F2D082732800F0CD8275
:100B2000782800F0CA82252800F0C7828DF82000BE
:100B300015F8010FA0F16301CBB2012B40F2BF8287
:100B4000732800F0BC82782800F0B982252800F0D4
:100B5000B6828DF8210015F8010FA0F1630C5FFA41
:100B60008CF2012A40F2AD82732800F0AA82782824
:100B700000F0A782252800F0A4828DF8220015F845
:100B8000010FA0F16301CBB2012B40F29C827328CC
:100B900000F09982782800F09682252800F0938250
:100BA0008DF8230015F8010FA0F1630C5FFA8CF2A9
:100BB000012A40F28A82732800F08782782800F0A8
:100BC0008482252800F081828DF8240015F8010F19
:100BD000A0F16301CBB2012B40F24A84732800F0EC
:100BE0004784782800F04484252800F041848DF85B
:100BF000250015F8010F0135642800F0A58017D8ED
:100C0000252800F0888063287FF43BAF58F8040B58
:100C10004B4BC0B29847287800287FF436AF0DB010
:100C2000BDE8F04F04B0704745498847013528E7D3
:100C3000732873D078287FF424AF58F8042B9DF8DC
:100C40001C3000240B920A94002B00F07184782B46
:100C500033D02646A246A3F131015FFA81FCBCF1F4
:100C6000080F54D80CAA02EB060E1EF8142CA2F1A1
:100C70003000C3B2092B00F20F82002304A80DF14B
:100C80001C0E0136C2541EF806200133A2F13001B9
:100C90005FFA81FCBCF1090FF3D90DF1300E7344FA
:100CA0000AA903F820AC013EB84701360CAA9019F6
:100CB00010F8143C0BB1782BCDD10B9B0A9A03F49E
:100CC0007F0003F47F4C011241EA0C2040EA036CE0
:100CD0004CEA13610B91002A00F0DF8012F0010F43
:100CE00000F09782D043083000EBD0714A100BAB74
:100CF00013F802E01EF00F0300F0D383092B40F23B
:100D0000388437330E49184688470021CFE3302B0B
:100D100008BF0124C9E70A4B9847B2E658F8044BCC
:100D2000002C3FF4AEAE207800283FF4AAAE044E6B
:100D3000B04714F8010F0028FAD1A2E6210A0008F2
:100D400019180008676666669DF81C30002658F87A
:100D500004BB0A96002B00F0F380642B00F0F080B7
:100D60003446B246A3F131025FFA82FEBEF1080FAB
:100D700000F28F800CA8031913F8142CA2F1300193
:100D80005FFA81FCBCF1090F00F28381002304A803
:100D90000DF11C0E0134C2541EF804200133A2F1DF
:100DA00030015FFA81FCBCF1090FF3D90CAA02EB08
:100DB000030E0AA90EF820AC013CB84701340CA878
:100DC000031913F8143C0BB1642BCBD10A990029F9
:100DD00000F0B680092940F3DD82092007240A903B
:100DE0000621204600F0010E6423421E90B1BEF1A0
:100DF000000F05D0013AB2F1FF3F4FF47A7309D0EA
:100E000003EB8303D80000EB4303023A5B00B2F12B
:100E1000FF3FF5D19BFBF3FA03FB1ABB002C00F05C
:100E2000858301F0010264244B1E81B12AB1013B8C
:100E3000B3F1FF3F4FF47A7409D004EB8401CA0088
:100E400002EB4104023B6400B3F1FF3FF5D1012303
:100E5000DFF87CA2039535461E469BFBF4F1C8B231
:100E6000303004FB11BB002940F01081012C00F050
:100E70000D81002E00F00A81302005B92020D047D6
:100E800089FB040EE017C0EBAE04002CE5DC039DEB
:100E9000F7E5302B08BF012690E79DF82C201309B9
:100EA00002F00F0440F0DC82894E0123002C40F058
:100EB0009182002B00F045839DF82DC001225FEA4E
:100EC0001C130CF00F0400F09482092B40F25C8399
:100ED00003F13700B0470023002C40F09182002B33
:100EE00000F032839DF82EE001225FEA1E130EF01F
:100EF0000F0400F09482092B40F2298303F137009C
:100F0000B0470023002C40F09182002B00F0228398
:100F10009DF82F000122030900F00F0400F09482D5
:100F2000092B40F2948203F13700B047002C00F007
:100F30009282092C40F28F8204F13700B047A0E57D
:100F400064494FEAEB7681FB0B3C634CC6EB2C7398
:100F500004FB13BB002B00F0D7805FFA83FE5F4ECB
:100F60000EF130005A4CA04786FB0B604FEAEB7342
:100F70005B4AC3EB6063002102FB13B6002B00F059
:100F8000D2805FFA83FC0CF13000A0475548F3177C
:100F900080FB060E544AC3EBAE53002102FB1366DE
:100FA000002B00F0D080D9B201F13000A0474F48AB
:100FB000F31780FB060C4E4AC3EBAC43002102FB47
:100FC0001366002B00F0CF805FFA83FE0EF1300035
:100FD000A0474848F31780FB060C474AC3EB6C3325
:100FE000002102FB1366002B00F0CD80D9B201F185
:100FF0003000A0474148F31780FB060242F2107E02
:10100000C3EB223300210EFB1366002B00F0CC80D3
:101010005FFA83FC0CF13000A0473948F31780FBDE
:1010200006024FF47A7EC3EBA21300210EFB136677
:10103000002B00F0CA80D9B201F13000A04731483E
:10104000F31780FB060C6422C3EB6C13002102FB38
:101050001366002B00F0C9805FFA83FE0EF13000AA
:10106000A04789FB063CF317C3EBAC0303EB8302F9
:101070000021A6EB4206002B00F0C780D9B201F197
:101080003000A047F0B23030A047FAE4D047002645
:10109000F6E6002304A889E6002304A8FDE5012361
:1010A0000CA901EB030C00220CF8140C0CF8132C07
:1010B000A1E50223F4E70323F2E70423F0E7052385
:1010C000EEE70623ECE70723EAE70823E8E700BF9B
:1010D00019180008A12FB84400CA9A3B893BE6556D
:1010E00000E1F5056BCA5F6B8096980083DE1B43B9
:1010F00040420F0089B5F814A0860100AD8BDB6873
:10110000D34D62101F85EB51A64E4FEAEB7386FB61
:101110000B60A54AC3EB6063A44C012102FB13B62C
:10112000002B7FF42EAF00293FF42BAFA048F3171C
:1011300080FB060E9F4AC3EBAE53012102FB1366F0
:10114000002B7FF430AF00293FF42DAF9A48F317FE
:1011500080FB060C994AC3EBAC43012102FB1366EA
:10116000002B7FF431AF00293FF42EAF9448F317E2
:1011700080FB060C934AC3EB6C33012102FB136620
:10118000002B7FF433AF00293FF430AF8E48F317C4
:1011900080FB060242F2107EC3EB223301210EFBDC
:1011A0001366002B7FF434AF00293FF431AF87483A
:1011B000F31780FB06024FF47A7EC3EBA2130121E2
:1011C0000EFB1366002B7FF436AF00293FF433AFDC
:1011D0007F48F31780FB060C6422C3EB6C130121DC
:1011E00002FB1366002B7FF437AF00293FF434AFC6
:1011F00089FB063CF317C3EBAC0303EB830201212D
:10120000A6EB4206002B7FF439AF00297FF43AAFFA
:1012100034E70121C2F1080C0CEBDC725210032AF6
:101220003FF72FAC0DF12C0B0BEB02031BF802E088
:10123000D84300F0010603965E1C5FEA1E100DF114
:10124000300BDFF868A10EF00F0240F01381002987
:1012500000F09881002C40F05481202002920193EC
:10126000D047029A0121019B002A00F01081092A2F
:1012700040F2858102F137000193D047019B0022A3
:101280005E453FF4FEAB0398F0B193F801C0013620
:101290005FEA1C110CF00F0300F02481092940F2D1
:1012A0006B8101F137000193D047019B0022002B95
:1012B00000F01181092B40F2598103F13700D0472A
:1012C00000225E453FF4DDAB039516F8013B254651
:1012D00003F00F041B092ED0092B40F2448103F1C7
:1012E0003700D0470023002C30D0092C40F2388141
:1012F00004F13700D047002216F8011B0B0901F05A
:101300000F0432D0092B40F2198103F13700D04786
:101310000023002C34D0092C40F20D8104F1370059
:10132000D04700225E453FF4B2AD16F8013B03F012
:101330000F041B09D0D1002A00F01581002D00F008
:10134000C6803020D0470123002CCED1002B00F0E6
:101350000781002D00F0B7803020D04716F8011B20
:1013600001220B0901F00F04CCD1002A00F0E68025
:10137000002D40F0A0802020D0470123002CCAD1AE
:10138000002B00F0D880002D40F099802020D0471D
:101390000122C7E7481E00F0C5808C1E01380339C2
:1013A00020E500BF893BE65500E1F5051918000866
:1013B0006BCA5F6B8096980083DE1B4340420F0030
:1013C00089B5F814A0860100AD8BDB68D34D62109F
:1013D0001F85EB51092C40F2B48004F13700B0476F
:1013E0009DF82DC000225FEA1C130CF00F047FF45F
:1013F0006CAD002A00F0C8800123002C3FF46FADD3
:10140000092C40F2A18004F13700B0479DF82EE08E
:1014100000225FEA1E130EF00F047FF46CAD002A69
:1014200000F095800123002C3FF46FAD092C40F2B1
:10143000918004F13700B0479DF82F000022030986
:1014400000F00F047FF46CAD002A7FF46FAD03F160
:101450003000B0476AE504F13000B047FFF711BB38
:10146000092B7AD903F13700494EB04700231DE517
:10147000092315E6092840F285803730029201934E
:10148000D047029A0021019B002A7FF4F0AE002988
:1014900075D0002C2FD101932020D0470122019B31
:1014A000EEE6002C39D03020394A904701210A98C5
:1014B000421E0A92AEE63020D047012329E73020B1
:1014C000D04701222EE72020D047012214E7202018
:1014D000D047012307E7002A48D0D4B92020D047BD
:1014E0000122EEE6002A47D06CB901932020D047B4
:1014F0000122019BDBE601933020D0470122019BB2
:10150000BEE63020AAE601933020D0470122019B9D
:10151000CDE63020D0470122D3E620201C4B98474F
:101520000121C4E78C1E0A23033973E40A248EE4E4
:101530001C46FFF7C2BB04F13000F1E603F13000B6
:10154000E5E604F130004AE704F130005DE703F11D
:101550003000D5E404F130006DE703F1300083E79B
:1015600004F13000C6E603F13000BAE603F13000C2
:10157000A5E63033FFF7C6BB01F1300093E602F178
:10158000300079E6303079E703F13000A2E400BFA3
:1015900019180008684620F007018D4679B52B49D7
:1015A0002B4CA14221D22B480B46024652F8046B29
:1015B000CD4343F8046B6519A342C5F3800514D2EB
:1015C0003DB1156800F108021D6001F10803A34256
:1015D0000BD2104650F8045B194641F8045B55687D
:1015E000021D5D600B1DA342F3D31E481E494FF040
:1015F00000028842B8BF40F8042BFADB16490023EA
:1016000008680A4640F48030086006E0106810F46C
:10161000003F07D1B3F5A06F04D01168023311F475
:10162000003FF3D00D490B6843F0100008600A68D2
:1016300022F003030B600868094B40F002020A60C5
:101640009847BDE879408546704700BF00000020FC
:10165000E4000020984B00080010024000200240E7
:1016600019000008000200204410002008B50E4AAE
:1016700090470E4988470E4A0E484FF033331360A7
:101680000D4950600D48C2F80034C2F804340860B7
:101690000B4B98470B4A90470B4988470B488047AC
:1016A0000B4B984708BD00BF59180008651A000881
:1016B00000080140B3343333041001404444443340
:1016C000B1170008C5180008E11A000889260008AB
:1016D000851D000882B000210191019B984205D927
:1016E00001994B1C0193019A8242F9D302B07047D1
:1016F00082B00021019100EB4000019B42009A4220
:1017000005D90199481C0190019B9A42F9D802B071
:10171000704700BF00B5054883B0026802A90020E9
:1017200001F8012D024B984703B000BD0438014079
:101730007919000870B5124D124C2B68002243F441
:1017400080462E600C2525600F4D104B40F271260F
:101750002A606A6045F8086C1E680D4D46F0200648
:101760001E602368686043F02003A9602520236081
:101770000849094B9847206840F40053236070BD26
:10178000181002400C3801401038014004E100E01C
:10179000CC02002015170008751A000808B518B902
:1017A0000846024B1146984708BD00BF3517000890
:1017B00010B50A480A4C8047002318461A46636051
:1017C000A36023616361E3612362A362E3626363F5
:1017D000A3634FF4E131034B984710BD191900087A
:1017E000CC0200209D17000830B5002383B0084DBF
:1017F00004468DF807302046A8470028FBD0204635
:101800000DF10701034A90479DF8070003B030BD72
:1018100045190008F11900080A2808D0084AC0B282
:10182000136813F0800FFBD0064A10607047044A1B
:10183000136813F0800FFBD002490D220A60EDE718
:10184000003801400438014008B50020014B98479A
:1018500008BD00BFE9170008174B184918680A4669
:1018600020F47C101860186840F4E81018600868CC
:1018700040F080730B60116811F0007FFBD00E4BBD
:1018800019681A4621F003001860196841F0020037
:101890001860196821F480001860136803F00C0CBC
:1018A000BCF1080FF9D1064A136843F4804141F0B6
:1018B0001D001060704700BF04100240001002407D
:1018C000181002400C4A0D4B10680D4920F0E060E2
:1018D0001060106840F0806010601A6822F4704058
:1018E00018601A6842F4405018601A681A60086854
:1018F00040F008030B60704704000140000C0140F9
:101900000C0C014020B9034B186880F008021A60E3
:10191000704700BF0C0C01400849094A00230B80A6
:1019200013804B8053808B809380CB80D3800B813E
:1019300013814B8153818B81938170470004002078
:101940001004002009490A4B31F9101033F9102016
:10195000203108488B1A03EA0000002800DB70479A
:10196000421E62F01F000130704700BF10040020CB
:10197000000400201F000080194A70B4194E32F88C
:10198000104036F9105022B202F12006164B751B9A
:1019900005EA0303002B16DB1F2B1AD00134124B70
:1019A000450124B22E1804EA03030D780F4906EB13
:1019B000020C002B01F80C500DDB094A22F8103004
:1019C000012070BC7047013B63F01F0301331F2BE4
:1019D000E4D10020F5E7591E61F01F02531CECE72B
:1019E00010040020000400201F00008008030020D5
:1019F00030B4184A184C32F8102034F91050174BF4
:101A0000203514B22D1B05EA0303002B14DBCBB1E8
:101A100043011D182C190132104B114D0FFA82FC95
:101A20002C5D0CEA0303002B0C700DDB094921F837
:101A30001030012030BC7047013B63F01F030133BD
:101A4000002BE5D11846F5E75A1E62F01F014B1C2A
:101A5000ECE700BF00040020100400201F000080FD
:101A600008030020014B024A1A60704708ED00E0AD
:101A700000060020024B103043F82010704700BFD2
:101A800000060020024B800843F82010704700BF7A
:101A90000006002008B53C2002490022024B98476E
:101AA00008BD00BF291D0008851A0008094A0A4917
:101AB0000A4B002011605060196841F00400186062
:101AC0001A6842F002011960186840F001021A60B9
:101AD000704700BF14E000E03F19010010E000E093
:101AE00010B51A4C2378012B2ED0194B00201870FA
:101AF000588098809860187458829882986183F80A
:101B0000200058849884986283F83000588698861C
:101B1000986383F84000A3F84200A3F84400986457
:101B200083F85000A3F85200A3F85400986583F896
:101B30006000A3F86200A3F864009866054A904725
:101B4000054988470120207010BD00BF7C0200209D
:101B500008020020951A0008AD1A000810B56F4C55
:101B60006F4A2368591C2160108883B213B1118811
:101B7000481E10806B4C2278012A1ED0237C694AB3
:101B8000012B30D094F82030664A012B41D094F8D4
:101B90003030644A012B52D094F84030614A012B16
:101BA00063D094F850305F4A012B76D094F86030BF
:101BB0005C4A012B00F08A8010BD6088431E9BB2F6
:101BC0006380002BDAD194F801C0BCF1010F00F062
:101BD0009680B4F804E0A168A4F802E08847237C6A
:101BE000504A012BCED1518A481E83B25382002B1A
:101BF000C8D192F811C0BCF1010F7ED0B4F814E046
:101C0000A269A4F812E0904794F82030454A012BCD
:101C1000BDD1518C481E83B25384002BB7D192F8AA
:101C200021C0BCF1010F75D0B4F824E0A26AA4F879
:101C300022E0904794F830303A4A012BACD1518ED3
:101C4000481E83B25386002BA6D192F831C0BCF156
:101C5000010F5CD0B4F834E0A26BA4F832E09047F6
:101C600094F840302F4A012B9BD1B2F84210481E05
:101C700083B2A2F84230002B93D192F841C0BCF15C
:101C8000010F41D0B4F844E0A26CA4F842E09047C0
:101C900094F85030234A012B88D1B2F85210481ED4
:101CA00083B2A2F85230002B80D192F851C0BCF11F
:101CB000010F26D0B4F854E0A26DA4F852E090478A
:101CC00094F86030174A012B7FF476AFB2F86210B7
:101CD000481E83B2A2F86230002B7FF46DAF92F8F9
:101CE00061E0B4F864C0BEF1010F08BF82F8603053
:101CF000A4F862C0A26E904710BD13747EE72370F3
:101D000067E782F85030D5E782F84030BAE782F8CA
:101D100030309FE782F8203086E700BF780200204D
:101D20007E0200200802002008B5014B984708BD3C
:101D30005D1B000810B4054C04EB0010427083607A
:101D4000019B4180C360818010BC70470802002065
:101D5000062803D8024B000101221A54704700BF25
:101D600008020020034B1880188882B2002AFBD199
:101D7000704700BF7E020020014B1868704700BF0B
:101D80007802002008B5044A90470449884704486F
:101D90008047044B984708BDD5330008F13300084D
:101DA00031340008C540000808B5014B984708BD0C
:101DB000411E000810B5014CA04710BDB925000810
:101DC00010B5014CA04710BD9924000838B5054650
:101DD000054C0A20A04725B9044B186840F0400282
:101DE0001A600A20A04738BDF11600080C0C01400B
:101DF000104B10B51968002021F070621A60196844
:101E00000D4C41F040721A60196819601A6822F08E
:101E1000704119601A6842F0405119601A681A60DE
:101E2000A047064B0120196841F080021A60A047C4
:101E300010BD00BF000C0140CD1D00080C0C01407E
:101E400008B5014B984708BDF11D000838B5054697
:101E5000054C0A20A04725B9044B186820F0400221
:101E60001A600A20A04738BDF11600080C0C01408A
:101E700070B5054680B90C4E0C4933680C4C23F004
:101E80008002326088472846A047306840F08003CF
:101E900033602846A04770BD044CA0472846044C38
:101EA000A0472846A04770BD0C0C01404D1E0008FD
:101EB000CD1D000870B504460B4DA84774B90B4EF4
:101EC0002046326842F080013160A847306820F037
:101ED000800333602046064B984770BD2046A847D4
:101EE0002046034B984770BDCD1D00080C0C0140E7
:101EF0004D1E000878B9084B084A196821F0704057
:101F0000186019681960186840F00041196010687D
:101F100040F0800313607047000C01400C0C01403E
:101F20002DE9F84304465D4B0F465D4D984720462A
:101F3000A847002C40F08980DFF86C812046D8F853
:101F40000090584EB047C9F3C01120464FEA4109EE
:101F5000A847D8F800005FFA89F910F0800F01D087
:101F600049F001090020B04700204FEA490C5FFA10
:101F70008CF8A8474C4B186810F0800F01D048F03F
:101F800001080020B0470020A847474A4FEA480808
:101F900011685FFA88F811F0800F01D048F001084D
:101FA0000020B04700204FEA480C5FFA8CF8A847A1
:101FB0003D4B186810F0800F01D048F00108002058
:101FC000B0470020A847384A4FEA480811685FFA2E
:101FD00088F811F0800F01D048F001080020B047C8
:101FE00000204FEA480C5FFA8CF8A8472E4B18687F
:101FF00010F0800F01D048F001080020B047002009
:10200000A847294A4FEA4808116811F0800F01D00B
:1020100048F001080020B047244B87F800801A6878
:10202000234822F0704119601A6842F0405119604B
:102030001A681A60016821F0800303602046A847EF
:102040002046B0470020BDE8F883164E2046B04732
:102050002046A8472046B0472046A8472046B0471C
:102060002046A8472046B0472046A8472046B0470C
:102070002046A8472046B0472046A8472046B047FC
:102080002046A8472046B04700223A702046A8477D
:102090002046B0470020BDE8F88300BFF51E0008C9
:1020A000CD1D00084D1E0008080C0140000C014029
:1020B0000C0C01402DE9F8430446534B8846534D20
:1020C00098472046A847002C75D1514F2046D7F895
:1020D0000090504EB047C9F3C01120464FEA410965
:1020E000A84738685FFA89F910F0800F01D049F0ED
:1020F00001090020B0474FEA490C00205FFA8CF735
:10210000A84743490B6813F0800F01D047F001073F
:102110000020B0470020A8473D487F000268FFB27A
:1021200012F0800F01D047F001070020B0477A007D
:102130000020D7B2A84736490B6813F0800F01D0B2
:1021400047F001070020B0470020A847304B7F0030
:102150001868FFB210F0800F01D047F0010700208F
:10216000B0477B000020DFB2A847294A116811F070
:10217000800F01D047F001070020B0470020A8479A
:1021800023497F00086810F0800F01D047F0010755
:102190000020B047204A214B106840F080011160B8
:1021A000186820F070421A60196841F040501860B9
:1021B0001A681A601FE0174E2046B0472046A8470D
:1021C0002046B0472046A8472046B0472046A847AB
:1021D0002046B0472046A8472046B0472046A8479B
:1021E0002046B0472046A8472046B0472046A8478B
:1021F0002046B04700272046A8472046B04788F829
:1022000000700020BDE8F883F51E0008CD1D000811
:10221000080C01404D1E00080C0C0140000C014050
:1022200011F0800FF8B50F46044640F011810028E8
:1022300000F0FF8020467F00914EB047914D204630
:10224000FFB2A84717F0800F40F0F980002C00F093
:10225000D88020467F00B047FFB22046A84717F03D
:10226000800F40F0DD80002C00F0B38020467F001E
:10227000B047FFB22046A84717F0800F40F0B88063
:10228000002C00F08E8020467F00B047FFB2204631
:10229000A84717F0800F40F09380002C6BD02046A9
:1022A0007F00B047FFB22046A84717F0800F70D1DB
:1022B000002C4AD020467F00B047FFB22046A847F6
:1022C00017F0800F4FD1002C2AD02046B04720466F
:1022D000A84717F0400F2FD1002C40F0C2806A4968
:1022E0000C6824F0800008600020B0470020A84758
:1022F000664A002090470020B047654B00201C68CC
:10230000A8476448C4F3C014016821F07042026019
:10231000036843F040510160026802602046F8BD46
:1023200059490B6823F0800008602046B0472046DA
:10233000A84717F0400FCFD0002C40F09280524BAE
:102340001A6842F080041C60CEE74F4B7F0018688B
:10235000FFB220F080021A602046B0472046A8470E
:1023600017F0800FAFD0002CAFD14748016841F083
:1023700080020260A9E744497F000B68FFB223F0A6
:10238000800008602046B0472046A84717F0800F1D
:102390008ED0002C8ED13C4B1A6842F0800119601F
:1023A00088E7394B7F001868FFB220F080021A607E
:1023B0002046B0472046A84717F0800F3FF46DAF86
:1023C000002C7FF46CAF3048016841F0800202605D
:1023D00065E72D497F000B68FFB223F0800008609D
:1023E0002046B0472046A84717F0800F3FF448AF7B
:1023F000002C7FF448AF244B1A6842F0800119602A
:1024000041E7214B7F001868FFB220F080021A607C
:102410002046B0472046A84717F0800F3FF423AF6F
:10242000002C7FF423AF1848016841F0800202605D
:102430001CE7154B186820F080021A60FAE6002CA1
:102440007FF407AF104B1A6842F08001196000E773
:1024500000287FF4EFAE0C4D2E6846F08001296015
:10246000E8E62046B0472046A847084B2046984754
:102470002046B04720460024A8472046F8BD00BFAC
:10248000CD1D00084D1E00080C0C0140F51E000873
:10249000080C0140000C01402DE9F04F1D4683B0AF
:1024A00004460E461746002B62D03E4A9047700005
:1024B00040F00101C9B220463B4B98476E1E5FFABF
:1024C00086F906F001068046DFF8E4B0DFF8E4A004
:1024D0000196B9F1000F5CD120463946D84740EA51
:1024E00008081FFA88F80126B5424BD9019A62B153
:1024F000B14535D8B9192046D84740EA08011FFA36
:1025000081F80136F6B2B5423CD9B14507EB060178
:10251000204619D9D0470136F6B240EA0808B1453D
:102520001FFA88F8204607EB060119D8D84701366C
:10253000F6B240EA0800B5421FFA80F822D9B14548
:1025400007EB06012046E5D8D8470136F6B240EA47
:10255000080CB1451FFA8CF8204607EB0601E5D9B7
:102560002046B919D04740EA08031FFA83F8C8E7A4
:102570000C4B9847700040F00101C9B220460A4A4E
:10258000904780462046094B9847404603B0BDE837
:10259000F08F20463946D04740EA080C1FFA8CF8E5
:1025A000A1E700BFB51E000821220008711E000827
:1025B000B5200008211F00082DE9F0470E46994676
:1025C0001F4B0446154698477100204601F0FE0156
:1025D000DFF87480C0470746B9F1000F2AD02046C3
:1025E0002978C047012609F1FF3A40EA07074E451E
:1025F0000AF0010ABFB21DD2BAF1000F09D020467D
:102600006978C047022640EA070C4E451FFA8CF74E
:1026100010D2A95D2046C047711CCEB240EA070225
:10262000A95D204697B2C0470136F6B238434E4501
:1026300087B2EED32046034B98473846BDE8F08773
:10264000B51E0008711E00082122000838B50C4C88
:102650000C4D6420A8472268642042F020012160CC
:10266000A84723684FF4FA7023F020022260A8479D
:102670002168642041F020032360A84738BD00BFD3
:102680000C0C0140D516000808B5084880470848DA
:10269000016821F470020260036843F44011016094
:1026A0000268044B0260984708BD00BFA91D0008DE
:1026B000000C01404D260008024B102828BF1020B6
:1026C000185C70479007002010B502460B460020AA
:1026D0006321014CA04710BDB51D00082DE9F8434A
:1026E0001C4E04460D469046B0471B4F8146632161
:1026F00022462B460020B84718B994F90030002B29
:1027000007DBB047C9EB00004045F0D90220BDE827
:10271000F883002DFBD00123104926786A1EAB42B6
:102720000E7002EA030211D232B194F801C0022302
:10273000AB4281F801C00BD2E65C5A1CCE54A65CB9
:102740000233AB428E54F7D3BDE8F883BDE8F8837B
:10275000BDE8F883791D0008C11D0008900700201E
:1027600010B5044686B00E48804701238DF810301E
:1027700094B910218DF81110B52204A803218DF809
:102780001220084B984728B9684601214FF47A7205
:10279000054B984706B010BD11228DF81120EBE7CC
:1027A0004D260008C9260008DD26000800B583B0C4
:1027B00001A801214FF47A72014B984703B000BD84
:1027C000DD260008F8B51F460D4B04460E4615469B
:1027D000984700B1F8BD204631460A4A9047002884
:1027E000F8D1791C284689B2069A074B98470028E9
:1027F000F0D195F800C01CF0400F18BF0320E9E7A6
:10280000AD270008C9260008DD26000810B54224BF
:1028100088B08DF818404FF47A748DF81900009440
:1028200006A8022102AA0723014CA04708B010BD48
:10283000C527000810B5222488B08DF818404FF441
:102840007A748DF81900009406A8022102AA0723C1
:10285000014CA04708B010BDC527000830B589B0AD
:1028600008A9142201F8082D4FF47A7504460023B4
:102870000095084602AA0121034DA8479DF808309B
:10288000237009B030BD00BFC5270008F0B50B4C60
:1028900083B00746A0470A4D06460DF10700A8473A
:1028A00020B99DF8073013F0010F04D1A047801B19
:1028B000B842F2D9022003B0F0BD00BF791D000874
:1028C0005D28000830B5C00089B040EA810C412580
:1028D0004FF47A74009406A8022102AA00238DF80E
:1028E00018508DF819C0024CA04709B030BD00BF88
:1028F000C527000830B5C00089B040EA810C212509
:102900004FF47A74009406A8022102AA00238DF8DD
:1029100018508DF819C0024CA04709B030BD00BF57
:10292000C5270008F0B5002489B00546060A2346ED
:1029300040278DF819408DF81C408DF81D404FF44C
:102940007A74009406A8062102AA8DF818708DF8F2
:102950001A608DF81B50024CA04709B0F0BD00BFB3
:10296000C5270008F0B5002489B00546060A2346AD
:1029700020278DF819408DF81C404FF47A7400948C
:1029800006A8052102AA8DF818708DF81A608DF836
:102990001B50024CA04709B0F0BD00BFC52700087E
:1029A000F0B5132789B08446060A4FF47A748DF87F
:1029B000187000270D46009406A8042102AA0323DC
:1029C0008DF819708DF81A608DF81BC0054CA04762
:1029D00030B99DF80A209DF80B1041EA02232B80A4
:1029E00009B0F0BDC5270008F0B50C4689B0054612
:1029F00000264FEA102E0F0A4FF0120C8DF81D40E2
:102A00004FF47A74009406A8062102AA33468DF882
:102A100018C08DF819608DF81AE08DF81B508DF8EC
:102A20001C70024CA04709B0F0BD00BFC5270008CC
:102A300030B5012089B0234B9847044610B1204699
:102A400009B030BD7820204A90474FF47A7408A826
:102A5000102100F8081D02AA009401211B4C082334
:102A6000A04704460028EAD1194D05210120A847B6
:102A70004FF4004140F20120A847012140F202201A
:102A8000A847012143F20210A84701214FF4445006
:102A9000A8474FF402714FF45050A84740F2AE617E
:102AA00043F20140A847012143F20240A8472146D2
:102AB00044F20100A8474FF480403F21A847044654
:102AC000BDE700BF61270008651D0008C527000895
:102AD000E929000830B5002089B0234B9847044607
:102AE00010B1204609B030BD7820204A90474FF4FD
:102AF0007A7408A8102100F8081D02AA0094012188
:102B00001B4C0823A04704460028EAD1194D052193
:102B10000120A8474FF4004140F20120A8470121BD
:102B200040F20220A847214641F20250A847012165
:102B30004FF48850A84741F6B0514FF4A050A84731
:102B400042F6262141F20140A8470A2141F2024003
:102B5000A847214644F20100A8474FF480403F2196
:102B6000A8470446BDE700BF61270008651D0008AF
:102B7000C5270008E929000810B5164B1A78012A64
:102B800000D010BD14490A680AB3402A15D813486A
:102B900094B203689A18026000229BB20A6010483F
:102BA000C021C01822460F4B9847012021460E4AEB
:102BB000904701200D49884710BD0848403A0368F6
:102BC0000A6003F1400101609BB24024E7E71A70FC
:102BD00010BD00BFA0020020AC020020A80200200F
:102BE00008080020FD400008A943000865420008CD
:102BF00010B5064C064B214603209847054AC1B242
:102C0000204690470320044B984710BDA0070020A2
:102C100061440008E534000889420008084808B506
:102C20000368052B00D008BD064B1A68511C052A05
:102C30001960F8D100201860034B9847F3E700BFF4
:102C400094020020800200205D3500086F4A30B5F4
:102C500013686F4C6F4D238020882B8889B003EA5E
:102C6000000111F4007F5DD1228802F4004C1CEABF
:102C7000030F53D1B4F800C00CF48061194244D161
:102C8000228802F4005C1CEA030F03D05F494DF672
:102C9000FF700860228802F4805C1CEA030F2BD1CD
:102CA000B4F800C00CF4006018420BD05A490B78FD
:102CB000002B1ED10220594B984754494FF2FF7008
:102CC0002B880860228802F4807C1CEA030F0ED057
:102CD0004E4B4FF6FF6252491A60086810F4004FDD
:102CE0002BD150480021016007204C4B984709B078
:102CF00030BD4D4A9047E0E7444A4EF6FF71474BDE
:102D00000020116098472B88CAE74049474A4FF690
:102D1000FF305368086098472B88B1E744488047E4
:102D20002B88A7E743484FF6FF5111600378424ACA
:102D3000591C017090472B8896E73A490868421C55
:102D40000A6008680328CFD93C48026812F0080FCF
:102D5000CAD104683A4AA4B214603A4C2468A4B2B6
:102D60000094394C2468A4B20194384C2468A4B26D
:102D70000294374C2468A4B20394364C2468A4B25D
:102D80000494354C2468A4B20594344C2468A4B24D
:102D90000694334C2468A4B20794146844F00104E8
:102DA00014601468A4B20460146824F00104146070
:102DB000126892B20260186810F4806FFBD013485A
:102DC0004FF6FF320260009B9AB240F8442C019B00
:102DD0009AB240F8402C029B9AB240F83C2C039BDC
:102DE0009AB240F8382C049B9AB240F8342C059BD8
:102DF0009AB240F8302C069B9AB240F82C2C079BD4
:102E00009AB2002340F8282C0B606DE7445C004028
:102E1000E00700203C100020980200208D320008BE
:102E2000485C00408C0200201D3100085C0000203E
:102E300091440008880200201D2C0008405C0040DE
:102E400084020020005C0040045C0040085C0040FC
:102E50000C5C0040105C0040145C0040185C0040BA
:102E60001C5C00400348837A13B1034905220A60C1
:102E7000704700BF1810002094020020014B04226C
:102E80001A60704794020020034B1A78202A01D15F
:102E900000201870704700BF90020020704700BFEC
:102EA000212808B503D020280AD0022008BD104AE6
:102EB0001168087800F07F03212BF6D10D4B0DE04F
:102EC0000B4A0D49136893F800C00C4B0CF07F0CB3
:102ED000BCF1210F18BF002308703BB1126800211C
:102EE0000020936151829847002008BD022008BD50
:102EF00038100020392F000890020020512F0008C0
:102F0000084B1A68117801F07F03212B01D00220B1
:102F10007047022804D0222814BF022000207047E6
:102F2000002070473810002021B901288CBF0220F2
:102F3000002070470220704708B1034870470349DA
:102F400008220B681A827047D80000203810002031
:102F500008B103487047034908220B681A8270477A
:102F6000D80000203810002008B506490B68DB782F
:102F7000042B01D9002008BD0349044A01EBC30119
:102F8000904708BD38100020B80000204D3A0008D6
:102F900008B50249024B984708BD00BF5400002005
:102FA0004D3A000808B50249024B984708BD00BFDA
:102FB000B00000204D3A00082DE9F047304B314C6D
:102FC0001E6894F80780002486F80980B472F472B1
:102FD00020462D4DA8472D4E20464FF40071B04796
:102FE0002B4D10212046A847DFF8C0A040212046E5
:102FF000D047DFF8BC8080212046C047254A2046C4
:1030000090472548DFF8AC9090F82C102046C84730
:10301000224F2046B84701202146B0470120C02159
:10302000C04701202021A8471D4F01202146B84755
:1030300002204FF4C061B04702204FF48071C047B6
:1030400002202146B84702202021A847032021461C
:10305000B04703204FF48871D04703204021C84770
:1030600003204FF44051B84721460320A84720468B
:103070000C4988470C4B01221A60BDE8F08700BF5D
:1030800038100020544B0008B5410008C941000821
:10309000E5410008AD4200085C00002089420008BC
:1030A000254200088D3F000894020020414300089B
:1030B0001D430008C943000810B5064CA047064B45
:1030C00000241A6805499472884705488047054BD3
:1030D0001C6010BDF935000838100020E9300008E8
:1030E000414400089402002010B501200749884798
:1030F000074B01241C600748074C00224FF4E051A5
:1031000001801A6010462260196010BDC5340008A5
:10311000405C00403C100020445C004070B5454BD2
:103120000024454A82B001941C681068434A85B265
:10313000434E15603168434D88B250602E68424856
:10314000B1B2916005684149AEB2D6600868404EA0
:1031500085B2156131683F4D88B250612E683E4896
:10316000B1B29161A5B2066845F4806545F00101F0
:103170004FF6FE74B6B201EA04043848D6611D6009
:1031800019601C600368354913F4806FFAD04FF65C
:10319000FF300860136844F0080498B2264B1860AA
:1031A000506880B25860906880B29860D06880B2F1
:1031B000D860106980B21861506980B25861906916
:1031C00080B29861D269403390B2234A10601C608B
:1031D000186802F59E521FFA80FC4CF004041C6033
:1031E000243210681E4C0190106820F0030C4CF043
:1031F00001001060206840F004002060086810F4AE
:10320000805F10D04EF6FF70086019684FF6F77CAB
:1032100001EA0C001860019B1360216821F0040092
:10322000206002B070BD0F4B9847226822F0040165
:103230002160F6E7405C0040005C0040E8070020A9
:10324000045C0040085C00400C5C0040105C0040E6
:10325000145C0040185C00401C5C0040445C004072
:1032600010ED00E03136000810B5064C4FF6FB7C3F
:103270002268054802EA0C01216080474FF43F4371
:10328000236010BD405C00401134000810B5284C8C
:10329000072818BF20702378052B16D8DFE803F025
:1032A000181F272C36036278511E6170637873B93A
:1032B00020494FF6EF7C0A6802EA0C0008601C4ABD
:1032C0001D4806211170036010BD0623237010BD38
:1032D00019490868002825D00520207010BD17481E
:1032E0008047154A042301212370116010BD02227A
:1032F00003216270217010BD6178481E6070637890
:10330000002BE4D10A4B04221A7010BD094B052191
:1033100018681FFA80FC4CF010020A201A60217015
:10332000607010BD054B98470622227010BD00BF8B
:10333000E4070020405C00409C0200206932000845
:10334000024B4FF480221A60704700BF1404014002
:1033500070B4002A30D0531EDAB2561C7600002416
:1033600016F0020F23461BD1030F092B29D937333F
:103370000B700001020F0223092A4C7013D830325F
:10338000CA540001CD180233020FB3426C7013D03F
:10339000092A13D83032CA54CD186C700233000198
:1033A000020F092AEBD93732CA540001CD18023373
:1033B000020FB3426C70EBD170BC70473732CA5405
:1033C000EAE730330B70D4E708B5014B984708BDE6
:1033D0004D2C0008054B186820F470021A6019681B
:1033E00041F4001018601A681A6070470410014018
:1033F000054A064B106820F480011160186840F4FB
:1034000000021A60704700BF041002401C10024006
:103410000548837A1BB9054B0120186070470349A2
:1034200005220A60704700BF181000209402002097
:103430001B4A38B51B4B4FF480251560196821F4E1
:1034400080241C6052F8100C174C20F4802542F8A0
:10345000105C216841F48020206052F8085C9020C4
:1034600025F4802142F8081C1C68104944F480258A
:103470001D6000220E4CA0470E4BE8201D680E492F
:1034800045F4801500221D60A0470C4A0C4B1068C3
:1034900040F480611160186840F480221A6038BDE1
:1034A000140401400004014008040140C93300082D
:1034B000851A000800E100E04133000804E100E063
:1034C0001004014028B9064B1A6842F400511960F3
:1034D0007047034B186820F400521A60704700BF11
:1034E0000C1001402DE9F0410F4682B0054679B33A
:1034F000037801F1FF3805200124174E0DF1070173
:103500008DF80730B047BC4208EA040820D2B8F171
:10351000000F0AD095F801E005200DF10701022403
:103520008DF807E0B047BC4212D215F804C00DF187
:103530000701013405208DF807C0B0472A5D05203A
:103540000DF1070101348DF80720B047BC42ECD3E0
:1035500002B0BDE8F08100BF7919000838B51E4BF4
:103560001A78012A26D01D4A1068B0F5006F2AD0BB
:103570001B490D6885422CD034BFC0F50065C0EBF7
:1035800005051849402D0D6015D82C18146000222F
:1035900080B2ADB20A601449012408182A46C0213D
:1035A0001C70124B984720462946114A90472046E6
:1035B000104B984738BD00F14004403D0D6080B28B
:1035C00014604025E7E7064900200D681060854239
:1035D000D2D10020187038BDA0020020A80200201F
:1035E000A4020020AC02002008080020FD400008D2
:1035F000A943000865420008084938B50868083141
:103600000B68074AC018146807D006490822064DFF
:10361000A847204605490422A84738BDE8F7FF1F00
:10362000ECF7FF1F020000205133000812000020B9
:1036300030BF704708B538B106490B681A68904723
:10364000054800680A3008BD034901220B681A8248
:1036500008BD00BF341000203810002008B538B174
:1036600006490B689A689047054800680C3008BD09
:10367000034901220B681A8208BD00BF34100020E4
:103680003810002008B5002829D02A4A2A480023EB
:103690001268038092F800C01CF07F0318D1517AA1
:1036A00090F800E011F0200F14BF4EF0020E0EF063
:1036B000FD0E11F0400F14BF4EF0010E2EF0010E62
:1036C00080F800E01D4B1968086980471A4808BD5A
:1036D000012B00D108BD022B06D00020FAE71549C6
:1036E00002220B681A8208BD92F805C01CF0800FF8
:1036F0000CF00F0211D1930003F1804101F5B84E97
:10370000DEF8002002F4405CBCF5805FDAD102787C
:1037100042F0010C80F800C0D4E7930003F180412F
:1037200001F5B84EDEF8002002F03003102BC9D1AD
:10373000EDE700BF381000200810002034100020F2
:103740002DE9F041254E3468238A277A23B9042FC6
:103750002CD0A58A042703E0A58AAB42FAD9022718
:103760009D4228BF1D46A269284690471C498046B5
:10377000002088472A4601461A4B4046984729466A
:103780000020194A9047208A618AC5EB000C174B2C
:1037900017486D1830224FF44051A4F810C06582CC
:1037A0001A80346801802772BDE8F081114A1178CF
:1037B000012906D00D4B072710221A802772BDE879
:1037C000F0810D480D4900681FFA80FC61444800F3
:1037D00006490360302008801370E4E738100020A9
:1037E00069430008FD400008A9430008401000207C
:1037F0003E100020B0020020505C0040023000204B
:1038000010B50B4B0B4A1B685178DA78914205D3FF
:10381000987818B99C881CB1022010BD022010BDF8
:103820009A72054B1A6851688847204610BD00BF40
:1038300038100020E00000203410002038B5104877
:10384000104C0268216893694879C97898472368C1
:103850009A7A8AB180B9197971B99D7875B90A4B8C
:103860001968C8688047236828465A7993F803C0C6
:10387000DA7283F80CC038BD022038BD022038BD92
:1038800010100020381000203410002038B53A4BBA
:103890001B68187810F07F0035D0022801D0022074
:1038A00038BD5A88002A2DD1197959BB5A7912F09E
:1038B000800F22F080002BD1840004F1804101F5BB
:1038C000B84CDCF8005005F440552C4991F800C084
:1038D0006045E4D2002DE2D09B7A93B112F0800FC4
:1038E00020D004F1804404F5B844226802F0300E80
:1038F000BEF1100F33D022490B6858698047002071
:1039000038BD022038BD597A21F020025A7238BDE4
:10391000840004F1804101F5B84CDCF8005005F05A
:103920003005D2E704F1804E0EF5B844226802F467
:10393000405CBCF5805FDED1D0B91249124B91F8E2
:103940002C10984722684BF68F7102EA010383F42A
:10395000405E4EF4004C4CF080002060CBE7C4B2D7
:1039600020460A49884720463021094B9847C2E73C
:10397000084A9047E6E700BF38100020E00000202A
:10398000341000205C000020C9430008F542000804
:10399000E5410008CD42000838B5294B19684B793C
:1039A00013F0800F23F080022BD1900000F1804CA7
:1039B0000CF5B844256805F44055224C2478A24201
:1039C0001DD24A88DAB9D5B1897A19B313F0800FBC
:1039D00022D000F1804000F5B840036848F6BF717E
:1039E00003EA010282F0100C4CF4004E4EF080030A
:1039F00003601548036899698847002038BD022094
:103A000038BD900000F1804C0CF5B844256805F0F5
:103A10003005D2E7022038BD00F1804E0EF5B84ED9
:103A2000DEF800204BF68F7002EA000383F4805129
:103A300041F4004C4CF08002CEF80020D9E700BFE2
:103A400038100020E000002034100020054B1B68D7
:103A50005A8A10B108688018704789888A1A1A82B1
:103A6000704700BF3810002008B50D49002091F8BC
:103A70002C100C4A90470C480368187A082807D184
:103A80000A490B4B4FF4805C1022A1F800C01A8049
:103A9000A0F10900D0F1000E4EEB000008BD00BF00
:103AA0005C000020C9430008381000203E100020B0
:103AB00040100020F8B5304D2C68237A022B07D037
:103AC000042B05D0032B08D0052B06D0072B43D0A1
:103AD0000823237229498847F8BDA369228AC3B104
:103AE0002AB3A68A964228BF164630469847238AAC
:103AF000B4F812C09A1B074606EB0C0022826082C3
:103B00001F4900208847324601461E4B38469847D9
:103B1000228A62B11C4B00204FF4405E01461B4AD2
:103B2000A3F800E090471A483021228A0180A48A35
:103B3000944218D9DAB92C680620164920720B680D
:103B400015481FFA83FC0CEB00014B0010481A606B
:103B50003021237A0180BCE7104B1C68E268904753
:103B60002C680823B5E72C6803232372B1E72C687F
:103B700005232372ADE700BF38100020693A000822
:103B800089430008654100083E100020A943000851
:103B900040100020505C0040023000201010002037
:103BA0002DE9F041994E9A4C3268266899491FFADE
:103BB00082FC327A0CEB01004300092A82B01B68B8
:103BC0004AD098B200F1005707F540584FEA48082C
:103BD000454615F8013B904F337098F801E086F8A0
:103BE00001E0B5F80300B8477080B5F80700256814
:103BF000B847A8802668B8F80C300121F3803172EC
:103C0000002B2ED07178062900F08E80002949D132
:103C10007288002A00F09F80804D2B6808461A6940
:103C20009047032800F0128123684FF6FF7C1A8A20
:103C300062454AD002282ED0002A2CD093F900E009
:103C4000BEF1000FC0F2BD80754903204FF4405E05
:103C50001872A1F800E020E0F38801213172002BF6
:103C6000D0D196F800C075781CF07F0330D0012BBE
:103C700000F0BD80022B00F00181684B28461E68D1
:103C800072699047032800F0238100283BD0266802
:103C90000823337201E008211972624A904702B08A
:103CA000BDE8F081082969D1327812F07F0FB3D1D5
:103CB0005D4B0021B36100207182984723684FF665
:103CC000FF7C1A8A00206245B4D109221A72E4E707
:103CD000092D00F0F380052D00F0C080032D00F0C9
:103CE000D980012DC9D196F803C0BCF1010FC4D110
:103CF000B288002AC1D1767A16F0200FBDD04B4889
:103D000080470028B9D1414A4948116800221FFA6A
:103D100081FE0EEB00035E003260464926683020CB
:103D2000062308803372B8E7357815F07F0F7FF4EB
:103D300073AFB378012B00F0C780022B00F08A80AC
:103D4000032B7FF469AF354D29684B6A002BB0D146
:103D50002068417861E7736823F47F4CBCF5003F2D
:103D60007FF45AAF96F800E01EF07F0340F0B48075
:103D7000B08800287FF450AF2F4B9AE70A297FF4D0
:103D80004BAF357805F07F03012B7FF445AFB07A58
:103D900000283FF441AF7288002A7FF43DAF73687A
:103DA00023F47F4EBEF5803F7FF436AF1B4D1146A6
:103DB0002B6870799A6990470028C9D126681F4BF3
:103DC00077E7D98801910198824218D88A4280F019
:103DD000A6801249086890F82C108A4280F0A480CE
:103DE000174A002010709982164B984755E70B2D03
:103DF0007FF443AF144B9847002884D03DE7074831
:103E000001990268198292F82C10ECE7505C00408E
:103E10003810002004300020354400081010002025
:103E20003E100020693A0008353600088D38000839
:103E30000230002040100020853600085D36000862
:103E4000B0020020413700083D38000820680921F1
:103E5000017222E7464D2868036A77E796F903E086
:103E6000BEF1000F07DBB3782BB9B08818B9B17A6F
:103E700000293FF448AF082333720EE7012D3FF4C9
:103E80003EAF032D7FF4F9AE3A49884700283FF44E
:103E90003AAFF2E696F803C0BCF1010F7FF4EDAE45
:103EA000B288002A7FF4E9AE717A334841F0200EDF
:103EB00086F809E00368DE69B04724E72F4A904797
:103EC00000283FF420AFD8E6294D2B68DB693DE799
:103ED000266809233372E0E6012B30D0022B7FF4F1
:103EE0009BAE737913F0800F03F00F0236D1900070
:103EF00000F1804E0EF5B84CDCF8005005F440554A
:103F00001F4890F800C06245BFF486AE13F0700FF2
:103F10007FF482AE002D3FF47FAE1A4BC9E6144900
:103F20000A6892F82C105EE792FBF1FC01FB1C2062
:103F300000287FF458AF144A0120107053E70C4D4D
:103F400070792B689A69904700287FF401AF266842
:103F5000B17A00297FF410AF71785EE6900000F12D
:103F6000804E0EF5B84CDCF8005005F03005C7E780
:103F70001010002099390008341000200138000882
:103F8000E000002085360008B0020020F0B42A4B83
:103F90001E78002E49D0294A40F60F7C1468711E05
:103FA00004EA0C0343F4004C4CF08003136001233B
:103FB0009E4201F0010138D969B1214940F60F72E2
:103FC0000C6848F2810C04EA020343EA0C02022363
:103FD0009E420A6029D9DCB2A20002F1804101F5BB
:103FE000B84CDCF800700133D9B244F4004540F617
:103FF0000F7407EA040445F080028F0042EA0405CA
:1040000007F18044CCF8005004F5B844256841F429
:10401000004140F60F7241F0800C05EA02020133C4
:104020004CEA02019E422160D5D8064B40F0800048
:104030001860F0BC704700BFE0000020005C00404A
:10404000045C00404C5C004010B5174C23681A7AA1
:10405000022A15D0042A13D0062A04D008221A7284
:104060001249884710BD5A78052A11D0104A1368A2
:1040700098688047236808221A720C49884710BD47
:104080000C4B9847236809491A7A1A72884710BD61
:10409000187810F07F0FE9D1D87807498847074A88
:1040A0001368196A8847E1E738100020693A000868
:1040B00010100020413700088D3F00083410002008
:1040C000704700BF08B5074A074B022107481A602E
:1040D0001172074B0749084A186011600368984736
:1040E00008BD00BF18100020381000205C00002020
:1040F000101000208C0000203410002001325210DB
:10410000F0B42DD00346447813F802CB01F10051EE
:10411000013A01F540554CEA04206D001146288013
:1041200002F001020420D9B142B15C7813F802CB4D
:1041300008204CEA04220139AA8011D01A4612F84C
:1041400002CB5F78041D4CEA0726465393F802C061
:104150005678931C4CEA06206053201D0239EDD19D
:10416000F0BC70470132521070B420D001F1005100
:1041700001F540535B00013A53F8044B114620F817
:10418000024B02F0010291B12AB153F8042B01391C
:1041900020F8022B0BD01C4654F8046B5D680246D5
:1041A00022F8026B231D4580901C0239F3D170BCAC
:1041B000704700BF4FF6F871024A00EA010313602E
:1041C000704700BF505C0040800000F1804202F563
:1041D000B842136848F68F1C03EA0C0040EA01035A
:1041E0001360704710B4840004F1804000F5B840BB
:1041F000046801F0100C48F6BF731FFA8CF204EA51
:1042000003030AB183F0100301F0200291B209B157
:1042100083F0200343F4004C4CF08003036010BC97
:10422000704700BF10B4840004F1804000F5B8402E
:10423000046801F4805C4BF68F731FFA8CF204EA79
:1042400003030AB183F4805301F4005291B209B11F
:1042500083F4005343F4004C4CF08003036010BC23
:10426000704700BF810001F1804202F5B84210683A
:1042700048F6BF7300EA030C8CF0300141F40040B3
:1042800040F0800313607047810001F1804202F525
:10429000B84210684BF68F7300EA030C8CF440515F
:1042A00041F4004040F0800313607047800000F14B
:1042B000804202F5B842136840F60F6C03EA0C0125
:1042C00041F4004040F0800313607047800000F12B
:1042D000804303F5B8431A6812F4804F09D0196877
:1042E00040F60F7001EA000242F4404C4CF08001AD
:1042F00019607047800000F1804303F5B8431A68E5
:1043000012F0400F09D0196840F60F7001EA000260
:1043100042F4004C4CF0C00119607047074A4FF658
:10432000FE73126801EA030392B202EBC00C0CF1B7
:10433000005101F54050420013607047505C00404E
:10434000074B10B41C68074AA4B204EBC0039818CA
:104350004FF6FE7C420001EA0C03136010BC70476C
:10436000505C00400430002006490B681FFA83FCB3
:104370000CEBC00202F1005101F5405043001888D7
:10438000704700BF505C0040054A064913681FFA99
:1043900083FC0CEBC002501843001888704700BF24
:1043A000505C004004300020054A064B12681FFA9A
:1043B00082FC0CEBC002D01843001960704700BFAC
:1043C000505C0040023000200F4A104B12681FFA68
:1043D00082FC0CEB030202EBC0035B003E290AD90E
:1043E0004A0911F01F0F01D1501E82B2920242F40D
:1043F0000041196070474A0811F0010F18BF0132DF
:1044000090021860704700BF505C004006300020EA
:10441000064B07491A6893B203EBC00C0CEB010280
:10442000530019688805800D704700BF505C00403C
:1044300006300020C3B2000A40EA0320704700BFE4
:10444000044A002010600449044A4FF43F430B80A3
:1044500013607047445C00403C100020405C00400A
:1044600070B500F07F05074A28460E46904706497A
:1044700004462846884722460146044B3046984762
:10448000204670BD114400088943000865410008BA
:104490002DE9F04F654F83B00023DFF8A8A1DFF8C6
:1044A000B8B1DFF89481ADF80630B946DBF800000A
:1044B0005F4C388039885F4D0BB2002B4BF6BF72D2
:1044C0005D4E80F2A780B9F800C00CF00F008300A9
:1044D00003F1804101F5B8418AF80000002835D188
:1044E0002168A8F80010B8F8000000F0300CA5F81A
:1044F00000C0B8F8003003F44051A8F8001020685C
:1045000000EA020282F4005C8CF0200343F40041D4
:1045100041F080002060B9F8002012F0100F45D063
:104520002068ADF80600BDF806C01CF4006F74D119
:10453000BDF806C00FFA8CF3002BB7DA226840F6FC
:104540008F7102EA010020603C4B36E00E68ADF846
:104550000660BDF806502CB2002C19DBBDF806C071
:104560001CF0800FA2D09AF8000048F60F7E82005F
:1045700002F1804C0CF5B8442668314806EA0E0575
:1045800025609AF800104B1E50F8232090478DE7C5
:104590000E6840F68F7E06EA0E052A4C0D602178E3
:1045A00029484B1E50F823209047D7E7236848F648
:1045B0000F7E03EA0E02254B22609847216832885D
:1045C0004BF6BF7302F4805C1FFA8CF001EA030320
:1045D00008B183F48053318801F4005E1FFA8EF035
:1045E00008B183F40053288800F0100C1FFA8CF2F5
:1045F0000AB183F010032A8802F0200E1FFA8EF110
:1046000009B183F02003124943EA010C084B1FFA59
:104610008CF0186003B0BDE8F08F226840F68F7E02
:1046200002EA0E0121600B4BC7E700BFE007002044
:10463000005C0040401000203E100020B53A000809
:104640001C00002014100020380000204940000801
:104650008080FFFFA13B0008445C00405261646918
:104660006F2056302E320A00526164696F20496E05
:104670006974204F4B203A20464D204D6F64650AE7
:1046800000000000526164696F20496E6974204621
:1046900061696C0A000000004722CE220A236E23C3
:1046A000E6235E24AE24EA2426257625C6250226A6
:1046B0005226B626062742279227CE271E286E2886
:1046C000D228FA2822297229C229122A00000000C1
:1046D00054696D6572205469636B0A000A0A000010
:1046E0002A2A2A2A2A2A2A2A2A2A2A2A2A2A2A2A2A
:1046F0002A2A2A2A2A2A2A2A2A2A2A2A2A2A2A2A1A
:104700002A2A2A2A2A2A2A2A2A2A2A2A2A2A2A2A09
:104710002A2A2A2A2A2A2A0A0000000020202020E9
:104720002020202020202020202020202020202089
:104730002020526164696F2056302E3320202020C3
:104740002020202020202020202020202020202069
:104750002020200A000000002A20312E2020426163
:104760006E642053656C6563742020202020202017
:104770002020202020202020202020202020202039
:1047800020202020202020202020202020202A0A35
:10479000000000002A20322E20204348202B2B200E
:1047A0002020202020202020202020202020202009
:1047B00020202020202020202020202020202020F9
:1047C000202020202020202020202A0A0000000075
:1047D0002A20332E20204348202D2D202020202049
:1047E00020202020202020202020202020202020C9
:1047F00020202020202020202020202020202020B9
:104800002020202020202A0A000000002A20342E08
:1048100020205365656B202B202020202020202085
:104820002020202020202020202020202020202088
:104830002020202020202020202020202020202078
:1048400020202A0A000000002A20352E202053654F
:10485000656B202D202020202020202020202020BB
:104860002020202020202020202020202020202048
:1048700020202020202020202020202020202A0A44
:10488000000000002A20362E2020566F6C756D65C2
:10489000202B20202020202020202020202020200D
:1048A0002020202020202020202020202020202008
:1048B000202020202020202020202A0A0000000084
:1048C0002A20372E2020566F6C756D65202D2020F4
:1048D00020202020202020202020202020202020D8
:1048E00020202020202020202020202020202020C8
:1048F0002020202020202A0A000000002A20382E14
:1049000020204B6F726561204368202B2B202020D4
:104910002020202020202020202020202020202097
:104920002020202020202020202020202020202087
:1049300020202A0A000000002A20392E20204B6F58
:10494000726561204368202D2D202020202020200A
:104950002020202020202020202020202020202057
:1049600020202020202020202020202020202A0A53
:10497000000000002A206D2E20204D656E7520203D
:104980002020202020202020202020202020202027
:104990002020202020202020202020202020202017
:1049A000202020202020202020202A0A0000000093
:1049B000464D2025642025642525203A200000004E
:1049C000414D2025642025642525203A2000000043
:1049D00042414E44204552524F52203A200000009E
:1049E000464D20436F6E666967203A202578200A7D
:1049F00000000000414D20436F6E666967203A2039
:104A00002578200A0000000046726571203A2025B2
:104A1000642020526574203A2025640A00000000BA
:104A2000466F756E642046726571203A20256420B9
:104A300020526574203A2025640A00004E6F7420CD
:104A4000466F756E640A0000457272436F6465209C
:104A500020526574203A2025640A0000566F6C7558
:104A60006D65205570203A202564200A0000000062
:104A7000566F6C756D6520446F776E203A20256403
:104A8000200A00004B6F72656120464D204672651A
:104A900071203A2025642020526574203A20256434
:104AA0000A0000004B6F72656120414D204672651F
:104AB00071203A2025642020526574203A20256414
:104AC0000A0000004E6F2E300A0000005B027F02D9
:104AD000C702180345038403CC036E04A40400003A
:104AE0002603530054004D006900630072006F00FC
:104AF00065006C0065006300740072006F006E005A
:104B0000690063007300000012010002020000400F
:104B1000830440570002010203010000040309045A
:104B20003203530054004D00330032002000560081
:104B3000690072007400750061006C002000430081
:104B40004F004D00200050006F00720074002000E4
:104B50002000000009024300020100C032090400E5
:104B600000010202010005240010010524010001DA
:104B7000042402020524060001070582030800FF41
:104B800009040100020A00000007050302400000BA
:084B900007058102400000004E
:104B98001A03530054004D00330032000000000097
:104BA800000000000000000000000000792B000851
:104BB800C1400008C1400008C1400008C1400008C9
:104BC800C1400008C1400008C1400008C1400008B9
:104BD800F12B0008C1400008C1400008C14000088E
:104BE800C1400008544B000843000000B9300008D9
:104BF800B92F0008892E00089D2E0008A12E000854
:104C0800012F0008292F0008A52F0008912F000860
:104C1800692F00080000000040000000C1400008A3
:104C2800652E0008C1400008C1400008C1400008C6
:104C3800C1400008C1400008C14000087D2E00089E
:104C4800084B0008120000001C4B0008040000007C
:104C5800E04A000826000000204B0008320000004F
:104C6800000000201A00000000C201000000080037
:044C78000401000033
:040000050800159545
:00000001FF
